{
  "contractName": "AlfredEstateFactory",
  "abi": [
    {
      "anonymous": false,
      "inputs": [
        {
          "indexed": true,
          "internalType": "address",
          "name": "estate",
          "type": "address"
        },
        {
          "indexed": true,
          "internalType": "address",
          "name": "owner",
          "type": "address"
        }
      ],
      "name": "estateCreated",
      "type": "event"
    },
    {
      "inputs": [
        {
          "internalType": "address",
          "name": "oracle",
          "type": "address"
        },
        {
          "internalType": "address",
          "name": "executor",
          "type": "address"
        },
        {
          "internalType": "uint256",
          "name": "salt",
          "type": "uint256"
        }
      ],
      "name": "newEstate",
      "outputs": [
        {
          "internalType": "address payable",
          "name": "estate",
          "type": "address"
        }
      ],
      "stateMutability": "payable",
      "type": "function",
      "payable": true
    },
    {
      "inputs": [
        {
          "internalType": "address",
          "name": "creator",
          "type": "address"
        },
        {
          "internalType": "uint256",
          "name": "salt",
          "type": "uint256"
        }
      ],
      "name": "getEstateAddress",
      "outputs": [
        {
          "internalType": "address",
          "name": "estate",
          "type": "address"
        }
      ],
      "stateMutability": "view",
      "type": "function",
      "constant": true
    }
  ],
  "bytecode": "0x608060405234801561001057600080fd5b50614625806100206000396000f3fe6080604052600436106100295760003560e01c806361f518771461002e578063cc447d5914610080575b600080fd5b6100646004803603606081101561004457600080fd5b506001600160a01b038135811691602081013590911690604001356100b9565b604080516001600160a01b039092168252519081900360200190f35b34801561008c57600080fd5b50610064600480360360408110156100a357600080fd5b506001600160a01b0381351690602001356102c5565b60006060604051806020016100cd90610411565b601f1982820381018352601f90910116604081815260208281018790523360601b82840152815160348185030181526054909301909152815191810191909120825192935091829184016000f59250823b61012757600080fd5b6001600160a01b038616156101a757826001600160a01b03166347c421b5876040518263ffffffff1660e01b815260040180826001600160a01b03166001600160a01b03168152602001915050600060405180830381600087803b15801561018e57600080fd5b505af11580156101a2573d6000803e3d6000fd5b505050505b6001600160a01b0385161561022757826001600160a01b0316639665b658866040518263ffffffff1660e01b815260040180826001600160a01b03166001600160a01b03168152602001915050600060405180830381600087803b15801561020e57600080fd5b505af1158015610222573d6000803e3d6000fd5b505050505b6040805163f2fde38b60e01b815233600482015290516001600160a01b0385169163f2fde38b91602480830192600092919082900301818387803b15801561026e57600080fd5b505af1158015610282573d6000803e3d6000fd5b50506040513392506001600160a01b03861691507fc513d4f6a19732355ba466a5670a3b4de54be626f8e34829bb6dff79e261688c90600090a350509392505050565b60006060604051806020016102d990610411565b6020820181038252601f19601f8201166040525090506000838560405160200180838152602001826001600160a01b03166001600160a01b031660601b8152601401925050506040516020818303038152906040528051906020012090506060826040516020018082805190602001908083835b6020831061036c5780518252601f19909201916020918201910161034d565b51815160209384036101000a60001901801990921691161790526040805192909401828103601f190183528085528251928201929092207fff00000000000000000000000000000000000000000000000000000000000000838301523060601b602184015260358301989098526055808301989098528351808303909801885260759091019092525084519401939093206001600160a01b0316979650505050505050565b6141d18061041f8339019056fe6080604052600080546001600160a01b03191673818e6fecd516ecc3849daf6845e3ec868087b7551790556340000000600b556249d400600f5534801561004557600080fd5b50600180546001600160a01b03191633178155600d805460ff19908116909155601080549091168217905560115561414f806100826000396000f3fe6080604052600436106103645760003560e01c80638305368a116101c6578063c34c08e5116100f7578063e6b5916a11610095578063efeb5e581161006f578063efeb5e5814610940578063f2fde38b14610960578063fef11a9514610980578063ff2dc9a8146109a05761036b565b8063e6b5916a146108eb578063e8dd63cb1461090b578063efa58fb21461092b5761036b565b8063c95b7204116100d1578063c95b72041461086b578063dbb1815d1461088b578063dbe6e987146108ab578063e52cb36a146108cb5761036b565b8063c34c08e514610821578063c820b39614610836578063c8544f45146108565761036b565b8063a62d984d11610164578063ae68b0561161013e578063ae68b056146107a1578063b1efd102146107c1578063b79ffaff146107e1578063c3085a3e146108015761036b565b8063a62d984d1461074a578063a76d143e1461076a578063a84173ae1461078c5761036b565b80638ed36355116101a05780638ed36355146106e057806396074e70146106f55780639665b65814610715578063a46f0c86146107355761036b565b80638305368a1461068b57806389dcfbb1146106ab5780638da5cb5b146106cb5761036b565b806347c421b5116102a05780635a4de16d1161023e57806377231eaa1161021857806377231eaa1461060957806379716e43146106295780637b022e74146106495780637dc0d1d0146106695761036b565b80635a4de16d146105bf57806362520a0a146105df5780636b4cfc37146105f45761036b565b80634bba98c81161027a5780634bba98c8146105485780634d757df614610568578063579bb4651461058a57806359633a1c1461059f5761036b565b806347c421b5146104e857806349dcbc5e146105085780634b552d86146105285761036b565b8063310924511161030d578063391e91de116102e7578063391e91de146104895780633a98ef39146104a9578063400d99d3146104be57806346cca55c146104d35761036b565b80633109245114610427578063310dd0ad14610454578063319576b5146104695761036b565b80631e236fc41161033e5780631e236fc4146103d257806326029244146103e75780632fdcfbd2146104075761036b565b806306096c7c14610370578063123ca7b9146103875780631932d6c1146103b25761036b565b3661036b57005b600080fd5b34801561037c57600080fd5b506103856109b5565b005b34801561039357600080fd5b5061039c610a35565b6040516103a991906136e8565b60405180910390f35b3480156103be57600080fd5b506103856103cd366004613370565b610a3b565b3480156103de57600080fd5b50610385610ca8565b3480156103f357600080fd5b50610385610402366004613345565b610d58565b34801561041357600080fd5b50610385610422366004613305565b610f2a565b34801561043357600080fd5b50610447610442366004613370565b611020565b6040516103a991906136dd565b34801561046057600080fd5b50610385611040565b34801561047557600080fd5b506103856104843660046132e9565b61104a565b34801561049557600080fd5b506103856104a43660046132e9565b611114565b3480156104b557600080fd5b5061039c6111d9565b3480156104ca57600080fd5b506104476111df565b3480156104df57600080fd5b5061039c6111e8565b3480156104f457600080fd5b506103856105033660046132e9565b6111ee565b34801561051457600080fd5b50610385610523366004613345565b6112e0565b34801561053457600080fd5b506103856105433660046133f2565b611379565b34801561055457600080fd5b506103856105633660046132e9565b611429565b34801561057457600080fd5b5061057d6114b7565b6040516103a991906136f1565b34801561059657600080fd5b506103856114c0565b3480156105ab57600080fd5b506103856105ba3660046132e9565b611538565b3480156105cb57600080fd5b506103856105da36600461342a565b6117b3565b3480156105eb57600080fd5b50610447611853565b34801561060057600080fd5b5061038561185c565b34801561061557600080fd5b506103856106243660046133a8565b611866565b34801561063557600080fd5b5061038561064436600461342a565b611a51565b34801561065557600080fd5b506103856106643660046133f2565b611b13565b34801561067557600080fd5b5061067e611b7c565b6040516103a99190613587565b34801561069757600080fd5b5061067e6106a636600461342a565b611b8b565b3480156106b757600080fd5b506103856106c63660046132e9565b611bb2565b3480156106d757600080fd5b5061067e611d51565b3480156106ec57600080fd5b50610385611d60565b34801561070157600080fd5b50610385610710366004613345565b611e02565b34801561072157600080fd5b506103856107303660046132e9565b612005565b34801561074157600080fd5b5061067e6120db565b34801561075657600080fd5b506103856107653660046132e9565b6120ea565b34801561077657600080fd5b5061077f61232f565b6040516103a99190613685565b34801561079857600080fd5b5061067e6123df565b3480156107ad57600080fd5b5061039c6107bc366004613466565b6123ee565b3480156107cd57600080fd5b5061039c6107dc366004613370565b6123fb565b3480156107ed57600080fd5b506104476107fc366004613442565b61255a565b34801561080d57600080fd5b5061038561081c3660046132e9565b61257a565b34801561082d57600080fd5b5061067e612646565b34801561084257600080fd5b5061038561085136600461342a565b612655565b34801561086257600080fd5b5061039c612712565b34801561087757600080fd5b5061044761088636600461342a565b612718565b34801561089757600080fd5b5061039c6108a63660046132e9565b612800565b3480156108b757600080fd5b5061039c6108c63660046132e9565b612812565b3480156108d757600080fd5b506104476108e636600461342a565b612824565b3480156108f757600080fd5b506103856109063660046133f2565b612839565b34801561091757600080fd5b5061039c6109263660046132e9565b6128f6565b34801561093757600080fd5b5061039c612908565b34801561094c57600080fd5b5061067e61095b36600461342a565b61290e565b34801561096c57600080fd5b5061038561097b3660046132e9565b61291b565b34801561098c57600080fd5b5061038561099b3660046132e9565b612a0d565b3480156109ac57600080fd5b5061039c612a99565b6001546001600160a01b03163314806109d857506004546001600160a01b031633145b806109ed57506002546001600160a01b031633145b80610a0657503360009081526007602052604090205415155b610a2b5760405162461bcd60e51b8152600401610a2290613abe565b60405180910390fd5b610a33612a9f565b565b600f5481565b81336001600160a01b0382161415610a87576001600160a01b038116600090815260076020526040902054610a825760405162461bcd60e51b8152600401610a2290613d5f565b610b75565b6003600d5460ff166003811115610a9a57fe5b1415610af4576001546001600160a01b0316331480610ac357506004546001600160a01b031633145b80610ad857506002546001600160a01b031633145b610a825760405162461bcd60e51b8152600401610a2290613bd1565b6002600d5460ff166003811115610b0757fe5b14610b4b576001546001600160a01b0316331480610b2f57506004546001600160a01b031633145b610a825760405162461bcd60e51b8152600401610a229061374f565b6002546001600160a01b03163314610b755760405162461bcd60e51b8152600401610a2290613a08565b6001600160a01b038316610b9b5760405162461bcd60e51b8152600401610a2290614071565b6001600160a01b038216610bc15760405162461bcd60e51b8152600401610a2290613a7c565b6001600160a01b038316600090815260076020526040902054610bf65760405162461bcd60e51b8152600401610a2290613c54565b6001600160a01b038316600090815260076020908152604080832054600690925290912054600580546000199093019285919084908110610c3357fe5b600091825260208083209190910180546001600160a01b0319166001600160a01b0394851617905587831680835260069091526040808320839055928716808352838320859055925190917f7d78e1b087362efc35dc4f465436d523b17cab3dfb5c1e476383970f904064a991a35050505050565b6001546001600160a01b0316331480610ccb57506004546001600160a01b031633145b610ce75760405162461bcd60e51b8152600401610a2290613838565b6002600d5460ff166003811115610cfa57fe5b1415610d185760405162461bcd60e51b8152600401610a2290613914565b6040517f3b46fefc13efddf5efd8a1d85189329ad80be68422a680b21b3f67180639ec4c90600090a1600d80546003919060ff19166001835b0217905550565b6003600d5460ff166003811115610d6b57fe5b1415610dca576001546001600160a01b0316331480610d9457506004546001600160a01b031633145b80610da957506002546001600160a01b031633145b610dc55760405162461bcd60e51b8152600401610a2290613de7565b610e4b565b6002600d5460ff166003811115610ddd57fe5b14610e21576001546001600160a01b0316331480610e0557506004546001600160a01b031633145b610dc55760405162461bcd60e51b8152600401610a2290613af5565b6002546001600160a01b03163314610e4b5760405162461bcd60e51b8152600401610a2290613f04565b6001600160a01b038216610e715760405162461bcd60e51b8152600401610a2290613ecd565b6001600160a01b038216600090815260076020526040902054610ea65760405162461bcd60e51b8152600401610a2290613d5f565b6001600160a01b038216600090815260066020526040902054600a54610ecc9082612b54565b600a819055610edb9083612b9d565b600a556001600160a01b038316600081815260066020526040808220859055518492849290917fab6a43a57d39fe3786b868af47db6a5105ba36308ed374d1e4cd5464480403729190a4505050565b6001546001600160a01b0316331480610f4d57506004546001600160a01b031633145b610f695760405162461bcd60e51b8152600401610a2290613838565b6002600d5460ff166003811115610f7c57fe5b1415610f9a5760405162461bcd60e51b8152600401610a2290613914565b60405163a9059cbb60e01b81526001600160a01b0383169063a9059cbb90610fc8908690859060040161359b565b602060405180830381600087803b158015610fe257600080fd5b505af1158015610ff6573d6000803e3d6000fd5b505050506040513d601f19601f8201168201806040525061101a919081019061340e565b50505050565b600860209081526000928352604080842090915290825290205460ff1681565b610a336000611429565b6002600d5460ff16600381111561105d57fe5b148061107957506003600d5460ff16600381111561107757fe5b145b6110955760405162461bcd60e51b8152600401610a2290613e89565b6002546001600160a01b031633146110bf5760405162461bcd60e51b8152600401610a22906139d1565b6110c881612bc2565b60005b600554811015611110576000600582815481106110e457fe5b60009182526020822001546001600160a01b031691506111079082908590612ca5565b506001016110cb565b5050565b6002600d5460ff16600381111561112757fe5b148061114357506003600d5460ff16600381111561114157fe5b145b61115f5760405162461bcd60e51b8152600401610a2290613e89565b6002546001600160a01b031633146111895760405162461bcd60e51b8152600401610a22906139d1565b61119281612bc2565b60005b600554811015611110576000600582815481106111ae57fe5b6000918252602090912001546001600160a01b031690506111d0818480612ca5565b50600101611195565b600a5481565b60145460ff1681565b60115481565b6001546001600160a01b031633148061121157506004546001600160a01b031633145b61122d5760405162461bcd60e51b8152600401610a2290613838565b6002600d5460ff16600381111561124057fe5b141561125e5760405162461bcd60e51b8152600401610a2290613914565b6001600160a01b0381166112845760405162461bcd60e51b8152600401610a229061386f565b6003546040516001600160a01b038084169216907f05cd89403c6bdeac21c2ff33de395121a31fa1bc2bf3adf4825f1f86e79969dd90600090a3600380546001600160a01b0319166001600160a01b0392909216919091179055565b6001546001600160a01b031633148061130357506004546001600160a01b031633145b61131f5760405162461bcd60e51b8152600401610a2290613838565b6002600d5460ff16600381111561133257fe5b14156113505760405162461bcd60e51b8152600401610a2290613914565b6040516001600160a01b0383169082156108fc029083906000818181858888f150505050505050565b6001546001600160a01b031633148061139c57506004546001600160a01b031633145b6113b85760405162461bcd60e51b8152600401610a2290613838565b6002600d5460ff1660038111156113cb57fe5b14156113e95760405162461bcd60e51b8152600401610a2290613914565b604051811515907fe92d988a3f39703b702f345b798775a34ed2cb65eaa89f1b8c1df7a159969bf290600090a26010805460ff1916911515919091179055565b6002600d5460ff16600381111561143c57fe5b148061145857506003600d5460ff16600381111561145657fe5b145b6114745760405162461bcd60e51b8152600401610a2290613e89565b336000908152600760205260409020546114a05760405162461bcd60e51b8152600401610a2290613c9f565b6114a981612bc2565b6114b4338283612ca5565b50565b600d5460ff1681565b6001546001600160a01b03163314806114e357506004546001600160a01b031633145b6114ff5760405162461bcd60e51b8152600401610a2290613838565b6002600d5460ff16600381111561151257fe5b14156115305760405162461bcd60e51b8152600401610a2290613914565b610a3361311b565b6003600d5460ff16600381111561154b57fe5b14156115aa576001546001600160a01b031633148061157457506004546001600160a01b031633145b8061158957506002546001600160a01b031633145b6115a55760405162461bcd60e51b8152600401610a2290613de7565b61162b565b6002600d5460ff1660038111156115bd57fe5b14611601576001546001600160a01b03163314806115e557506004546001600160a01b031633145b6115a55760405162461bcd60e51b8152600401610a2290613af5565b6002546001600160a01b0316331461162b5760405162461bcd60e51b8152600401610a2290613f04565b6001600160a01b0381166116515760405162461bcd60e51b8152600401610a2290613ecd565b6001600160a01b0381166000908152600760205260409020546116865760405162461bcd60e51b8152600401610a2290613d5f565b6001600160a01b038116600090815260076020526040902054805b60055481101561171257600581600101815481106116bb57fe5b600091825260209091200154600580546001600160a01b0390921691839081106116e157fe5b600091825260209091200180546001600160a01b0319166001600160a01b03929092169190911790556001016116a1565b50600580548061171e57fe5b60008281526020808220830160001990810180546001600160a01b03191690559092019092556001600160a01b0384168252600781526040808320839055600690915281208054919055600a546117759082612b54565b600a5560405181906001600160a01b038516907f18d8b6ccc58a1593daafb7383d8b38c330774fcae8f0720cc5914e1dc13f735790600090a3505050565b6001546001600160a01b03163314806117d657506004546001600160a01b031633145b6117f25760405162461bcd60e51b8152600401610a2290613838565b6002600d5460ff16600381111561180557fe5b14156118235760405162461bcd60e51b8152600401610a2290613914565b60405181907f11bd7215a9bb39d2998de6705c41dc503e57c8f261febc68faa7166d375057ce90600090a2601155565b60105460ff1681565b610a336000611114565b6001546001600160a01b031633148061188957506004546001600160a01b031633145b8061189e57506002546001600160a01b031633145b806118b757503360009081526007602052604090205415155b6118d35760405162461bcd60e51b8152600401610a2290613abe565b60608383836040516024016118ea939291906135b4565b60408051601f198184030181529190526020810180517bffffffffffffffffffffffffffffffffffffffffffffffffffffffff1663e318b52b60e01b17905290506000611936826123ee565b60008181526012602052604090205490915060ff16156119685760405162461bcd60e51b8152600401610a2290613f61565b61197181612718565b61198d5760405162461bcd60e51b8152600401610a2290613fcf565b6000818152601260205260408120805460ff191660011790556004546001600160a01b03169063468721a790829085816040518563ffffffff1660e01b81526004016119dc94939291906135fb565b602060405180830381600087803b1580156119f657600080fd5b505af1158015611a0a573d6000803e3d6000fd5b505050506040513d601f19601f82011682018060405250611a2e919081019061340e565b611a4a5760405162461bcd60e51b8152600401610a22906138dd565b5050505050565b6001546001600160a01b0316331480611a7457506004546001600160a01b031633145b80611a8957506002546001600160a01b031633145b80611aa257503360009081526007602052604090205415155b611abe5760405162461bcd60e51b8152600401610a2290613abe565b60008181526012602052604090205460ff1615611aed5760405162461bcd60e51b8152600401610a2290613f61565b60009081526013602090815260408083203384529091529020805460ff19166001179055565b6003546001600160a01b03163314611b3d5760405162461bcd60e51b8152600401610a2290613718565b6002600d5460ff166003811115611b5057fe5b1415611b6e5760405162461bcd60e51b8152600401610a2290613914565b80156114b4576114b4613197565b6003546001600160a01b031681565b600c8181548110611b9857fe5b6000918252602090912001546001600160a01b0316905081565b6003600d5460ff166003811115611bc557fe5b1415611c24576001546001600160a01b0316331480611bee57506004546001600160a01b031633145b80611c0357506002546001600160a01b031633145b611c1f5760405162461bcd60e51b8152600401610a2290613de7565b611ca5565b6002600d5460ff166003811115611c3757fe5b14611c7b576001546001600160a01b0316331480611c5f57506004546001600160a01b031633145b611c1f5760405162461bcd60e51b8152600401610a2290613af5565b6002546001600160a01b03163314611ca55760405162461bcd60e51b8152600401610a2290613f04565b6001600160a01b038116611ccb5760405162461bcd60e51b8152600401610a22906140b3565b6040516001600160a01b038216907f4b2fda650ccc24e0402aed618ae44d4600945a05d5801363ff07928e94a3841790600090a2600c80546001810182556000919091527fdf6966c971051c3d54ec59162606531493a51404a002842f56009d7e5cf4a8c70180546001600160a01b0319166001600160a01b0392909216919091179055565b6001546001600160a01b031681565b6001546001600160a01b0316331480611d8357506004546001600160a01b031633145b611d9f5760405162461bcd60e51b8152600401610a2290613838565b6002600d5460ff166003811115611db257fe5b1415611dd05760405162461bcd60e51b8152600401610a2290613914565b6004546001600160a01b031615611df95760405162461bcd60e51b8152600401610a2290613e52565b610a333361257a565b6003600d5460ff166003811115611e1557fe5b1415611e74576001546001600160a01b0316331480611e3e57506004546001600160a01b031633145b80611e5357506002546001600160a01b031633145b611e6f5760405162461bcd60e51b8152600401610a2290613de7565b611ef5565b6002600d5460ff166003811115611e8757fe5b14611ecb576001546001600160a01b0316331480611eaf57506004546001600160a01b031633145b611e6f5760405162461bcd60e51b8152600401610a2290613af5565b6002546001600160a01b03163314611ef55760405162461bcd60e51b8152600401610a2290613f04565b6001600160a01b038216611f1b5760405162461bcd60e51b8152600401610a2290613f98565b6001600160a01b03821660009081526007602052604090205415611f515760405162461bcd60e51b8152600401610a2290613982565b600580546001810182557f036b6384b5eca791c62761152d0c79bb0604c104a5fb6f4eb0703f3154bb3db00180546001600160a01b0319166001600160a01b038516908117909155905460009182526007602090815260408084208390556006909152909120829055600a54611fc79083612b9d565b600a5560405182906001600160a01b038516907f7767ff1f8834c1c59e68c9df939beb0c0f5b888ea4ac3cf352f242b53ea5cf8590600090a3505050565b6001546001600160a01b031633148061202857506004546001600160a01b031633145b8061203d57506002546001600160a01b031633145b6120595760405162461bcd60e51b8152600401610a2290613d1c565b6001600160a01b03811661207f5760405162461bcd60e51b8152600401610a22906137bc565b6002546040516001600160a01b038084169216907f54a57d849b9d8af1a8883dad9184e599aa67ef60814f6c91db7f864abd4325fc90600090a3600280546001600160a01b0319166001600160a01b0392909216919091179055565b6000546001600160a01b031681565b6003600d5460ff1660038111156120fd57fe5b141561215c576001546001600160a01b031633148061212657506004546001600160a01b031633145b8061213b57506002546001600160a01b031633145b6121575760405162461bcd60e51b8152600401610a2290613de7565b6121dd565b6002600d5460ff16600381111561216f57fe5b146121b3576001546001600160a01b031633148061219757506004546001600160a01b031633145b6121575760405162461bcd60e51b8152600401610a2290613af5565b6002546001600160a01b031633146121dd5760405162461bcd60e51b8152600401610a2290613f04565b6001600160a01b0381166122035760405162461bcd60e51b8152600401610a22906140b3565b6040516000906001600160a01b038316907fcd537cd377c78753c3dfd24e9b414be383cf1a4089576d0cb19daad2f61298ab908390a260005b600c5481101561228857826001600160a01b0316600c828154811061225d57fe5b6000918252602090912001546001600160a01b0316141561228057809150612288565b60010161223c565b600c54600019018210156122fd57600c805460001981019081106122a857fe5b600091825260209091200154600c80546001600160a01b0390921691839081106122ce57fe5b9060005260206000200160006101000a8154816001600160a01b0302191690836001600160a01b031602179055505b600c80548061230857fe5b600082815260209020810160001990810180546001600160a01b0319169055019055505050565b606060005b6005548110156123db5760405180604001604052806005838154811061235657fe5b9060005260206000200160009054906101000a90046001600160a01b03166001600160a01b03168152602001600660006005858154811061239357fe5b60009182526020808320909101546001600160a01b03168352820192909252604001902054905282518390839081106123c857fe5b6020908102919091010152600101612334565b5090565b6004546001600160a01b031681565b805160208201205b919050565b6001600160a01b03808316600090815260086020908152604080832093851683529290529081205460ff161561243357506000612554565b6001600160a01b0382166000908152600960205260408120541561247057506001600160a01b038216600090815260096020526040902054612504565b6001600160a01b038316612485575047612504565b6040516370a0823160e01b81526001600160a01b038416906370a08231906124b1903090600401613587565b60206040518083038186803b1580156124c957600080fd5b505afa1580156124dd573d6000803e3d6000fd5b505050506040513d601f19601f820116820180604052506125019190810190613501565b90505b6000612535612517600b54600a5461320a565b6001600160a01b038716600090815260066020526040902054613244565b9050600061254e612548600b548561320a565b83613244565b93505050505b92915050565b601360209081526000928352604080842090915290825290205460ff1681565b6001546001600160a01b031633148061259d57506004546001600160a01b031633145b6125b95760405162461bcd60e51b8152600401610a2290613838565b6002600d5460ff1660038111156125cc57fe5b14156125ea5760405162461bcd60e51b8152600401610a2290613914565b6004546040516001600160a01b038084169216907fbb9deb87cce5d5b85aa80a787387570b6fbe0fe85ae6d74c4f1058a3fca2593490600090a3600480546001600160a01b0319166001600160a01b0392909216919091179055565b6002546001600160a01b031681565b6001546001600160a01b031633148061267857506004546001600160a01b031633145b6126945760405162461bcd60e51b8152600401610a2290613838565b6002600d5460ff1660038111156126a757fe5b14156126c55760405162461bcd60e51b8152600401610a2290613914565b806126e25760405162461bcd60e51b8152600401610a2290614014565b60405181907f3812589784e3d6e74104ce2a0b88aa24fa72afeb2656fd0a424599cf6778913290600090a2601555565b60165481565b60105460009060ff168015612752575060008281526013602090815260408083206002546001600160a01b0316845290915290205460ff16155b1561275f575060006123f6565b6000601154118015612772575060055415155b156127f8576000805b6005548110156127f557600084815260136020526040812060058054919291849081106127a457fe5b60009182526020808320909101546001600160a01b0316835282019290925260400190205460ff16156127d8576001909101905b6011548214156127ed576001925050506123f6565b60010161277b565b50505b506000919050565b60076020526000908152604090205481565b60066020526000908152604090205481565b60126020526000908152604090205460ff1681565b6001546001600160a01b031633148061285c57506004546001600160a01b031633145b6128785760405162461bcd60e51b8152600401610a2290613838565b6002600d5460ff16600381111561288b57fe5b14156128a95760405162461bcd60e51b8152600401610a2290613914565b604051811515907fa6177e65b60a1a386d63cbd2bae0a7115628f20d32eb30f3630225852663f79b90600090a26014805460ff1916821515908117909155600114156114b4574260165550565b60096020526000908152604090205481565b60155481565b60058181548110611b9857fe5b6001546001600160a01b031633148061293e57506004546001600160a01b031633145b61295a5760405162461bcd60e51b8152600401610a2290613838565b6002600d5460ff16600381111561296d57fe5b141561298b5760405162461bcd60e51b8152600401610a2290613914565b6001600160a01b0381166129b15760405162461bcd60e51b8152600401610a2290613ce5565b6001546040516001600160a01b038084169216907f8be0079c531659141344cd1fd0a4f28419497f9722a3daafe3b4186f6b6457e090600090a3600180546001600160a01b0319166001600160a01b0392909216919091179055565b6002600d5460ff166003811115612a2057fe5b1480612a3c57506003600d5460ff166003811115612a3a57fe5b145b612a585760405162461bcd60e51b8152600401610a2290613e89565b33600090815260076020526040902054612a845760405162461bcd60e51b8152600401610a2290613c9f565b612a8d81612bc2565b6114b433826000612ca5565b600e5481565b6002600d5460ff166003811115612ab257fe5b1415612ad05760405162461bcd60e51b8152600401610a2290613914565b60145460ff16612af25760405162461bcd60e51b8152600401610a2290613b52565b426015546016540110612b175760405162461bcd60e51b8152600401610a2290613b87565b6040517f69538834bdfc6e89fdf5c1b9da2c173030b723496047ff722092ff1965e5333090600090a1600d80546002919060ff1916600183610d51565b6000612b9683836040518060400160405280601e81526020017f536166654d6174683a207375627472616374696f6e206f766572666c6f770000815250613286565b9392505050565b600082820183811015612b965760405162461bcd60e51b8152600401610a22906138a6565b6001600160a01b0381166000908152600960205260409020546114b4576001600160a01b038116612c0d576001600160a01b03811660009081526009602052604090204790556114b4565b6040516370a0823160e01b81526001600160a01b038216906370a0823190612c39903090600401613587565b60206040518083038186803b158015612c5157600080fd5b505afa158015612c65573d6000803e3d6000fd5b505050506040513d601f19601f82011682018060405250612c899190810190613501565b6001600160a01b03821660009081526009602052604090205550565b6001600160a01b0380841660009081526008602090815260408083209386168352929052205460ff16613116576000612d03612ce5600b54600a5461320a565b6001600160a01b038616600090815260066020526040902054613244565b600b546001600160a01b03851660009081526009602052604081205492935091612d30916125489161320a565b6001600160a01b038087166000908152600860209081526040808320938916808452939091529020805460ff19166001179055909150612db0576040516001600160a01b0386169082156108fc029083906000818181858888f19350505050612dab5760405162461bcd60e51b8152600401610a229061394b565b6130d2565b836001600160a01b0316836001600160a01b031614613050576001600160a01b038316612def5773eeeeeeeeeeeeeeeeeeeeeeeeeeeeeeeeeeeeeeee92505b6000805460405163095ea7b360e01b81526001600160a01b038088169363095ea7b393612e219392169160040161359b565b602060405180830381600087803b158015612e3b57600080fd5b505af1158015612e4f573d6000803e3d6000fd5b505050506040513d601f19601f82011682018060405250612e73919081019061340e565b5060005460405163095ea7b360e01b81526001600160a01b038681169263095ea7b392612eaa92909116906000199060040161359b565b602060405180830381600087803b158015612ec457600080fd5b505af1158015612ed8573d6000803e3d6000fd5b505050506040513d601f19601f82011682018060405250612efc919081019061340e565b506000805460405163809a9e5560e01b815282916001600160a01b03169063809a9e5590612f32908990899088906004016135d7565b604080518083038186803b158015612f4957600080fd5b505afa158015612f5d573d6000803e3d6000fd5b505050506040513d601f19601f82011682018060405250612f819190810190613519565b506000546040516329589f6160e01b81529193506001600160a01b0316906329589f6190612fd590899087908a908d90600019908a9073dac3794d1644d7ce73d098c19f33e7e10271b2bc90600401613637565b602060405180830381600087803b158015612fef57600080fd5b505af1158015613003573d6000803e3d6000fd5b505050506040513d601f19601f820116820180604052506130279190810190613501565b9050600081116130495760405162461bcd60e51b8152600401610a22906137f3565b50506130d2565b60405163a9059cbb60e01b81526001600160a01b0385169063a9059cbb9061307e908890859060040161359b565b602060405180830381600087803b15801561309857600080fd5b505af11580156130ac573d6000803e3d6000fd5b505050506040513d601f19601f820116820180604052506130d0919081019061340e565b505b80846001600160a01b0316866001600160a01b03167f01ff03b05140099a458b5372024e7c7da7a44ff7c68f517ad2d06ca51e7a145460405160405180910390a450505b505050565b6002600d5460ff16600381111561312e57fe5b141561314c5760405162461bcd60e51b8152600401610a2290613914565b60405133907f1e017f7894d034b2556b10221489318bb9b022b6773b31f3129e68a8d3b0283c90600090a2600d805460ff191690556000600e5560145460ff1615610a335742601655565b6002600d5460ff1660038111156131aa57fe5b14156131c85760405162461bcd60e51b8152600401610a2290613914565b60405133907fb886e2861b8f38932aec2b0f4cb8456b47c847cd4c682287b5c548db3a74b04f90600090a2600d805460ff19166001179055600f544201600e55565b60008261321957506000612554565b8282028284828161322657fe5b0414612b965760405162461bcd60e51b8152600401610a2290613da6565b6000612b9683836040518060400160405280601a81526020017f536166654d6174683a206469766973696f6e206279207a65726f0000000000008152506132b2565b600081848411156132aa5760405162461bcd60e51b8152600401610a229190613705565b505050900390565b600081836132d35760405162461bcd60e51b8152600401610a229190613705565b5060008385816132df57fe5b0495945050505050565b6000602082840312156132fa578081fd5b8135612b96816140f6565b600080600060608486031215613319578182fd5b8335613324816140f6565b92506020840135613334816140f6565b929592945050506040919091013590565b60008060408385031215613357578182fd5b8235613362816140f6565b946020939093013593505050565b60008060408385031215613382578182fd5b823561338d816140f6565b9150602083013561339d816140f6565b809150509250929050565b6000806000606084860312156133bc578283fd5b83356133c7816140f6565b925060208401356133d7816140f6565b915060408401356133e7816140f6565b809150509250925092565b600060208284031215613403578081fd5b8135612b968161410b565b60006020828403121561341f578081fd5b8151612b968161410b565b60006020828403121561343b578081fd5b5035919050565b60008060408385031215613454578182fd5b82359150602083013561339d816140f6565b600060208284031215613477578081fd5b813567ffffffffffffffff8082111561348e578283fd5b81840185601f82011261349f578384fd5b80359250818311156134af578384fd5b604051601f8401601f1916810160200183811182821017156134cf578586fd5b6040528381528184016020018710156134e6578485fd5b6134f78460208301602085016140ea565b9695505050505050565b600060208284031215613512578081fd5b5051919050565b6000806040838503121561352b578182fd5b505080516020909101519092909150565b60008151808452815b8181101561356157602081850181015186830182015201613545565b818111156135725782602083870101525b50601f01601f19169290920160200192915050565b6001600160a01b0391909116815260200190565b6001600160a01b03929092168252602082015260400190565b6001600160a01b0393841681529183166020830152909116604082015260600190565b6001600160a01b039384168152919092166020820152604081019190915260600190565b60006001600160a01b038616825284602083015260806040830152613623608083018561353c565b905060ff8316606083015295945050505050565b6001600160a01b039788168152602081019690965293861660408601529185166060850152608084015260a083015290911660c082015261010060e082018190526000908201526101200190565b6020808252825182820181905260009190848201906040850190845b818110156136d157835180516001600160a01b0316845285015185840152928401926040909201916001016136a1565b50909695505050505050565b901515815260200190565b90815260200190565b60208101600483106136ff57fe5b91905290565b600060208252612b96602083018461353c565b60208082526018908201527f43616c6c6572206973206e6f7420746865206f7261636c650000000000000000604082015260600190565b60208082526047908201527f43616c6c6572206973206e6f74207468652062656e6566696369617279206f7260408201527f20746865206f776e657220616e6420746865206f776e6572206973207374696c6060820152666c20616c69766560c81b608082015260a00190565b60208082526017908201527f4e6577206578656375746f72206973206d697373696e67000000000000000000604082015260600190565b60208082526025908201527f4661696c656420746f20636f6e7665727420746f6b656e207468726f7567682060408201526425bcb132b960d91b606082015260800190565b60208082526017908201527f43616c6c6572206973206e6f7420746865206f776e6572000000000000000000604082015260600190565b60208082526015908201527f4e6577206f7261636c65206973206d697373696e670000000000000000000000604082015260600190565b6020808252601b908201527f536166654d6174683a206164646974696f6e206f766572666c6f770000000000604082015260600190565b6020808252601a908201527f436f756c64206e6f742065786563757465207265636f76657279000000000000604082015260600190565b60208082526018908201527f4f776e6572206973206e6f206c6f6e67657220616c6976650000000000000000604082015260600190565b60208082526015908201527f50726f626c656d2073656e64696e672073686172650000000000000000000000604082015260600190565b6020808252602f908201527f4e6577206164647265737320697320616c72656164792061207265676973746560408201526e7265642062656e656669636961727960881b606082015260800190565b6020808252601a908201527f43616c6c6572206973206e6f7420746865206578656375746f72000000000000604082015260600190565b6020808252604e908201527f43616c6c6572206973206e6f74207468652062656e6566696369617279206f7260408201527f20746865206578656375746f7220616e6420746865206f776e6572206973206e60608201526d6f206c6f6e67657220616c69766560901b608082015260a00190565b60208082526022908201527f4e65772062656e65666963696172792061646472657373206973206d697373696040820152616e6760f01b606082015260800190565b60208082526016908201527f43616c6c6572206973206e6f742061206d656d62657200000000000000000000604082015260600190565b60208082526034908201527f43616c6c6572206973206e6f7420746865206f776e657220616e64207468652060408201527f6f776e6572206973207374696c6c20616c697665000000000000000000000000606082015260800190565b6020808252818101527f44656164204d616e277320537769746368206973206e6f7420656e61626c6564604082015260600190565b6020808252602a908201527f4f776e65722068617320636865636b65642d696e20617320616c69766520746f6040820152696f20726563656e746c7960b01b606082015260800190565b60208082526053908201527f43616c6c6572206973206e6f74207468652062656e65666963696172792c206f60408201527f776e65722c206f72206578656375746f7220616e6420746865206f776e65722060608201527f69732073696d756c6174696e6720646561746800000000000000000000000000608082015260a00190565b6020808252602b908201527f4f6c642061646472657373206973206e6f74206120726567697374657265642060408201526a62656e656669636961727960a81b606082015260800190565b60208082526026908201527f43616c6c6572206973206e6f74206120726567697374657265642062656e656660408201526569636961727960d01b606082015260800190565b60208082526014908201527f4e6577206f776e6572206973206d697373696e67000000000000000000000000604082015260600190565b60208082526023908201527f43616c6c6572206973206e6f7420746865206f776e6572206f722065786563756040820152623a37b960e91b606082015260800190565b60208082526027908201527f41646472657373206973206e6f74206120726567697374657265642062656e656040820152666669636961727960c81b606082015260800190565b60208082526021908201527f536166654d6174683a206d756c7469706c69636174696f6e206f766572666c6f6040820152607760f81b606082015260800190565b60208082526045908201527f43616c6c6572206973206e6f7420746865206f776e6572206f7220657865637560408201527f746f7220616e6420746865206f776e65722069732073696d756c6174696e67206060820152640c8cac2e8d60db1b608082015260a00190565b6020808252601f908201527f476e6f736973536166652068617320616c7265616479206265656e2073657400604082015260600190565b60208082526024908201527f4f776e657220686173206e6f74206265656e20636f6e6669726d6564206173206040820152631919585960e21b606082015260800190565b6020808252601e908201527f42656e65666963696172792061646472657373206973206d697373696e670000604082015260600190565b6020808252603b908201527f43616c6c6572206973206e6f7420746865206578656375746f7220616e64207460408201527f6865206f776e6572206973206e6f206c6f6e67657220616c6976650000000000606082015260800190565b60208082526019908201527f5265636f7665727920616c726561647920657865637574656400000000000000604082015260600190565b6020808252601a908201527f4e65772062656e6566696369617279206973206d697373696e67000000000000604082015260600190565b60208082526025908201527f5265636f7665727920686173206e6f7420656e6f75676820636f6e6669726d6160408201526474696f6e7360d81b606082015260800190565b6020808252603c908201527f44656164204d616e27732053776974636820636865636b2d696e207365636f6e60408201527f6473206d7573742062652067726561746572207468616e207a65726f00000000606082015260800190565b60208082526022908201527f4f6c642062656e65666963696172792061646472657373206973206d697373696040820152616e6760f01b606082015260800190565b60208082526018908201527f546f6b656e2061646472657373206973206d697373696e670000000000000000604082015260600190565b82818337506000910152565b6001600160a01b03811681146114b457600080fd5b80151581146114b457600080fdfea26469706673582212202bfd4d1c2be53a19e95862714913c5443ab898052f32b8da336dae99413fda6464736f6c63430006010033a26469706673582212204d3b48f5e85a288debb1630fb2e4632eef39e6d66523468ead85052d595f412a64736f6c63430006010033",
  "source": "pragma solidity ^0.6.0;\r\n\r\n// Alfred.Estate - Proof of Death - Digital Inheritance Automation\r\n\r\nimport \"./AlfredEstate.sol\";\r\n\r\n//contract BringOutYourDeadFactory {\r\ncontract AlfredEstateFactory {\r\n    event estateCreated(address indexed estate, address indexed owner);\r\n\r\n    // Use CREATE2 to create estate at predeterminable address\r\n    function newEstate(address oracle, address executor, uint256 salt) public payable returns (address payable estate) {\r\n        bytes memory code = type(AlfredEstate).creationCode;\r\n        bytes32 newsalt = keccak256(abi.encodePacked(salt, msg.sender));\r\n        // address salt = msg.sender;\r\n        assembly {\r\n            estate := create2(0, add(code, 0x20), mload(code), newsalt)\r\n            if iszero(extcodesize(estate)) { revert(0, 0) }\r\n        }\r\n        if(address(0) != oracle) {\r\n            AlfredEstate(estate).changeOracle(oracle);\r\n        }\r\n        if(address(0) != executor) {\r\n            AlfredEstate(estate).changeExecutor(executor);\r\n        }\r\n        AlfredEstate(estate).transferOwnership(msg.sender);\r\n        emit estateCreated(address(estate), msg.sender);\r\n    }\r\n\r\n    /*\r\n    // Use CREATE2 to create estate at predeterminable address\r\n    function newEstate(uint256 salt) public payable returns (address payable estate) {\r\n        bytes memory code = type(AlfredEstate).creationCode;\r\n        bytes32 newsalt = keccak256(abi.encodePacked(salt, msg.sender));\r\n        // address salt = msg.sender;\r\n        assembly {\r\n            estate := create2(0, add(code, 0x20), mload(code), newsalt)\r\n            if iszero(extcodesize(estate)) { revert(0, 0) }\r\n        }\r\n        AlfredEstate(estate).transferOwnership(msg.sender);\r\n        emit estateCreated(address(estate), msg.sender);\r\n    }\r\n    */\r\n\r\n    function getEstateAddress(address creator, uint256 salt) public view returns (address estate) {\r\n        bytes memory code = type(AlfredEstate).creationCode;\r\n        bytes32 newsalt = keccak256(abi.encodePacked(salt, creator));\r\n        bytes memory packed_bytecode = abi.encodePacked(code);\r\n        bytes32 temp = keccak256(abi.encodePacked(bytes1(0xff), address(this), bytes32(newsalt), bytes32(keccak256(packed_bytecode))));\r\n        uint mask = 2 ** 160 - 1;\r\n        assembly {\r\n            estate := and(temp, mask)\r\n        }\r\n        return estate;\r\n\r\n    }\r\n\r\n    // Old approach, using original CREATE rather than CREATE2\r\n/*\r\n    function newEstate(address oracle, address executor) public payable returns (address estateContract) {\r\n        AlfredEstate boyd = new AlfredEstate();\r\n        if(address(0) != oracle) {\r\n            boyd.changeOracle(oracle);\r\n        }\r\n        if(address(0) != executor) {\r\n            boyd.changeExecutor(executor);\r\n        }\r\n        boyd.transferOwnership(msg.sender);\r\n        emit estateCreated(address(boyd), msg.sender);\r\n        return address(boyd);\r\n    }\r\n*/\r\n\r\n}\r\n",
  "sourcePath": "C:/Users/morgan/PycharmProjects/alfred-estate-contracts/contracts/AlfredEstateFactory.sol",
  "compiler": {
    "name": "solc",
    "version": "0.6.1+commit.e6f7d5a4.Emscripten.clang"
  },
  "schemaVersion": "3.2.3",
  "updatedAt": "2020-08-01T23:04:59.374Z",
  "networkType": "ethereum",
  "devdoc": {
    "methods": {}
  },
  "userdoc": {
    "methods": {}
  }
}