{
  "contractName": "AlfredEstate",
  "abi": [
    {
      "inputs": [],
      "stateMutability": "nonpayable",
      "type": "constructor"
    },
    {
      "anonymous": false,
      "inputs": [
        {
          "indexed": true,
          "internalType": "address",
          "name": "newBeneficiary",
          "type": "address"
        },
        {
          "indexed": true,
          "internalType": "uint256",
          "name": "shares",
          "type": "uint256"
        }
      ],
      "name": "AddedBeneficiary",
      "type": "event"
    },
    {
      "anonymous": false,
      "inputs": [
        {
          "indexed": true,
          "internalType": "uint256",
          "name": "newValue",
          "type": "uint256"
        }
      ],
      "name": "BeneficiariesRequiredForSafeRecoveryChanged",
      "type": "event"
    },
    {
      "anonymous": false,
      "inputs": [
        {
          "indexed": true,
          "internalType": "address",
          "name": "beneficiary",
          "type": "address"
        },
        {
          "indexed": true,
          "internalType": "address",
          "name": "token",
          "type": "address"
        },
        {
          "indexed": true,
          "internalType": "uint256",
          "name": "amount",
          "type": "uint256"
        }
      ],
      "name": "BeneficiaryWithdrawal",
      "type": "event"
    },
    {
      "anonymous": false,
      "inputs": [
        {
          "indexed": true,
          "internalType": "address",
          "name": "oldAddress",
          "type": "address"
        },
        {
          "indexed": true,
          "internalType": "address",
          "name": "newAddress",
          "type": "address"
        }
      ],
      "name": "ChangedBeneficiaryAddress",
      "type": "event"
    },
    {
      "anonymous": false,
      "inputs": [
        {
          "indexed": true,
          "internalType": "address",
          "name": "beneficiary",
          "type": "address"
        },
        {
          "indexed": true,
          "internalType": "uint256",
          "name": "oldShares",
          "type": "uint256"
        },
        {
          "indexed": true,
          "internalType": "uint256",
          "name": "newShares",
          "type": "uint256"
        }
      ],
      "name": "ChangedBeneficiaryShares",
      "type": "event"
    },
    {
      "anonymous": false,
      "inputs": [],
      "name": "ConfirmationOfDeath",
      "type": "event"
    },
    {
      "anonymous": false,
      "inputs": [
        {
          "indexed": true,
          "internalType": "address",
          "name": "reporter",
          "type": "address"
        }
      ],
      "name": "ConfirmationOfLife",
      "type": "event"
    },
    {
      "anonymous": false,
      "inputs": [
        {
          "indexed": true,
          "internalType": "uint256",
          "name": "newValue",
          "type": "uint256"
        }
      ],
      "name": "DeadMansSwitchCheckinSecondsChanged",
      "type": "event"
    },
    {
      "anonymous": false,
      "inputs": [
        {
          "indexed": true,
          "internalType": "address",
          "name": "oldExecutor",
          "type": "address"
        },
        {
          "indexed": true,
          "internalType": "address",
          "name": "newExecutor",
          "type": "address"
        }
      ],
      "name": "ExecutorChanged",
      "type": "event"
    },
    {
      "anonymous": false,
      "inputs": [
        {
          "indexed": true,
          "internalType": "address",
          "name": "gnosisSafe",
          "type": "address"
        },
        {
          "indexed": true,
          "internalType": "address",
          "name": "newSafe",
          "type": "address"
        }
      ],
      "name": "GnosisSafeChanged",
      "type": "event"
    },
    {
      "anonymous": false,
      "inputs": [
        {
          "indexed": true,
          "internalType": "bool",
          "name": "newValue",
          "type": "bool"
        }
      ],
      "name": "IsDeadMansSwitchEnabledChanged",
      "type": "event"
    },
    {
      "anonymous": false,
      "inputs": [
        {
          "indexed": true,
          "internalType": "bool",
          "name": "newValue",
          "type": "bool"
        }
      ],
      "name": "IsExecutorRequiredForSafeRecoveryChanged",
      "type": "event"
    },
    {
      "anonymous": false,
      "inputs": [
        {
          "indexed": true,
          "internalType": "address",
          "name": "oldOracle",
          "type": "address"
        },
        {
          "indexed": true,
          "internalType": "address",
          "name": "newOracle",
          "type": "address"
        }
      ],
      "name": "OracleChanged",
      "type": "event"
    },
    {
      "anonymous": false,
      "inputs": [
        {
          "indexed": true,
          "internalType": "address",
          "name": "previousOwner",
          "type": "address"
        },
        {
          "indexed": true,
          "internalType": "address",
          "name": "newOwner",
          "type": "address"
        }
      ],
      "name": "OwnershipTransferred",
      "type": "event"
    },
    {
      "anonymous": false,
      "inputs": [
        {
          "indexed": true,
          "internalType": "address",
          "name": "formerBeneficiary",
          "type": "address"
        },
        {
          "indexed": true,
          "internalType": "uint256",
          "name": "removedShares",
          "type": "uint256"
        }
      ],
      "name": "RemovedBeneficiary",
      "type": "event"
    },
    {
      "anonymous": false,
      "inputs": [
        {
          "indexed": true,
          "internalType": "address",
          "name": "reporter",
          "type": "address"
        }
      ],
      "name": "ReportOfDeath",
      "type": "event"
    },
    {
      "anonymous": false,
      "inputs": [],
      "name": "SimulatingDeath",
      "type": "event"
    },
    {
      "anonymous": false,
      "inputs": [
        {
          "indexed": true,
          "internalType": "address",
          "name": "token",
          "type": "address"
        }
      ],
      "name": "TrackedTokenAdded",
      "type": "event"
    },
    {
      "anonymous": false,
      "inputs": [
        {
          "indexed": true,
          "internalType": "address",
          "name": "token",
          "type": "address"
        }
      ],
      "name": "TrackedTokenRemoved",
      "type": "event"
    },
    {
      "inputs": [],
      "name": "KYBER_NETWORK_PROXY_ADDRESS",
      "outputs": [
        {
          "internalType": "address",
          "name": "",
          "type": "address"
        }
      ],
      "stateMutability": "view",
      "type": "function"
    },
    {
      "inputs": [
        {
          "internalType": "uint256",
          "name": "",
          "type": "uint256"
        }
      ],
      "name": "beneficiaries",
      "outputs": [
        {
          "internalType": "address",
          "name": "",
          "type": "address"
        }
      ],
      "stateMutability": "view",
      "type": "function"
    },
    {
      "inputs": [],
      "name": "beneficiariesRequiredForSafeRecovery",
      "outputs": [
        {
          "internalType": "uint256",
          "name": "",
          "type": "uint256"
        }
      ],
      "stateMutability": "view",
      "type": "function"
    },
    {
      "inputs": [
        {
          "internalType": "address",
          "name": "",
          "type": "address"
        }
      ],
      "name": "beneficiaryIndex",
      "outputs": [
        {
          "internalType": "uint256",
          "name": "",
          "type": "uint256"
        }
      ],
      "stateMutability": "view",
      "type": "function"
    },
    {
      "inputs": [
        {
          "internalType": "address",
          "name": "",
          "type": "address"
        }
      ],
      "name": "beneficiaryShares",
      "outputs": [
        {
          "internalType": "uint256",
          "name": "",
          "type": "uint256"
        }
      ],
      "stateMutability": "view",
      "type": "function"
    },
    {
      "inputs": [],
      "name": "deadMansSwitchCheckinSeconds",
      "outputs": [
        {
          "internalType": "uint256",
          "name": "",
          "type": "uint256"
        }
      ],
      "stateMutability": "view",
      "type": "function"
    },
    {
      "inputs": [],
      "name": "deadMansSwitchLastCheckin",
      "outputs": [
        {
          "internalType": "uint256",
          "name": "",
          "type": "uint256"
        }
      ],
      "stateMutability": "view",
      "type": "function"
    },
    {
      "inputs": [],
      "name": "declareDeadAfter",
      "outputs": [
        {
          "internalType": "uint256",
          "name": "",
          "type": "uint256"
        }
      ],
      "stateMutability": "view",
      "type": "function"
    },
    {
      "inputs": [],
      "name": "executor",
      "outputs": [
        {
          "internalType": "address",
          "name": "",
          "type": "address"
        }
      ],
      "stateMutability": "view",
      "type": "function"
    },
    {
      "inputs": [],
      "name": "gnosisSafe",
      "outputs": [
        {
          "internalType": "address",
          "name": "",
          "type": "address"
        }
      ],
      "stateMutability": "view",
      "type": "function"
    },
    {
      "inputs": [
        {
          "internalType": "address",
          "name": "",
          "type": "address"
        },
        {
          "internalType": "address",
          "name": "",
          "type": "address"
        }
      ],
      "name": "isBeneficiaryTokenWithdrawn",
      "outputs": [
        {
          "internalType": "bool",
          "name": "",
          "type": "bool"
        }
      ],
      "stateMutability": "view",
      "type": "function"
    },
    {
      "inputs": [
        {
          "internalType": "bytes32",
          "name": "",
          "type": "bytes32"
        },
        {
          "internalType": "address",
          "name": "",
          "type": "address"
        }
      ],
      "name": "isConfirmed",
      "outputs": [
        {
          "internalType": "bool",
          "name": "",
          "type": "bool"
        }
      ],
      "stateMutability": "view",
      "type": "function"
    },
    {
      "inputs": [],
      "name": "isDeadMansSwitchEnabled",
      "outputs": [
        {
          "internalType": "bool",
          "name": "",
          "type": "bool"
        }
      ],
      "stateMutability": "view",
      "type": "function"
    },
    {
      "inputs": [
        {
          "internalType": "bytes32",
          "name": "",
          "type": "bytes32"
        }
      ],
      "name": "isExecuted",
      "outputs": [
        {
          "internalType": "bool",
          "name": "",
          "type": "bool"
        }
      ],
      "stateMutability": "view",
      "type": "function"
    },
    {
      "inputs": [],
      "name": "isExecutorRequiredForSafeRecovery",
      "outputs": [
        {
          "internalType": "bool",
          "name": "",
          "type": "bool"
        }
      ],
      "stateMutability": "view",
      "type": "function"
    },
    {
      "inputs": [],
      "name": "liveliness",
      "outputs": [
        {
          "internalType": "enum AlfredEstate.Lifesigns",
          "name": "",
          "type": "uint8"
        }
      ],
      "stateMutability": "view",
      "type": "function"
    },
    {
      "inputs": [],
      "name": "oracle",
      "outputs": [
        {
          "internalType": "address",
          "name": "",
          "type": "address"
        }
      ],
      "stateMutability": "view",
      "type": "function"
    },
    {
      "inputs": [],
      "name": "owner",
      "outputs": [
        {
          "internalType": "address",
          "name": "",
          "type": "address"
        }
      ],
      "stateMutability": "view",
      "type": "function"
    },
    {
      "inputs": [],
      "name": "totalShares",
      "outputs": [
        {
          "internalType": "uint256",
          "name": "",
          "type": "uint256"
        }
      ],
      "stateMutability": "view",
      "type": "function"
    },
    {
      "inputs": [
        {
          "internalType": "address",
          "name": "",
          "type": "address"
        }
      ],
      "name": "totalTokensKnown",
      "outputs": [
        {
          "internalType": "uint256",
          "name": "",
          "type": "uint256"
        }
      ],
      "stateMutability": "view",
      "type": "function"
    },
    {
      "inputs": [
        {
          "internalType": "uint256",
          "name": "",
          "type": "uint256"
        }
      ],
      "name": "trackedTokens",
      "outputs": [
        {
          "internalType": "address",
          "name": "",
          "type": "address"
        }
      ],
      "stateMutability": "view",
      "type": "function"
    },
    {
      "inputs": [],
      "name": "uncertaintyPeriod",
      "outputs": [
        {
          "internalType": "uint256",
          "name": "",
          "type": "uint256"
        }
      ],
      "stateMutability": "view",
      "type": "function"
    },
    {
      "stateMutability": "payable",
      "type": "receive"
    },
    {
      "inputs": [
        {
          "internalType": "bytes32",
          "name": "dataHash",
          "type": "bytes32"
        }
      ],
      "name": "confirmTransaction",
      "outputs": [],
      "stateMutability": "nonpayable",
      "type": "function"
    },
    {
      "inputs": [
        {
          "internalType": "address",
          "name": "prevOwner",
          "type": "address"
        },
        {
          "internalType": "address",
          "name": "oldOwner",
          "type": "address"
        },
        {
          "internalType": "address",
          "name": "newOwner",
          "type": "address"
        }
      ],
      "name": "recoverAccess",
      "outputs": [],
      "stateMutability": "nonpayable",
      "type": "function"
    },
    {
      "inputs": [
        {
          "internalType": "bytes32",
          "name": "dataHash",
          "type": "bytes32"
        }
      ],
      "name": "isConfirmedByRequiredParties",
      "outputs": [
        {
          "internalType": "bool",
          "name": "",
          "type": "bool"
        }
      ],
      "stateMutability": "view",
      "type": "function"
    },
    {
      "inputs": [
        {
          "internalType": "bytes",
          "name": "data",
          "type": "bytes"
        }
      ],
      "name": "getDataHash",
      "outputs": [
        {
          "internalType": "bytes32",
          "name": "",
          "type": "bytes32"
        }
      ],
      "stateMutability": "pure",
      "type": "function"
    },
    {
      "inputs": [
        {
          "internalType": "address",
          "name": "newSafe",
          "type": "address"
        }
      ],
      "name": "setGnosisSafe",
      "outputs": [],
      "stateMutability": "nonpayable",
      "type": "function"
    },
    {
      "inputs": [
        {
          "internalType": "bool",
          "name": "newValue",
          "type": "bool"
        }
      ],
      "name": "setIsExecutorRequiredForSafeRecovery",
      "outputs": [],
      "stateMutability": "nonpayable",
      "type": "function"
    },
    {
      "inputs": [
        {
          "internalType": "uint256",
          "name": "newValue",
          "type": "uint256"
        }
      ],
      "name": "setBeneficiariesRequiredForSafeRecovery",
      "outputs": [],
      "stateMutability": "nonpayable",
      "type": "function"
    },
    {
      "inputs": [
        {
          "internalType": "bool",
          "name": "newValue",
          "type": "bool"
        }
      ],
      "name": "setIsDeadMansSwitchEnabled",
      "outputs": [],
      "stateMutability": "nonpayable",
      "type": "function"
    },
    {
      "inputs": [
        {
          "internalType": "uint256",
          "name": "newValue",
          "type": "uint256"
        }
      ],
      "name": "setDeadMansSwitchCheckinSeconds",
      "outputs": [],
      "stateMutability": "nonpayable",
      "type": "function"
    },
    {
      "inputs": [
        {
          "internalType": "address",
          "name": "newOwner",
          "type": "address"
        }
      ],
      "name": "transferOwnership",
      "outputs": [],
      "stateMutability": "nonpayable",
      "type": "function"
    },
    {
      "inputs": [
        {
          "internalType": "address",
          "name": "newOracle",
          "type": "address"
        }
      ],
      "name": "changeOracle",
      "outputs": [],
      "stateMutability": "nonpayable",
      "type": "function"
    },
    {
      "inputs": [
        {
          "internalType": "address",
          "name": "newExecutor",
          "type": "address"
        }
      ],
      "name": "changeExecutor",
      "outputs": [],
      "stateMutability": "nonpayable",
      "type": "function"
    },
    {
      "inputs": [],
      "name": "simulateDeath",
      "outputs": [],
      "stateMutability": "nonpayable",
      "type": "function"
    },
    {
      "inputs": [],
      "name": "getBeneficiariesDetails",
      "outputs": [
        {
          "components": [
            {
              "internalType": "address",
              "name": "who",
              "type": "address"
            },
            {
              "internalType": "uint256",
              "name": "shares",
              "type": "uint256"
            }
          ],
          "internalType": "struct AlfredEstate.ShareHolder[]",
          "name": "beneficiaryDetails",
          "type": "tuple[]"
        }
      ],
      "stateMutability": "view",
      "type": "function"
    },
    {
      "inputs": [
        {
          "internalType": "address",
          "name": "beneficiary",
          "type": "address"
        },
        {
          "internalType": "address",
          "name": "token",
          "type": "address"
        }
      ],
      "name": "getBeneficiaryBalance",
      "outputs": [
        {
          "internalType": "uint256",
          "name": "shareBalance",
          "type": "uint256"
        }
      ],
      "stateMutability": "view",
      "type": "function"
    },
    {
      "inputs": [
        {
          "internalType": "address",
          "name": "newBeneficiary",
          "type": "address"
        },
        {
          "internalType": "uint256",
          "name": "shares",
          "type": "uint256"
        }
      ],
      "name": "addBeneficiary",
      "outputs": [],
      "stateMutability": "nonpayable",
      "type": "function"
    },
    {
      "inputs": [
        {
          "internalType": "address",
          "name": "beneficiary",
          "type": "address"
        }
      ],
      "name": "removeBeneficiary",
      "outputs": [],
      "stateMutability": "nonpayable",
      "type": "function"
    },
    {
      "inputs": [
        {
          "internalType": "address",
          "name": "beneficiary",
          "type": "address"
        },
        {
          "internalType": "uint256",
          "name": "newShares",
          "type": "uint256"
        }
      ],
      "name": "changeBeneficiaryShares",
      "outputs": [],
      "stateMutability": "nonpayable",
      "type": "function"
    },
    {
      "inputs": [
        {
          "internalType": "address",
          "name": "oldAddress",
          "type": "address"
        },
        {
          "internalType": "address",
          "name": "newAddress",
          "type": "address"
        }
      ],
      "name": "changeBeneficiaryAddress",
      "outputs": [],
      "stateMutability": "nonpayable",
      "type": "function"
    },
    {
      "inputs": [],
      "name": "claimEthShares",
      "outputs": [],
      "stateMutability": "nonpayable",
      "type": "function"
    },
    {
      "inputs": [
        {
          "internalType": "address",
          "name": "token",
          "type": "address"
        }
      ],
      "name": "claimTokenShares",
      "outputs": [],
      "stateMutability": "nonpayable",
      "type": "function"
    },
    {
      "inputs": [
        {
          "internalType": "address",
          "name": "token",
          "type": "address"
        }
      ],
      "name": "claimTokenSharesAsEth",
      "outputs": [],
      "stateMutability": "nonpayable",
      "type": "function"
    },
    {
      "inputs": [],
      "name": "distributeEthShares",
      "outputs": [],
      "stateMutability": "nonpayable",
      "type": "function"
    },
    {
      "inputs": [
        {
          "internalType": "address",
          "name": "token",
          "type": "address"
        }
      ],
      "name": "distributeTokenShares",
      "outputs": [],
      "stateMutability": "nonpayable",
      "type": "function"
    },
    {
      "inputs": [
        {
          "internalType": "address",
          "name": "token",
          "type": "address"
        }
      ],
      "name": "distributeTokenSharesAsEth",
      "outputs": [],
      "stateMutability": "nonpayable",
      "type": "function"
    },
    {
      "inputs": [
        {
          "internalType": "address",
          "name": "token",
          "type": "address"
        }
      ],
      "name": "addTrackedToken",
      "outputs": [],
      "stateMutability": "nonpayable",
      "type": "function"
    },
    {
      "inputs": [
        {
          "internalType": "address",
          "name": "token",
          "type": "address"
        }
      ],
      "name": "removeTrackedToken",
      "outputs": [],
      "stateMutability": "nonpayable",
      "type": "function"
    },
    {
      "inputs": [
        {
          "internalType": "bool",
          "name": "isDead",
          "type": "bool"
        }
      ],
      "name": "oracleCallback",
      "outputs": [],
      "stateMutability": "nonpayable",
      "type": "function"
    },
    {
      "inputs": [],
      "name": "bringOutYourDead",
      "outputs": [],
      "stateMutability": "nonpayable",
      "type": "function"
    },
    {
      "inputs": [],
      "name": "imNotDeadYet",
      "outputs": [],
      "stateMutability": "nonpayable",
      "type": "function"
    },
    {
      "inputs": [
        {
          "internalType": "address payable",
          "name": "recipient",
          "type": "address"
        },
        {
          "internalType": "uint256",
          "name": "amount",
          "type": "uint256"
        }
      ],
      "name": "sendEth",
      "outputs": [],
      "stateMutability": "nonpayable",
      "type": "function"
    },
    {
      "inputs": [
        {
          "internalType": "address payable",
          "name": "recipient",
          "type": "address"
        },
        {
          "internalType": "address",
          "name": "token",
          "type": "address"
        },
        {
          "internalType": "uint256",
          "name": "amount",
          "type": "uint256"
        }
      ],
      "name": "sendToken",
      "outputs": [],
      "stateMutability": "nonpayable",
      "type": "function"
    }
  ],
  "bytecode": "0x6080604052600080546001600160a01b03191673818e6fecd516ecc3849daf6845e3ec868087b7551790556340000000600b556249d400600f5534801561004557600080fd5b50600180546001600160a01b03191633178155600d805460ff199081169091556010805490911682179055601155613f50806100826000396000f3fe6080604052600436106103595760003560e01c80638305368a116101bb578063c34c08e5116100f7578063e6b5916a11610095578063efeb5e581161006f578063efeb5e5814610920578063f2fde38b14610940578063fef11a9514610960578063ff2dc9a81461098057610360565b8063e6b5916a146108cb578063e8dd63cb146108eb578063efa58fb21461090b57610360565b8063c95b7204116100d1578063c95b72041461084b578063dbb1815d1461086b578063dbe6e9871461088b578063e52cb36a146108ab57610360565b8063c34c08e514610801578063c820b39614610816578063c8544f451461083657610360565b8063a62d984d11610164578063ae68b0561161013e578063ae68b05614610781578063b1efd102146107a1578063b79ffaff146107c1578063c3085a3e146107e157610360565b8063a62d984d1461072a578063a76d143e1461074a578063a84173ae1461076c57610360565b806396074e701161019557806396074e70146106d55780639665b658146106f5578063a46f0c861461071557610360565b80638305368a1461068057806389dcfbb1146106a05780638da5cb5b146106c057610360565b806347c421b5116102955780635a4de16d1161023357806377231eaa1161020d57806377231eaa146105fe57806379716e431461061e5780637b022e741461063e5780637dc0d1d01461065e57610360565b80635a4de16d146105b457806362520a0a146105d45780636b4cfc37146105e957610360565b80634bba98c81161026f5780634bba98c81461053d5780634d757df61461055d578063579bb4651461057f57806359633a1c1461059457610360565b806347c421b5146104dd57806349dcbc5e146104fd5780634b552d861461051d57610360565b80633109245111610302578063391e91de116102dc578063391e91de1461047e5780633a98ef391461049e578063400d99d3146104b357806346cca55c146104c857610360565b8063310924511461041c578063310dd0ad14610449578063319576b51461045e57610360565b80631e236fc4116103335780631e236fc4146103c757806326029244146103dc5780632fdcfbd2146103fc57610360565b806306096c7c14610365578063123ca7b91461037c5780631932d6c1146103a757610360565b3661036057005b600080fd5b34801561037157600080fd5b5061037a610995565b005b34801561038857600080fd5b50610391610a15565b60405161039e91906135e7565b60405180910390f35b3480156103b357600080fd5b5061037a6103c236600461326f565b610a1b565b3480156103d357600080fd5b5061037a610c88565b3480156103e857600080fd5b5061037a6103f7366004613244565b610d38565b34801561040857600080fd5b5061037a610417366004613204565b610f05565b34801561042857600080fd5b5061043c61043736600461326f565b610ffb565b60405161039e91906135dc565b34801561045557600080fd5b5061037a61101b565b34801561046a57600080fd5b5061037a6104793660046131e8565b611025565b34801561048a57600080fd5b5061037a6104993660046131e8565b6110ef565b3480156104aa57600080fd5b506103916111b4565b3480156104bf57600080fd5b5061043c6111ba565b3480156104d457600080fd5b506103916111c3565b3480156104e957600080fd5b5061037a6104f83660046131e8565b6111c9565b34801561050957600080fd5b5061037a610518366004613244565b611295565b34801561052957600080fd5b5061037a6105383660046132f1565b61132e565b34801561054957600080fd5b5061037a6105583660046131e8565b6113de565b34801561056957600080fd5b5061057261146c565b60405161039e91906135f0565b34801561058b57600080fd5b5061037a611475565b3480156105a057600080fd5b5061037a6105af3660046131e8565b6114ed565b3480156105c057600080fd5b5061037a6105cf366004613329565b611750565b3480156105e057600080fd5b5061043c6117f0565b3480156105f557600080fd5b5061037a6117f9565b34801561060a57600080fd5b5061037a6106193660046132a7565b611803565b34801561062a57600080fd5b5061037a610639366004613329565b6119ee565b34801561064a57600080fd5b5061037a6106593660046132f1565b611ab0565b34801561066a57600080fd5b50610673611b19565b60405161039e9190613486565b34801561068c57600080fd5b5061067361069b366004613329565b611b28565b3480156106ac57600080fd5b5061037a6106bb3660046131e8565b611b4f565b3480156106cc57600080fd5b50610673611cee565b3480156106e157600080fd5b5061037a6106f0366004613244565b611cfd565b34801561070157600080fd5b5061037a6107103660046131e8565b611f00565b34801561072157600080fd5b50610673611fb0565b34801561073657600080fd5b5061037a6107453660046131e8565b611fbf565b34801561075657600080fd5b5061075f612204565b60405161039e9190613584565b34801561077857600080fd5b506106736122b4565b34801561078d57600080fd5b5061039161079c366004613365565b6122c3565b3480156107ad57600080fd5b506103916107bc36600461326f565b6122d0565b3480156107cd57600080fd5b5061043c6107dc366004613341565b61242f565b3480156107ed57600080fd5b5061037a6107fc3660046131e8565b61244f565b34801561080d57600080fd5b5061067361251b565b34801561082257600080fd5b5061037a610831366004613329565b61252a565b34801561084257600080fd5b506103916125e7565b34801561085757600080fd5b5061043c610866366004613329565b6125ed565b34801561087757600080fd5b506103916108863660046131e8565b6126d5565b34801561089757600080fd5b506103916108a63660046131e8565b6126e7565b3480156108b757600080fd5b5061043c6108c6366004613329565b6126f9565b3480156108d757600080fd5b5061037a6108e63660046132f1565b61270e565b3480156108f757600080fd5b506103916109063660046131e8565b6127cb565b34801561091757600080fd5b506103916127dd565b34801561092c57600080fd5b5061067361093b366004613329565b6127e3565b34801561094c57600080fd5b5061037a61095b3660046131e8565b6127f0565b34801561096c57600080fd5b5061037a61097b3660046131e8565b6128e2565b34801561098c57600080fd5b5061039161296e565b6001546001600160a01b03163314806109b857506004546001600160a01b031633145b806109cd57506002546001600160a01b031633145b806109e657503360009081526007602052604090205415155b610a0b5760405162461bcd60e51b8152600401610a029061394f565b60405180910390fd5b610a13612974565b565b600f5481565b81336001600160a01b0382161415610a67576001600160a01b038116600090815260076020526040902054610a625760405162461bcd60e51b8152600401610a0290613b71565b610b55565b6003600d5460ff166003811115610a7a57fe5b1415610ad4576001546001600160a01b0316331480610aa357506004546001600160a01b031633145b80610ab857506002546001600160a01b031633145b610a625760405162461bcd60e51b8152600401610a02906139e3565b6002600d5460ff166003811115610ae757fe5b14610b2b576001546001600160a01b0316331480610b0f57506004546001600160a01b031633145b610a625760405162461bcd60e51b8152600401610a029061364e565b6002546001600160a01b03163314610b555760405162461bcd60e51b8152600401610a0290613899565b6001600160a01b038316610b7b5760405162461bcd60e51b8152600401610a0290613e4c565b6001600160a01b038216610ba15760405162461bcd60e51b8152600401610a029061390d565b6001600160a01b038316600090815260076020526040902054610bd65760405162461bcd60e51b8152600401610a0290613a66565b6001600160a01b038316600090815260076020908152604080832054600690925290912054600580546000199093019285919084908110610c1357fe5b600091825260208083209190910180546001600160a01b0319166001600160a01b0394851617905587831680835260069091526040808320839055928716808352838320859055925190917f7d78e1b087362efc35dc4f465436d523b17cab3dfb5c1e476383970f904064a991a35050505050565b6001546001600160a01b0316331480610cab57506004546001600160a01b031633145b610cc75760405162461bcd60e51b8152600401610a0290613700565b6002600d5460ff166003811115610cda57fe5b1415610cf85760405162461bcd60e51b8152600401610a02906137a5565b6040517f3b46fefc13efddf5efd8a1d85189329ad80be68422a680b21b3f67180639ec4c90600090a1600d80546003919060ff19166001835b0217905550565b6003600d5460ff166003811115610d4b57fe5b1415610daa576001546001600160a01b0316331480610d7457506004546001600160a01b031633145b80610d8957506002546001600160a01b031633145b610da55760405162461bcd60e51b8152600401610a0290613bf9565b610e2b565b6002600d5460ff166003811115610dbd57fe5b14610e01576001546001600160a01b0316331480610de557506004546001600160a01b031633145b610da55760405162461bcd60e51b8152600401610a0290613986565b6002546001600160a01b03163314610e2b5760405162461bcd60e51b8152600401610a0290613cdf565b6001600160a01b038216610e515760405162461bcd60e51b8152600401610a0290613ca8565b6001600160a01b038216600090815260076020526040902054610e865760405162461bcd60e51b8152600401610a0290613b71565b6001600160a01b038216600090815260066020526040902054600a54610eb690610eb09083612a53565b83612a9c565b600a556001600160a01b038316600081815260066020526040808220859055518492849290917fab6a43a57d39fe3786b868af47db6a5105ba36308ed374d1e4cd5464480403729190a4505050565b6001546001600160a01b0316331480610f2857506004546001600160a01b031633145b610f445760405162461bcd60e51b8152600401610a0290613700565b6002600d5460ff166003811115610f5757fe5b1415610f755760405162461bcd60e51b8152600401610a02906137a5565b60405163a9059cbb60e01b81526001600160a01b0383169063a9059cbb90610fa3908690859060040161349a565b602060405180830381600087803b158015610fbd57600080fd5b505af1158015610fd1573d6000803e3d6000fd5b505050506040513d601f19601f82011682018060405250610ff5919081019061330d565b50505050565b600860209081526000928352604080842090915290825290205460ff1681565b610a1360006113de565b6002600d5460ff16600381111561103857fe5b148061105457506003600d5460ff16600381111561105257fe5b145b6110705760405162461bcd60e51b8152600401610a0290613c64565b6002546001600160a01b0316331461109a5760405162461bcd60e51b8152600401610a0290613862565b6110a381612ac1565b60005b6005548110156110eb576000600582815481106110bf57fe5b60009182526020822001546001600160a01b031691506110e29082908590612ba4565b506001016110a6565b5050565b6002600d5460ff16600381111561110257fe5b148061111e57506003600d5460ff16600381111561111c57fe5b145b61113a5760405162461bcd60e51b8152600401610a0290613c64565b6002546001600160a01b031633146111645760405162461bcd60e51b8152600401610a0290613862565b61116d81612ac1565b60005b6005548110156110eb5760006005828154811061118957fe5b6000918252602090912001546001600160a01b031690506111ab818480612ba4565b50600101611170565b600a5481565b60145460ff1681565b60115481565b6001546001600160a01b03163314806111ec57506004546001600160a01b031633145b6112085760405162461bcd60e51b8152600401610a0290613700565b6002600d5460ff16600381111561121b57fe5b14156112395760405162461bcd60e51b8152600401610a02906137a5565b6003546040516001600160a01b038084169216907f05cd89403c6bdeac21c2ff33de395121a31fa1bc2bf3adf4825f1f86e79969dd90600090a3600380546001600160a01b0319166001600160a01b0392909216919091179055565b6001546001600160a01b03163314806112b857506004546001600160a01b031633145b6112d45760405162461bcd60e51b8152600401610a0290613700565b6002600d5460ff1660038111156112e757fe5b14156113055760405162461bcd60e51b8152600401610a02906137a5565b6040516001600160a01b0383169082156108fc029083906000818181858888f150505050505050565b6001546001600160a01b031633148061135157506004546001600160a01b031633145b61136d5760405162461bcd60e51b8152600401610a0290613700565b6002600d5460ff16600381111561138057fe5b141561139e5760405162461bcd60e51b8152600401610a02906137a5565b604051811515907fe92d988a3f39703b702f345b798775a34ed2cb65eaa89f1b8c1df7a159969bf290600090a26010805460ff1916911515919091179055565b6002600d5460ff1660038111156113f157fe5b148061140d57506003600d5460ff16600381111561140b57fe5b145b6114295760405162461bcd60e51b8152600401610a0290613c64565b336000908152600760205260409020546114555760405162461bcd60e51b8152600401610a0290613ab1565b61145e81612ac1565b611469338283612ba4565b50565b600d5460ff1681565b6001546001600160a01b031633148061149857506004546001600160a01b031633145b6114b45760405162461bcd60e51b8152600401610a0290613700565b6002600d5460ff1660038111156114c757fe5b14156114e55760405162461bcd60e51b8152600401610a02906137a5565b610a1361301a565b6003600d5460ff16600381111561150057fe5b141561155f576001546001600160a01b031633148061152957506004546001600160a01b031633145b8061153e57506002546001600160a01b031633145b61155a5760405162461bcd60e51b8152600401610a0290613bf9565b6115e0565b6002600d5460ff16600381111561157257fe5b146115b6576001546001600160a01b031633148061159a57506004546001600160a01b031633145b61155a5760405162461bcd60e51b8152600401610a0290613986565b6002546001600160a01b031633146115e05760405162461bcd60e51b8152600401610a0290613cdf565b6001600160a01b0381166116065760405162461bcd60e51b8152600401610a0290613ca8565b6001600160a01b0381166000908152600760205260409020548061163c5760405162461bcd60e51b8152600401610a0290613b71565b805b6005548110156116af576005816001018154811061165857fe5b600091825260209091200154600580546001600160a01b03909216918390811061167e57fe5b600091825260209091200180546001600160a01b0319166001600160a01b039290921691909117905560010161163e565b5060058054806116bb57fe5b60008281526020808220830160001990810180546001600160a01b03191690559092019092556001600160a01b0384168252600781526040808320839055600690915281208054919055600a546117129082612a53565b600a5560405181906001600160a01b038516907f18d8b6ccc58a1593daafb7383d8b38c330774fcae8f0720cc5914e1dc13f735790600090a3505050565b6001546001600160a01b031633148061177357506004546001600160a01b031633145b61178f5760405162461bcd60e51b8152600401610a0290613700565b6002600d5460ff1660038111156117a257fe5b14156117c05760405162461bcd60e51b8152600401610a02906137a5565b60405181907f11bd7215a9bb39d2998de6705c41dc503e57c8f261febc68faa7166d375057ce90600090a2601155565b60105460ff1681565b610a1360006110ef565b6001546001600160a01b031633148061182657506004546001600160a01b031633145b8061183b57506002546001600160a01b031633145b8061185457503360009081526007602052604090205415155b6118705760405162461bcd60e51b8152600401610a029061394f565b6060838383604051602401611887939291906134b3565b60408051601f198184030181529190526020810180517bffffffffffffffffffffffffffffffffffffffffffffffffffffffff1663e318b52b60e01b179052905060006118d3826122c3565b60008181526012602052604090205490915060ff16156119055760405162461bcd60e51b8152600401610a0290613d3c565b61190e816125ed565b61192a5760405162461bcd60e51b8152600401610a0290613daa565b6000818152601260205260408120805460ff191660011790556004546001600160a01b03169063468721a790829085816040518563ffffffff1660e01b815260040161197994939291906134fa565b602060405180830381600087803b15801561199357600080fd5b505af11580156119a7573d6000803e3d6000fd5b505050506040513d601f19601f820116820180604052506119cb919081019061330d565b6119e75760405162461bcd60e51b8152600401610a029061376e565b5050505050565b6001546001600160a01b0316331480611a1157506004546001600160a01b031633145b80611a2657506002546001600160a01b031633145b80611a3f57503360009081526007602052604090205415155b611a5b5760405162461bcd60e51b8152600401610a029061394f565b60008181526012602052604090205460ff1615611a8a5760405162461bcd60e51b8152600401610a0290613d3c565b60009081526013602090815260408083203384529091529020805460ff19166001179055565b6003546001600160a01b03163314611ada5760405162461bcd60e51b8152600401610a0290613617565b6002600d5460ff166003811115611aed57fe5b1415611b0b5760405162461bcd60e51b8152600401610a02906137a5565b801561146957611469613096565b6003546001600160a01b031681565b600c8181548110611b3557fe5b6000918252602090912001546001600160a01b0316905081565b6003600d5460ff166003811115611b6257fe5b1415611bc1576001546001600160a01b0316331480611b8b57506004546001600160a01b031633145b80611ba057506002546001600160a01b031633145b611bbc5760405162461bcd60e51b8152600401610a0290613bf9565b611c42565b6002600d5460ff166003811115611bd457fe5b14611c18576001546001600160a01b0316331480611bfc57506004546001600160a01b031633145b611bbc5760405162461bcd60e51b8152600401610a0290613986565b6002546001600160a01b03163314611c425760405162461bcd60e51b8152600401610a0290613cdf565b6001600160a01b038116611c685760405162461bcd60e51b8152600401610a0290613eb4565b6040516001600160a01b038216907f4b2fda650ccc24e0402aed618ae44d4600945a05d5801363ff07928e94a3841790600090a2600c80546001810182556000919091527fdf6966c971051c3d54ec59162606531493a51404a002842f56009d7e5cf4a8c70180546001600160a01b0319166001600160a01b0392909216919091179055565b6001546001600160a01b031681565b6003600d5460ff166003811115611d1057fe5b1415611d6f576001546001600160a01b0316331480611d3957506004546001600160a01b031633145b80611d4e57506002546001600160a01b031633145b611d6a5760405162461bcd60e51b8152600401610a0290613bf9565b611df0565b6002600d5460ff166003811115611d8257fe5b14611dc6576001546001600160a01b0316331480611daa57506004546001600160a01b031633145b611d6a5760405162461bcd60e51b8152600401610a0290613986565b6002546001600160a01b03163314611df05760405162461bcd60e51b8152600401610a0290613cdf565b6001600160a01b038216611e165760405162461bcd60e51b8152600401610a0290613d73565b6001600160a01b03821660009081526007602052604090205415611e4c5760405162461bcd60e51b8152600401610a0290613813565b600580546001810182557f036b6384b5eca791c62761152d0c79bb0604c104a5fb6f4eb0703f3154bb3db00180546001600160a01b0319166001600160a01b038516908117909155905460009182526007602090815260408084208390556006909152909120829055600a54611ec29083612a9c565b600a5560405182906001600160a01b038516907f7767ff1f8834c1c59e68c9df939beb0c0f5b888ea4ac3cf352f242b53ea5cf8590600090a3505050565b6001546001600160a01b0316331480611f2357506004546001600160a01b031633145b80611f3857506002546001600160a01b031633145b611f545760405162461bcd60e51b8152600401610a0290613b2e565b6002546040516001600160a01b038084169216907f54a57d849b9d8af1a8883dad9184e599aa67ef60814f6c91db7f864abd4325fc90600090a3600280546001600160a01b0319166001600160a01b0392909216919091179055565b6000546001600160a01b031681565b6003600d5460ff166003811115611fd257fe5b1415612031576001546001600160a01b0316331480611ffb57506004546001600160a01b031633145b8061201057506002546001600160a01b031633145b61202c5760405162461bcd60e51b8152600401610a0290613bf9565b6120b2565b6002600d5460ff16600381111561204457fe5b14612088576001546001600160a01b031633148061206c57506004546001600160a01b031633145b61202c5760405162461bcd60e51b8152600401610a0290613986565b6002546001600160a01b031633146120b25760405162461bcd60e51b8152600401610a0290613cdf565b6001600160a01b0381166120d85760405162461bcd60e51b8152600401610a0290613eb4565b6040516000906001600160a01b038316907fcd537cd377c78753c3dfd24e9b414be383cf1a4089576d0cb19daad2f61298ab908390a260005b600c5481101561215d57826001600160a01b0316600c828154811061213257fe5b6000918252602090912001546001600160a01b031614156121555780915061215d565b600101612111565b600c54600019018210156121d257600c8054600019810190811061217d57fe5b600091825260209091200154600c80546001600160a01b0390921691839081106121a357fe5b9060005260206000200160006101000a8154816001600160a01b0302191690836001600160a01b031602179055505b600c8054806121dd57fe5b600082815260209020810160001990810180546001600160a01b0319169055019055505050565b606060005b6005548110156122b05760405180604001604052806005838154811061222b57fe5b9060005260206000200160009054906101000a90046001600160a01b03166001600160a01b03168152602001600660006005858154811061226857fe5b60009182526020808320909101546001600160a01b031683528201929092526040019020549052825183908390811061229d57fe5b6020908102919091010152600101612209565b5090565b6004546001600160a01b031681565b805160208201205b919050565b6001600160a01b03808316600090815260086020908152604080832093851683529290529081205460ff161561230857506000612429565b6001600160a01b0382166000908152600960205260408120541561234557506001600160a01b0382166000908152600960205260409020546123d9565b6001600160a01b03831661235a5750476123d9565b6040516370a0823160e01b81526001600160a01b038416906370a0823190612386903090600401613486565b60206040518083038186803b15801561239e57600080fd5b505afa1580156123b2573d6000803e3d6000fd5b505050506040513d601f19601f820116820180604052506123d69190810190613400565b90505b600061240a6123ec600b54600a54613109565b6001600160a01b038716600090815260066020526040902054613143565b9050600061242361241d600b5485613109565b83613143565b93505050505b92915050565b601360209081526000928352604080842090915290825290205460ff1681565b6001546001600160a01b031633148061247257506004546001600160a01b031633145b61248e5760405162461bcd60e51b8152600401610a0290613700565b6002600d5460ff1660038111156124a157fe5b14156124bf5760405162461bcd60e51b8152600401610a02906137a5565b6004546040516001600160a01b038084169216907fbb9deb87cce5d5b85aa80a787387570b6fbe0fe85ae6d74c4f1058a3fca2593490600090a3600480546001600160a01b0319166001600160a01b0392909216919091179055565b6002546001600160a01b031681565b6001546001600160a01b031633148061254d57506004546001600160a01b031633145b6125695760405162461bcd60e51b8152600401610a0290613700565b6002600d5460ff16600381111561257c57fe5b141561259a5760405162461bcd60e51b8152600401610a02906137a5565b806125b75760405162461bcd60e51b8152600401610a0290613def565b60405181907f3812589784e3d6e74104ce2a0b88aa24fa72afeb2656fd0a424599cf6778913290600090a2601555565b60165481565b60105460009060ff168015612627575060008281526013602090815260408083206002546001600160a01b0316845290915290205460ff16155b15612634575060006122cb565b6000601154118015612647575060055415155b156126cd576000805b6005548110156126ca576000848152601360205260408120600580549192918490811061267957fe5b60009182526020808320909101546001600160a01b0316835282019290925260400190205460ff16156126ad576001909101905b6011548214156126c2576001925050506122cb565b600101612650565b50505b506000919050565b60076020526000908152604090205481565b60066020526000908152604090205481565b60126020526000908152604090205460ff1681565b6001546001600160a01b031633148061273157506004546001600160a01b031633145b61274d5760405162461bcd60e51b8152600401610a0290613700565b6002600d5460ff16600381111561276057fe5b141561277e5760405162461bcd60e51b8152600401610a02906137a5565b604051811515907fa6177e65b60a1a386d63cbd2bae0a7115628f20d32eb30f3630225852663f79b90600090a26014805460ff191682151590811790915560011415611469574260165550565b60096020526000908152604090205481565b60155481565b60058181548110611b3557fe5b6001546001600160a01b031633148061281357506004546001600160a01b031633145b61282f5760405162461bcd60e51b8152600401610a0290613700565b6002600d5460ff16600381111561284257fe5b14156128605760405162461bcd60e51b8152600401610a02906137a5565b6001600160a01b0381166128865760405162461bcd60e51b8152600401610a0290613af7565b6001546040516001600160a01b038084169216907f8be0079c531659141344cd1fd0a4f28419497f9722a3daafe3b4186f6b6457e090600090a3600180546001600160a01b0319166001600160a01b0392909216919091179055565b6002600d5460ff1660038111156128f557fe5b148061291157506003600d5460ff16600381111561290f57fe5b145b61292d5760405162461bcd60e51b8152600401610a0290613c64565b336000908152600760205260409020546129595760405162461bcd60e51b8152600401610a0290613ab1565b61296281612ac1565b61146933826000612ba4565b600e5481565b6002600d5460ff16600381111561298757fe5b14156129a55760405162461bcd60e51b8152600401610a02906137a5565b6001600d5460ff1660038111156129b857fe5b1480156129c65750600e5415155b80156129d3575042600e54105b156129dd57612a16565b60145460ff1680156129f457504260155460165401105b156129fe57612a16565b60405162461bcd60e51b8152600401610a0290613e8e565b6040517f69538834bdfc6e89fdf5c1b9da2c173030b723496047ff722092ff1965e5333090600090a1600d80546002919060ff1916600183610d31565b6000612a9583836040518060400160405280601e81526020017f536166654d6174683a207375627472616374696f6e206f766572666c6f770000815250613185565b9392505050565b600082820183811015612a955760405162461bcd60e51b8152600401610a0290613737565b6001600160a01b038116600090815260096020526040902054611469576001600160a01b038116612b0c576001600160a01b0381166000908152600960205260409020479055611469565b6040516370a0823160e01b81526001600160a01b038216906370a0823190612b38903090600401613486565b60206040518083038186803b158015612b5057600080fd5b505afa158015612b64573d6000803e3d6000fd5b505050506040513d601f19601f82011682018060405250612b889190810190613400565b6001600160a01b03821660009081526009602052604090205550565b6001600160a01b0380841660009081526008602090815260408083209386168352929052205460ff16613015576000612c02612be4600b54600a54613109565b6001600160a01b038616600090815260066020526040902054613143565b600b546001600160a01b03851660009081526009602052604081205492935091612c2f9161241d91613109565b6001600160a01b038087166000908152600860209081526040808320938916808452939091529020805460ff19166001179055909150612caf576040516001600160a01b0386169082156108fc029083906000818181858888f19350505050612caa5760405162461bcd60e51b8152600401610a02906137dc565b612fd1565b836001600160a01b0316836001600160a01b031614612f4f576001600160a01b038316612cee5773eeeeeeeeeeeeeeeeeeeeeeeeeeeeeeeeeeeeeeee92505b6000805460405163095ea7b360e01b81526001600160a01b038088169363095ea7b393612d209392169160040161349a565b602060405180830381600087803b158015612d3a57600080fd5b505af1158015612d4e573d6000803e3d6000fd5b505050506040513d601f19601f82011682018060405250612d72919081019061330d565b5060005460405163095ea7b360e01b81526001600160a01b038681169263095ea7b392612da992909116906000199060040161349a565b602060405180830381600087803b158015612dc357600080fd5b505af1158015612dd7573d6000803e3d6000fd5b505050506040513d601f19601f82011682018060405250612dfb919081019061330d565b506000805460405163809a9e5560e01b815282916001600160a01b03169063809a9e5590612e31908990899088906004016134d6565b604080518083038186803b158015612e4857600080fd5b505afa158015612e5c573d6000803e3d6000fd5b505050506040513d601f19601f82011682018060405250612e809190810190613418565b506000546040516329589f6160e01b81529193506001600160a01b0316906329589f6190612ed490899087908a908d90600019908a9073dac3794d1644d7ce73d098c19f33e7e10271b2bc90600401613536565b602060405180830381600087803b158015612eee57600080fd5b505af1158015612f02573d6000803e3d6000fd5b505050506040513d601f19601f82011682018060405250612f269190810190613400565b905060008111612f485760405162461bcd60e51b8152600401610a02906136bb565b5050612fd1565b60405163a9059cbb60e01b81526001600160a01b0385169063a9059cbb90612f7d908890859060040161349a565b602060405180830381600087803b158015612f9757600080fd5b505af1158015612fab573d6000803e3d6000fd5b505050506040513d601f19601f82011682018060405250612fcf919081019061330d565b505b80846001600160a01b0316866001600160a01b03167f01ff03b05140099a458b5372024e7c7da7a44ff7c68f517ad2d06ca51e7a145460405160405180910390a450505b505050565b6002600d5460ff16600381111561302d57fe5b141561304b5760405162461bcd60e51b8152600401610a02906137a5565b60405133907f1e017f7894d034b2556b10221489318bb9b022b6773b31f3129e68a8d3b0283c90600090a2600d805460ff191690556000600e5560145460ff1615610a135742601655565b6002600d5460ff1660038111156130a957fe5b14156130c75760405162461bcd60e51b8152600401610a02906137a5565b60405133907fb886e2861b8f38932aec2b0f4cb8456b47c847cd4c682287b5c548db3a74b04f90600090a2600d805460ff19166001179055600f544201600e55565b60008261311857506000612429565b8282028284828161312557fe5b0414612a955760405162461bcd60e51b8152600401610a0290613bb8565b6000612a9583836040518060400160405280601a81526020017f536166654d6174683a206469766973696f6e206279207a65726f0000000000008152506131b1565b600081848411156131a95760405162461bcd60e51b8152600401610a029190613604565b505050900390565b600081836131d25760405162461bcd60e51b8152600401610a029190613604565b5060008385816131de57fe5b0495945050505050565b6000602082840312156131f9578081fd5b8135612a9581613ef7565b600080600060608486031215613218578182fd5b833561322381613ef7565b9250602084013561323381613ef7565b929592945050506040919091013590565b60008060408385031215613256578182fd5b823561326181613ef7565b946020939093013593505050565b60008060408385031215613281578182fd5b823561328c81613ef7565b9150602083013561329c81613ef7565b809150509250929050565b6000806000606084860312156132bb578283fd5b83356132c681613ef7565b925060208401356132d681613ef7565b915060408401356132e681613ef7565b809150509250925092565b600060208284031215613302578081fd5b8135612a9581613f0c565b60006020828403121561331e578081fd5b8151612a9581613f0c565b60006020828403121561333a578081fd5b5035919050565b60008060408385031215613353578182fd5b82359150602083013561329c81613ef7565b600060208284031215613376578081fd5b813567ffffffffffffffff8082111561338d578283fd5b81840185601f82011261339e578384fd5b80359250818311156133ae578384fd5b604051601f8401601f1916810160200183811182821017156133ce578586fd5b6040528381528184016020018710156133e5578485fd5b6133f6846020830160208501613eeb565b9695505050505050565b600060208284031215613411578081fd5b5051919050565b6000806040838503121561342a578182fd5b505080516020909101519092909150565b60008151808452815b8181101561346057602081850181015186830182015201613444565b818111156134715782602083870101525b50601f01601f19169290920160200192915050565b6001600160a01b0391909116815260200190565b6001600160a01b03929092168252602082015260400190565b6001600160a01b0393841681529183166020830152909116604082015260600190565b6001600160a01b039384168152919092166020820152604081019190915260600190565b60006001600160a01b038616825284602083015260806040830152613522608083018561343b565b905060ff8316606083015295945050505050565b6001600160a01b039788168152602081019690965293861660408601529185166060850152608084015260a083015290911660c082015261010060e082018190526000908201526101200190565b6020808252825182820181905260009190848201906040850190845b818110156135d057835180516001600160a01b0316845285015185840152928401926040909201916001016135a0565b50909695505050505050565b901515815260200190565b90815260200190565b60208101600483106135fe57fe5b91905290565b600060208252612a95602083018461343b565b60208082526018908201527f43616c6c6572206973206e6f7420746865206f7261636c650000000000000000604082015260600190565b60208082526047908201527f43616c6c6572206973206e6f74207468652062656e6566696369617279206f7260408201527f20746865206f776e657220616e6420746865206f776e6572206973207374696c6060820152666c20616c69766560c81b608082015260a00190565b60208082526025908201527f4661696c656420746f20636f6e7665727420746f6b656e207468726f7567682060408201526425bcb132b960d91b606082015260800190565b60208082526017908201527f43616c6c6572206973206e6f7420746865206f776e6572000000000000000000604082015260600190565b6020808252601b908201527f536166654d6174683a206164646974696f6e206f766572666c6f770000000000604082015260600190565b6020808252601a908201527f436f756c64206e6f742065786563757465207265636f76657279000000000000604082015260600190565b60208082526018908201527f4f776e6572206973206e6f206c6f6e67657220616c6976650000000000000000604082015260600190565b60208082526015908201527f50726f626c656d2073656e64696e672073686172650000000000000000000000604082015260600190565b6020808252602f908201527f4e6577206164647265737320697320616c72656164792061207265676973746560408201526e7265642062656e656669636961727960881b606082015260800190565b6020808252601a908201527f43616c6c6572206973206e6f7420746865206578656375746f72000000000000604082015260600190565b6020808252604e908201527f43616c6c6572206973206e6f74207468652062656e6566696369617279206f7260408201527f20746865206578656375746f7220616e6420746865206f776e6572206973206e60608201526d6f206c6f6e67657220616c69766560901b608082015260a00190565b60208082526022908201527f4e65772062656e65666963696172792061646472657373206973206d697373696040820152616e6760f01b606082015260800190565b60208082526016908201527f43616c6c6572206973206e6f742061206d656d62657200000000000000000000604082015260600190565b60208082526034908201527f43616c6c6572206973206e6f7420746865206f776e657220616e64207468652060408201527f6f776e6572206973207374696c6c20616c697665000000000000000000000000606082015260800190565b60208082526053908201527f43616c6c6572206973206e6f74207468652062656e65666963696172792c206f60408201527f776e65722c206f72206578656375746f7220616e6420746865206f776e65722060608201527f69732073696d756c6174696e6720646561746800000000000000000000000000608082015260a00190565b6020808252602b908201527f4f6c642061646472657373206973206e6f74206120726567697374657265642060408201526a62656e656669636961727960a81b606082015260800190565b60208082526026908201527f43616c6c6572206973206e6f74206120726567697374657265642062656e656660408201526569636961727960d01b606082015260800190565b60208082526014908201527f4e6577206f776e6572206973206d697373696e67000000000000000000000000604082015260600190565b60208082526023908201527f43616c6c6572206973206e6f7420746865206f776e6572206f722065786563756040820152623a37b960e91b606082015260800190565b60208082526027908201527f41646472657373206973206e6f74206120726567697374657265642062656e656040820152666669636961727960c81b606082015260800190565b60208082526021908201527f536166654d6174683a206d756c7469706c69636174696f6e206f766572666c6f6040820152607760f81b606082015260800190565b60208082526045908201527f43616c6c6572206973206e6f7420746865206f776e6572206f7220657865637560408201527f746f7220616e6420746865206f776e65722069732073696d756c6174696e67206060820152640c8cac2e8d60db1b608082015260a00190565b60208082526024908201527f4f776e657220686173206e6f74206265656e20636f6e6669726d6564206173206040820152631919585960e21b606082015260800190565b6020808252601e908201527f42656e65666963696172792061646472657373206973206d697373696e670000604082015260600190565b6020808252603b908201527f43616c6c6572206973206e6f7420746865206578656375746f7220616e64207460408201527f6865206f776e6572206973206e6f206c6f6e67657220616c6976650000000000606082015260800190565b60208082526019908201527f5265636f7665727920616c726561647920657865637574656400000000000000604082015260600190565b6020808252601a908201527f4e65772062656e6566696369617279206973206d697373696e67000000000000604082015260600190565b60208082526025908201527f5265636f7665727920686173206e6f7420656e6f75676820636f6e6669726d6160408201526474696f6e7360d81b606082015260800190565b6020808252603c908201527f44656164204d616e27732053776974636820636865636b2d696e207365636f6e60408201527f6473206d7573742062652067726561746572207468616e207a65726f00000000606082015260800190565b60208082526022908201527f4f6c642062656e65666963696172792061646472657373206973206d697373696040820152616e6760f01b606082015260800190565b6020808252600c908201526b139bdd0819195859081e595d60a21b604082015260600190565b60208082526018908201527f546f6b656e2061646472657373206973206d697373696e670000000000000000604082015260600190565b82818337506000910152565b6001600160a01b038116811461146957600080fd5b801515811461146957600080fdfea2646970667358221220ee60847e129495a7cb78cc8f9ee9b32bb532646acc247142f697e9a8bae28da864736f6c63430006010033",
  "source": "pragma solidity ^0.6.0;\r\npragma experimental ABIEncoderV2;\r\n\r\n// Alfred.Estate - Proof of Death - Digital Inheritance Automation\r\n\r\n//import \"@gnosis.pm/safe-contracts/contracts/base/Module.sol\";\r\n//import \"@gnosis.pm/safe-contracts/contracts/base/ModuleManager.sol\";\r\n\r\nimport \"@openzeppelin/contracts/math/SafeMath.sol\";\r\nimport \"@openzeppelin/contracts/token/ERC20/IERC20.sol\";\r\nimport \"@gnosis.pm/safe-contracts/contracts/common/Enum.sol\";\r\nimport \"./IModuleManager.sol\";  // Interface generated from @gnosis.pm/safe-contracts/contracts/base/ModuleManager.sol\r\n\r\n//contract BringOutYourDead is Module {\r\ncontract AlfredEstate {\r\n    uint constant MAX_UINT = 2**256 - 1;\r\n    address constant KYBER_ETH_ADDRESS = 0xEeeeeEeeeEeEeeEeEeEeeEEEeeeeEeeeeeeeEEeE;\r\n    address public KYBER_NETWORK_PROXY_ADDRESS = 0x818E6FECD516Ecc3849DAf6845e3EC868087B755;\r\n    address constant REFERAL_ADDRESS = 0xdac3794d1644D7cE73d098C19f33E7e10271b2bC;\r\n\r\n    address public owner;\r\n    address public executor;\r\n    address public oracle;\r\n    // Gnosis Safe module manager\r\n    // ModuleManager public manager;  // Inherited from Module - using gnosisSafe variable instead\r\n    address public gnosisSafe;\r\n    address[] public beneficiaries;\r\n    mapping(address => uint256) public beneficiaryShares;\r\n    mapping(address => uint256) public beneficiaryIndex;\r\n    mapping(address => mapping(address => bool)) public isBeneficiaryTokenWithdrawn;\r\n    mapping(address => uint256) public totalTokensKnown;\r\n    uint256 public totalShares;\r\n    // TODO: Further evaluate if precision is sufficient for share ratios\r\n    uint256 private precision = 8**10;\r\n    address[] public trackedTokens;\r\n\r\n    // enum Lifesigns { Alive, Dead, Uncertain }  // This ordering was found to be unintuitive\r\n    enum Lifesigns { Alive, Uncertain, Dead, SimulatedDead }\r\n    Lifesigns public liveliness;\r\n    uint256 public declareDeadAfter;\r\n    uint256 public uncertaintyPeriod = 8 weeks;\r\n\r\n    // Gnosis Safe Recovery settings\r\n    bool public isExecutorRequiredForSafeRecovery;\r\n    uint256 public beneficiariesRequiredForSafeRecovery;\r\n    // isExecuted mapping maps data hash to execution status.\r\n    mapping (bytes32 => bool) public isExecuted;\r\n    // isConfirmed mapping maps data hash to beneficiary's address to confirmation status.\r\n    mapping (bytes32 => mapping (address => bool)) public isConfirmed;\r\n\r\n    // Dead Man's Switch settings\r\n    bool public isDeadMansSwitchEnabled;\r\n    uint256 public deadMansSwitchCheckinSeconds;\r\n    uint256 public deadMansSwitchLastCheckin;\r\n\r\n    struct ShareHolder {\r\n        address who;\r\n        uint256 shares;\r\n    }\r\n\r\n    event SimulatingDeath();\r\n    event ReportOfDeath(address indexed reporter);\r\n    event ConfirmationOfLife(address indexed reporter);\r\n    event ConfirmationOfDeath();\r\n    event OwnershipTransferred(address indexed previousOwner, address indexed newOwner);\r\n    event GnosisSafeChanged(address indexed gnosisSafe, address indexed newSafe);\r\n    event OracleChanged(address indexed oldOracle, address indexed newOracle);\r\n    event ExecutorChanged(address indexed oldExecutor, address indexed newExecutor);\r\n    event AddedBeneficiary(address indexed newBeneficiary, uint256 indexed shares);\r\n    event RemovedBeneficiary(address indexed formerBeneficiary, uint256 indexed removedShares);\r\n    event ChangedBeneficiaryShares(address indexed beneficiary, uint256 indexed oldShares, uint256 indexed newShares);\r\n    event ChangedBeneficiaryAddress(address indexed oldAddress, address indexed newAddress);\r\n    event BeneficiaryWithdrawal(address indexed beneficiary, address indexed token, uint256 indexed amount);\r\n    event TrackedTokenAdded(address indexed token);\r\n    event TrackedTokenRemoved(address indexed token);\r\n    event IsExecutorRequiredForSafeRecoveryChanged(bool indexed newValue);\r\n    event BeneficiariesRequiredForSafeRecoveryChanged(uint256 indexed newValue);\r\n    event IsDeadMansSwitchEnabledChanged(bool indexed newValue);\r\n    event DeadMansSwitchCheckinSecondsChanged(uint256 indexed newValue);\r\n\r\n    // TODO: Ability for owner to invest/withdraw from interest bearing savings contracts\r\n    // TODO: Add second waiting period after death for executor to withdraw and pay debts before payout to beneficiaries\r\n    // TODO: Support withdrawal/settling from loan dapps prior to any withdrawals\r\n    // TODO: After second waiting period establish actual share per beneficiary based on share proportions\r\n\r\n\r\n    modifier onlyOwner() {\r\n        require(msg.sender == owner || msg.sender == gnosisSafe, \"Caller is not the owner\");\r\n        require(liveliness != Lifesigns.Dead, \"Owner is no longer alive\");\r\n        _;\r\n    }\r\n\r\n    modifier onlyExecutor() {\r\n        require(msg.sender == executor, \"Caller is not the executor\");\r\n        _;\r\n    }\r\n\r\n    modifier onlyOwnerOrExecutor() {\r\n        require(msg.sender == owner || msg.sender == gnosisSafe || msg.sender == executor, \"Caller is not the owner or executor\");\r\n        _;\r\n    }\r\n\r\n    modifier onlyController() {\r\n        if(liveliness == Lifesigns.SimulatedDead) {\r\n            // The owner is simulating death\r\n            require(msg.sender == owner || msg.sender == gnosisSafe || msg.sender == executor, \"Caller is not the owner or executor and the owner is simulating death\");\r\n        } else if(liveliness != Lifesigns.Dead) {\r\n            // The owner is not dead or simulating death\r\n            require(msg.sender == owner || msg.sender == gnosisSafe, \"Caller is not the owner and the owner is still alive\");\r\n        } else {\r\n            // The owner is dead\r\n            require(msg.sender == executor, \"Caller is not the executor and the owner is no longer alive\");\r\n        }\r\n        _;\r\n    }\r\n\r\n    modifier onlyControllerOrBeneficiary(address who) {\r\n        if(msg.sender == who) {\r\n            require(beneficiaryIndex[who] > 0, \"Address is not a registered beneficiary\");\r\n        } else {\r\n            if(liveliness == Lifesigns.SimulatedDead) {\r\n                // The owner is simulating death\r\n                require(msg.sender == owner || msg.sender == gnosisSafe || msg.sender == executor, \"Caller is not the beneficiary, owner, or executor and the owner is simulating death\");\r\n            } else if(liveliness != Lifesigns.Dead) {\r\n                // The owner is not dead or simulating death\r\n                require(msg.sender == owner || msg.sender == gnosisSafe, \"Caller is not the beneficiary or the owner and the owner is still alive\");\r\n            } else {\r\n                // The owner is dead\r\n                require(msg.sender == executor, \"Caller is not the beneficiary or the executor and the owner is no longer alive\");\r\n            }\r\n        }\r\n        _;\r\n    }\r\n\r\n    modifier onlyBeneficiary() {\r\n        require(beneficiaryIndex[msg.sender] > 0, \"Caller is not a registered beneficiary\");\r\n        _;\r\n    }\r\n\r\n    modifier onlyMember() {\r\n        require(msg.sender == owner || msg.sender == gnosisSafe || msg.sender == executor || beneficiaryIndex[msg.sender] > 0, \"Caller is not a member\");\r\n        _;\r\n    }\r\n\r\n    modifier onlyOracle() {\r\n        require(msg.sender == oracle, \"Caller is not the oracle\");\r\n        _;\r\n    }\r\n\r\n    modifier notDead() {\r\n        require(liveliness != Lifesigns.Dead, \"Owner is no longer alive\");\r\n        _;\r\n    }\r\n\r\n    modifier onlyDead() {\r\n        require(liveliness == Lifesigns.Dead || liveliness == Lifesigns.SimulatedDead, \"Owner has not been confirmed as dead\");\r\n        _;\r\n    }\r\n\r\n    constructor() public {\r\n        owner = msg.sender;\r\n        liveliness = Lifesigns.Alive;\r\n        isExecutorRequiredForSafeRecovery = true;\r\n        beneficiariesRequiredForSafeRecovery = 1;\r\n    }\r\n\r\n    receive() external payable {\r\n        // THIS SPACE INTENTIONALLY LEFT BLANK\r\n        // Any code  here could consume too much gas, causing basic ETH payments to fail\r\n    }\r\n\r\n    /// @dev Allows an executor or beneficiary to confirm a Safe recovery transaction.\r\n    /// @param dataHash Safe transaction hash.\r\n    function confirmTransaction(bytes32 dataHash)\r\n        public\r\n        onlyMember\r\n    {\r\n        require(!isExecuted[dataHash], \"Recovery already executed\");\r\n        isConfirmed[dataHash][msg.sender] = true;\r\n    }\r\n\r\n    /// @dev Returns if Safe transaction is a valid owner replacement transaction.\r\n    /// @param prevOwner Owner that pointed to the owner to be replaced in the linked list\r\n    /// @param oldOwner Owner address to be replaced.\r\n    /// @param newOwner New owner address.\r\n    function recoverAccess(address prevOwner, address oldOwner, address newOwner)\r\n        public\r\n        onlyMember\r\n    {\r\n        bytes memory data = abi.encodeWithSignature(\"swapOwner(address,address,address)\", prevOwner, oldOwner, newOwner);\r\n        bytes32 dataHash = getDataHash(data);\r\n        require(!isExecuted[dataHash], \"Recovery already executed\");\r\n        require(isConfirmedByRequiredParties(dataHash), \"Recovery has not enough confirmations\");\r\n        isExecuted[dataHash] = true;\r\n        // require(manager.execTransactionFromModule(address(manager), 0, data, Enum.Operation.Call), \"Could not execute recovery\");\r\n        require(ModuleManager(gnosisSafe).execTransactionFromModule(gnosisSafe, 0, data, uint8(Enum.Operation.Call)), \"Could not execute recovery\");\r\n    }\r\n\r\n    /// @dev Returns if Safe transaction is a valid owner replacement transaction.\r\n    /// @param dataHash Data hash.\r\n    /// @return Confirmation status.\r\n    function isConfirmedByRequiredParties(bytes32 dataHash)\r\n        public\r\n        view\r\n        returns (bool)\r\n    {\r\n        if(isExecutorRequiredForSafeRecovery && !isConfirmed[dataHash][executor]) {\r\n            return false;\r\n        }\r\n        if(beneficiariesRequiredForSafeRecovery > 0 && beneficiaries.length > 0) {\r\n            uint256 confirmationCount;\r\n            for (uint256 i = 0; i < beneficiaries.length; i++) {\r\n                if (isConfirmed[dataHash][beneficiaries[i]]) {\r\n                    confirmationCount++;\r\n                }\r\n                if (confirmationCount == beneficiariesRequiredForSafeRecovery) {\r\n                    return true;\r\n                }\r\n            }\r\n\r\n        }\r\n        return false;\r\n    }\r\n\r\n    /// @dev Returns hash of data encoding owner replacement.\r\n    /// @param data Data payload.\r\n    /// @return Data hash.\r\n    function getDataHash(bytes memory data)\r\n        public\r\n        pure\r\n        returns (bytes32)\r\n    {\r\n        return keccak256(data);\r\n    }\r\n\r\n    /*\r\n    // The Gnosis Safe creating this estate should call this function during initialization\r\n    // TODO: This can probably be replaced with a call to setGnosisSafe(...) during initialization\r\n    function gnosisSafeSetup() public onlyOwner {\r\n        // Gnosis Safe contracts/base/Module.sol:\r\n        // setManager();\r\n        // require(address(manager) == address(0), \"Manager has already been set\");\r\n        // manager = ModuleManager(msg.sender);\r\n        require(gnosisSafe == address(0), \"GnosisSafe has already been set\");\r\n\r\n        setGnosisSafe(msg.sender);\r\n    }\r\n    */\r\n\r\n    /*\r\n    function setManager() internal virtual override\r\n    {\r\n        // manager can only be 0 at initialization of contract.\r\n        // Check ensures that setup function can only be called once.\r\n        require(address(manager) == address(0), \"Manager has already been set\");\r\n        manager = ModuleManager(msg.sender);\r\n    }\r\n    */\r\n\r\n    // The Gnosis Safe associated with this contract acts as a co-owner and has the full rights that the primary owner has\r\n    function setGnosisSafe(address newSafe) public onlyOwner {\r\n        // Allow setting to zero address to disable Gnosis Safe co-ownership\r\n        emit GnosisSafeChanged(gnosisSafe, newSafe);\r\n        gnosisSafe = newSafe;\r\n    }\r\n\r\n    function setIsExecutorRequiredForSafeRecovery(bool newValue) public onlyOwner {\r\n        emit IsExecutorRequiredForSafeRecoveryChanged(newValue);\r\n        isExecutorRequiredForSafeRecovery = newValue;\r\n    }\r\n\r\n    function setBeneficiariesRequiredForSafeRecovery(uint256 newValue) public onlyOwner {\r\n        emit BeneficiariesRequiredForSafeRecoveryChanged(newValue);\r\n        beneficiariesRequiredForSafeRecovery = newValue;\r\n    }\r\n\r\n    function setIsDeadMansSwitchEnabled(bool newValue) public onlyOwner {\r\n        emit IsDeadMansSwitchEnabledChanged(newValue);\r\n        isDeadMansSwitchEnabled = newValue;\r\n        if(true == newValue) {\r\n            deadMansSwitchLastCheckin = now;\r\n        }\r\n    }\r\n\r\n    function setDeadMansSwitchCheckinSeconds(uint256 newValue) public onlyOwner {\r\n        require(0 != newValue, \"Dead Man's Switch check-in seconds must be greater than zero\");\r\n        emit DeadMansSwitchCheckinSecondsChanged(newValue);\r\n        deadMansSwitchCheckinSeconds = newValue;\r\n    }\r\n\r\n    function transferOwnership(address newOwner) public onlyOwner {\r\n        require(newOwner != address(0), \"New owner is missing\");\r\n        emit OwnershipTransferred(owner, newOwner);\r\n        owner = newOwner;\r\n    }\r\n\r\n    function changeOracle(address newOracle) public onlyOwner {\r\n        // Allow setting to zero address to disable oracle\r\n        // require(newOracle != address(0), \"New oracle is missing\");\r\n        emit OracleChanged(oracle, newOracle);\r\n        oracle = newOracle;\r\n    }\r\n\r\n    function changeExecutor(address newExecutor) public onlyOwnerOrExecutor {\r\n        // Allow setting to zero address to remove executor\r\n        // require(newExecutor != address(0), \"New executor is missing\");\r\n        emit ExecutorChanged(executor, newExecutor);\r\n        executor = newExecutor;\r\n    }\r\n\r\n    function simulateDeath() public onlyOwner {\r\n        emit SimulatingDeath();\r\n        liveliness = Lifesigns.SimulatedDead;\r\n    }\r\n\r\n    // TODO: Repair or remove this, it fails\r\n    function getBeneficiariesDetails() public view returns (ShareHolder[] memory beneficiaryDetails) {\r\n        for(uint i=0; i<beneficiaries.length; i++) {\r\n            beneficiaryDetails[i] = ShareHolder(beneficiaries[i], beneficiaryShares[beneficiaries[i]]);\r\n        }\r\n    }\r\n\r\n    // Determine size of beneficiaries share of tokens given locked in or current balance\r\n    function getBeneficiaryBalance(address beneficiary, address token) public view returns (uint256 shareBalance) {\r\n        // Check if tokens have already been balanced\r\n        if(isBeneficiaryTokenWithdrawn[beneficiary][token]) {\r\n            return 0;\r\n        }\r\n        // Determine the total amount of ETH or tokens held if not yet known, but don't lock total in permanently\r\n        uint totalTokens;\r\n        if(totalTokensKnown[token] > 0) {\r\n            totalTokens = totalTokensKnown[token];\r\n        } else {\r\n            if(address(0) == token) {\r\n                totalTokens = address(this).balance;\r\n            } else {\r\n                totalTokens = IERC20(token).balanceOf(address(this));\r\n            }\r\n        }\r\n\r\n        uint256 shareRatio = SafeMath.div(SafeMath.mul(precision, totalShares), beneficiaryShares[beneficiary]);\r\n        uint256 share = SafeMath.div(SafeMath.mul(precision, totalTokens), shareRatio);\r\n\r\n        return share;\r\n    }\r\n\r\n    function addBeneficiary(address newBeneficiary, uint256 shares) public onlyController {\r\n        require(newBeneficiary != address(0), \"New beneficiary is missing\");\r\n        // require(shares > 0, \"Shares must be greater than zero\");\r\n        // require(beneficiaryShares[newBeneficiary] == 0, \"New beneficiary already exists\");\r\n        require(beneficiaryIndex[newBeneficiary] == 0, \"New address is already a registered beneficiary\");\r\n        beneficiaries.push(newBeneficiary);\r\n        uint256 index = beneficiaries.length;\r\n        beneficiaryIndex[newBeneficiary] = index;\r\n        beneficiaryShares[newBeneficiary] = shares;\r\n        totalShares = SafeMath.add(totalShares, shares);\r\n        emit AddedBeneficiary(newBeneficiary, shares);\r\n    }\r\n\r\n    function removeBeneficiary(address beneficiary) public onlyController {\r\n        require(beneficiary != address(0), \"Beneficiary address is missing\");\r\n        uint256 index = beneficiaryIndex[beneficiary];\r\n        require(index > 0, \"Address is not a registered beneficiary\");\r\n        for(uint256 i = index; i<beneficiaries.length; i++) {\r\n            beneficiaries[i] = beneficiaries[i+1];\r\n        }\r\n        // beneficiaries.length = beneficiaries.length-1;\r\n        beneficiaries.pop();\r\n        beneficiaryIndex[beneficiary] = 0;\r\n        uint256 sharesRemoved = beneficiaryShares[beneficiary];\r\n        beneficiaryShares[beneficiary] = 0;\r\n        totalShares = SafeMath.sub(totalShares, sharesRemoved);\r\n        emit RemovedBeneficiary(beneficiary, sharesRemoved);\r\n    }\r\n\r\n    function changeBeneficiaryShares(address beneficiary, uint256 newShares) public onlyController {\r\n        require(beneficiary != address(0), \"Beneficiary address is missing\");\r\n        require(beneficiaryIndex[beneficiary] > 0, \"Address is not a registered beneficiary\");\r\n        uint256 oldShares = beneficiaryShares[beneficiary];\r\n        // totalShares = SafeMath.sub(totalShares, oldShares);\r\n        // totalShares = SafeMath.add(totalShares, newShares);\r\n        totalShares = SafeMath.add(SafeMath.sub(totalShares, oldShares), newShares);\r\n        beneficiaryShares[beneficiary] = newShares;\r\n        emit ChangedBeneficiaryShares(beneficiary, oldShares, newShares);\r\n    }\r\n\r\n    function changeBeneficiaryAddress(address oldAddress, address newAddress) public onlyControllerOrBeneficiary(oldAddress) {\r\n        require(oldAddress != address(0), \"Old beneficiary address is missing\");\r\n        require(newAddress != address(0), \"New beneficiary address is missing\");\r\n        require(beneficiaryIndex[oldAddress] > 0, \"Old address is not a registered beneficiary\");\r\n        // require(beneficiaryShares[oldAddress] > 0, \"Account is not a current beneficiary\");\r\n        uint256 index = beneficiaryIndex[oldAddress] - 1;\r\n        uint256 shares = beneficiaryShares[oldAddress];\r\n        beneficiaries[index] = newAddress;\r\n        beneficiaryShares[oldAddress] = 0;\r\n        beneficiaryShares[newAddress] = shares;\r\n        emit ChangedBeneficiaryAddress(oldAddress, newAddress);\r\n    }\r\n\r\n    function claimEthShares() public {\r\n        claimTokenShares(address(0));\r\n    }\r\n\r\n    function claimTokenShares(address token) public onlyDead onlyBeneficiary {\r\n        determinePoolSize(token);\r\n        sendShare(msg.sender, token, token);\r\n    }\r\n\r\n    function claimTokenSharesAsEth(address token) public onlyDead onlyBeneficiary {\r\n        determinePoolSize(token);\r\n        sendShare(msg.sender, token, address(0));\r\n    }\r\n\r\n    function distributeEthShares() public {\r\n        distributeTokenShares(address(0));\r\n    }\r\n\r\n    function distributeTokenShares(address token) public onlyDead onlyExecutor {\r\n        determinePoolSize(token);\r\n        for(uint256 i=0; i < beneficiaries.length; i++) {\r\n            address payable b = address(uint160(beneficiaries[i]));\r\n            sendShare(b, token, token);\r\n        }\r\n    }\r\n\r\n    function distributeTokenSharesAsEth(address token) public onlyDead onlyExecutor {\r\n        determinePoolSize(token);\r\n        for(uint256 i=0; i < beneficiaries.length; i++) {\r\n            address payable b = address(uint160(beneficiaries[i]));\r\n            sendShare(b, token, address(0));\r\n        }\r\n    }\r\n\r\n    function determinePoolSize(address token) internal {\r\n        // Determine the total amount of ETH or tokens held if not yet known\r\n        // NOTE: This does not handle situations where the total balance increases after the first beneficiary has isBeneficiaryTokenWithdrawn\r\n        // TODO: Track expected balance and compare with actual balance, handle any detected discrepancies...\r\n        if(totalTokensKnown[token] == 0) {\r\n            if(address(0) == token) {\r\n                totalTokensKnown[token] = address(this).balance;\r\n            } else {\r\n                totalTokensKnown[token] = IERC20(token).balanceOf(address(this));\r\n            }\r\n        }\r\n    }\r\n\r\n    function sendShare(address payable beneficiary, address token, address receiveToken) internal {\r\n        if(!isBeneficiaryTokenWithdrawn[beneficiary][token]) {\r\n            // TODO: Extensive testing of these operations for edge cases and rounding issues:\r\n            uint256 shareRatio = SafeMath.div(SafeMath.mul(precision, totalShares), beneficiaryShares[beneficiary]);\r\n            uint256 share = SafeMath.div(SafeMath.mul(precision, totalTokensKnown[token]), shareRatio);\r\n            isBeneficiaryTokenWithdrawn[beneficiary][token] = true;\r\n            if(address(0) == token) {\r\n                require(beneficiary.send(share), \"Problem sending share\");\r\n            } else {\r\n                if(receiveToken != token) {\r\n                    if(address(0) == receiveToken) {\r\n                        receiveToken = KYBER_ETH_ADDRESS;\r\n                    }\r\n                    // Convert to desired token or ETH through Kyber\r\n                    IERC20(token).approve(KYBER_NETWORK_PROXY_ADDRESS, 0);\r\n                    IERC20(token).approve(KYBER_NETWORK_PROXY_ADDRESS, MAX_UINT);\r\n                    uint256 min_conversion_rate;\r\n                    uint256 result;\r\n                    (min_conversion_rate,) = KyberNetworkProxy(KYBER_NETWORK_PROXY_ADDRESS).getExpectedRate(token, receiveToken, share);\r\n                    result = KyberNetworkProxy(KYBER_NETWORK_PROXY_ADDRESS).tradeWithHint(token, share, receiveToken, beneficiary, MAX_UINT, min_conversion_rate, REFERAL_ADDRESS, '');\r\n                    require(result > 0, \"Failed to convert token through Kyber\");\r\n                } else {\r\n                    // Don't require token transfer to succeed, since some tokens don't follow spec.\r\n                    // TODO: Could use OpenZepelin SafeERC20 to guarantee transfer succeeded\r\n                    IERC20(token).transfer(beneficiary, share);\r\n                }\r\n            }\r\n            emit BeneficiaryWithdrawal(beneficiary, token, share);\r\n        }\r\n    }\r\n\r\n    // TODO: Possibly remove this\r\n    function addTrackedToken(address token) public onlyController {\r\n        require(address(0) != token, \"Token address is missing\");\r\n        emit TrackedTokenAdded(token);\r\n        trackedTokens.push(token);\r\n    }\r\n\r\n    function removeTrackedToken(address token) public onlyController {\r\n        require(address(0) != token, \"Token address is missing\");\r\n        uint256 index;\r\n        emit TrackedTokenRemoved(token);\r\n        // TODO: finish this\r\n        uint256 i;\r\n        for(i=0; i<trackedTokens.length; i++) {\r\n            if(trackedTokens[i] == token) {\r\n                index = i;\r\n                break;\r\n            }\r\n        }\r\n        if(index < trackedTokens.length-1) {\r\n            trackedTokens[i] = trackedTokens[trackedTokens.length-1];\r\n        }\r\n        // trackedTokens.length--;\r\n        trackedTokens.pop();\r\n    }\r\n\r\n\r\n    function oracleCallback(bool isDead) public onlyOracle notDead {\r\n        if(isDead) {\r\n            setUncertain();\r\n        }\r\n        //else {\r\n        //    setAlive();\r\n        //}\r\n    }\r\n\r\n    // With dead man's switch: Call after the check-in period has passed without the owner checking in\r\n    // With death oracle: Call after owner has been reported dead and the waiting period has passed to establish confirmation of death\r\n    function bringOutYourDead() public onlyMember {\r\n        setDead();\r\n    }\r\n\r\n    function imNotDeadYet() public onlyOwner {\r\n        setAlive();\r\n    }\r\n\r\n    function sendEth(address payable recipient, uint256 amount) public onlyOwner {\r\n        recipient.send(amount);\r\n    }\r\n\r\n    function sendToken(address payable recipient, address token, uint256 amount) public onlyOwner {\r\n        IERC20(token).transfer(recipient, amount);\r\n    }\r\n\r\n    /*\r\n    function execute(address target, uint256 amount, bytes data) {\r\n    }\r\n    */\r\n\r\n    function setAlive() internal notDead {\r\n        emit ConfirmationOfLife(msg.sender);\r\n        liveliness = Lifesigns.Alive;\r\n        declareDeadAfter = 0;\r\n        if(isDeadMansSwitchEnabled) {\r\n            deadMansSwitchLastCheckin = now;\r\n        }\r\n    }\r\n\r\n    function setUncertain() internal notDead {\r\n            emit ReportOfDeath(msg.sender);\r\n            liveliness = Lifesigns.Uncertain;\r\n            declareDeadAfter = now + uncertaintyPeriod;\r\n    }\r\n\r\n    function setDead() internal notDead {\r\n        // Check if conditions have been met to declare dead\r\n        if(liveliness == Lifesigns.Uncertain && declareDeadAfter != 0 && declareDeadAfter < now) {\r\n            // Oracle marked lifesigns as uncertain and enough time has passed. Okay to set owner as dead.\r\n        } else if(isDeadMansSwitchEnabled && deadMansSwitchLastCheckin + (deadMansSwitchCheckinSeconds) < now) {\r\n            // Deadmansswitch is enabled and timeout since last checkin has passed.  Okay to set owner as dead.\r\n        } else {\r\n            // Conditions have not been met.\r\n            revert(\"Not dead yet\");\r\n        }\r\n\r\n        // NOTE: This functionality will be enabled when the death oracle is fully implemented\r\n        // require(liveliness == Lifesigns.Uncertain, \"Owner has not been reported as dead yet\");\r\n        // require(declareDeadAfter != 0 && declareDeadAfter < now, \"Owner still has time to demonstrate life\");\r\n\r\n        // require(isDeadMansSwitchEnabled, \"Dead Man's Switch is not enabled\");\r\n        // require(deadMansSwitchLastCheckin + (deadMansSwitchCheckinSeconds) < now, \"Owner has checked-in as alive too recently\");\r\n\r\n        emit ConfirmationOfDeath();\r\n        liveliness = Lifesigns.Dead;\r\n    }\r\n\r\n}\r\n\r\nabstract contract KyberNetworkProxy {\r\n  function removeAlerter ( address alerter ) virtual external;\r\n  function enabled (  ) virtual external view returns ( bool );\r\n  function pendingAdmin (  ) virtual external view returns ( address );\r\n  function getOperators (  ) virtual external view returns ( address[] memory );\r\n  function tradeWithHint ( address src, uint256 srcAmount, address dest, address destAddress, uint256 maxDestAmount, uint256 minConversionRate, address walletId, bytes calldata hint ) virtual external payable returns ( uint256 );\r\n  function swapTokenToEther ( address token, uint256 srcAmount, uint256 minConversionRate ) virtual external returns ( uint256 );\r\n  function withdrawToken ( address token, uint256 amount, address sendTo ) virtual external;\r\n  function maxGasPrice (  ) virtual external view returns ( uint256 );\r\n  function addAlerter ( address newAlerter ) virtual external;\r\n  function kyberNetworkContract (  ) virtual external view returns ( address );\r\n  function getUserCapInWei ( address user ) virtual external view returns ( uint256 );\r\n  function swapTokenToToken ( address src, uint256 srcAmount, address dest, uint256 minConversionRate ) virtual external returns ( uint256 );\r\n  function transferAdmin ( address newAdmin ) virtual external;\r\n  function claimAdmin (  ) virtual external;\r\n  function swapEtherToToken ( address token, uint256 minConversionRate ) virtual external payable returns ( uint256 );\r\n  function transferAdminQuickly ( address newAdmin ) virtual external;\r\n  function getAlerters (  ) virtual external view returns ( address[] memory );\r\n  function getExpectedRate ( address src, address dest, uint256 srcQty ) virtual external view returns ( uint256 expectedRate, uint256 slippageRate );\r\n  function getUserCapInTokenWei ( address user, address token ) virtual external view returns ( uint256 );\r\n  function addOperator ( address newOperator ) virtual external;\r\n  function setKyberNetworkContract ( address _kyberNetworkContract ) virtual external;\r\n  function removeOperator ( address operator ) virtual external;\r\n  function info ( bytes32 field ) virtual external view returns ( uint256 );\r\n  function trade ( address src, uint256 srcAmount, address dest, address destAddress, uint256 maxDestAmount, uint256 minConversionRate, address walletId ) virtual external payable returns ( uint256 );\r\n  function withdrawEther ( uint256 amount, address sendTo ) virtual external;\r\n  function getBalance ( address token, address user ) virtual external view returns ( uint256 );\r\n  function admin (  ) virtual external view returns ( address );\r\n}\r\n",
  "sourcePath": "C:\\Users\\morgan\\PycharmProjects\\alfred-estate-contracts\\contracts\\AlfredEstate.sol",
  "compiler": {
    "name": "solc",
    "version": "0.6.1+commit.e6f7d5a4.Emscripten.clang"
  },
  "schemaVersion": "3.2.3",
  "updatedAt": "2020-08-02T04:09:53.591Z",
  "devdoc": {
    "methods": {
      "confirmTransaction(bytes32)": {
        "details": "Allows an executor or beneficiary to confirm a Safe recovery transaction.",
        "params": {
          "dataHash": "Safe transaction hash."
        }
      },
      "getDataHash(bytes)": {
        "details": "Returns hash of data encoding owner replacement.",
        "params": {
          "data": "Data payload."
        },
        "returns": {
          "_0": "Data hash."
        }
      },
      "isConfirmedByRequiredParties(bytes32)": {
        "details": "Returns if Safe transaction is a valid owner replacement transaction.",
        "params": {
          "dataHash": "Data hash."
        },
        "returns": {
          "_0": "Confirmation status."
        }
      },
      "recoverAccess(address,address,address)": {
        "details": "Returns if Safe transaction is a valid owner replacement transaction.",
        "params": {
          "newOwner": "New owner address.",
          "oldOwner": "Owner address to be replaced.",
          "prevOwner": "Owner that pointed to the owner to be replaced in the linked list"
        }
      }
    }
  },
  "userdoc": {
    "methods": {}
  }
}