{
  "contractName": "BringOutYourDead",
  "abi": [
    {
      "inputs": [],
      "stateMutability": "nonpayable",
      "type": "constructor"
    },
    {
      "anonymous": false,
      "inputs": [
        {
          "indexed": true,
          "internalType": "address",
          "name": "newBeneficiary",
          "type": "address"
        },
        {
          "indexed": true,
          "internalType": "uint256",
          "name": "shares",
          "type": "uint256"
        }
      ],
      "name": "AddedBeneficiary",
      "type": "event"
    },
    {
      "anonymous": false,
      "inputs": [
        {
          "indexed": true,
          "internalType": "uint256",
          "name": "newValue",
          "type": "uint256"
        }
      ],
      "name": "BeneficiariesRequiredForSafeRecoveryChanged",
      "type": "event"
    },
    {
      "anonymous": false,
      "inputs": [
        {
          "indexed": true,
          "internalType": "address",
          "name": "beneficiary",
          "type": "address"
        },
        {
          "indexed": true,
          "internalType": "address",
          "name": "token",
          "type": "address"
        },
        {
          "indexed": true,
          "internalType": "uint256",
          "name": "amount",
          "type": "uint256"
        }
      ],
      "name": "BeneficiaryWithdrawal",
      "type": "event"
    },
    {
      "anonymous": false,
      "inputs": [
        {
          "indexed": true,
          "internalType": "address",
          "name": "oldAddress",
          "type": "address"
        },
        {
          "indexed": true,
          "internalType": "address",
          "name": "newAddress",
          "type": "address"
        }
      ],
      "name": "ChangedBeneficiaryAddress",
      "type": "event"
    },
    {
      "anonymous": false,
      "inputs": [
        {
          "indexed": true,
          "internalType": "address",
          "name": "beneficiary",
          "type": "address"
        },
        {
          "indexed": true,
          "internalType": "uint256",
          "name": "oldShares",
          "type": "uint256"
        },
        {
          "indexed": true,
          "internalType": "uint256",
          "name": "newShares",
          "type": "uint256"
        }
      ],
      "name": "ChangedBeneficiaryShares",
      "type": "event"
    },
    {
      "anonymous": false,
      "inputs": [],
      "name": "ConfirmationOfDeath",
      "type": "event"
    },
    {
      "anonymous": false,
      "inputs": [
        {
          "indexed": true,
          "internalType": "address",
          "name": "reporter",
          "type": "address"
        }
      ],
      "name": "ConfirmationOfLife",
      "type": "event"
    },
    {
      "anonymous": false,
      "inputs": [
        {
          "indexed": true,
          "internalType": "uint256",
          "name": "newValue",
          "type": "uint256"
        }
      ],
      "name": "DeadMansSwitchCheckinSecondsChanged",
      "type": "event"
    },
    {
      "anonymous": false,
      "inputs": [
        {
          "indexed": true,
          "internalType": "address",
          "name": "oldExecutor",
          "type": "address"
        },
        {
          "indexed": true,
          "internalType": "address",
          "name": "newExecutor",
          "type": "address"
        }
      ],
      "name": "ExecutorChanged",
      "type": "event"
    },
    {
      "anonymous": false,
      "inputs": [
        {
          "indexed": true,
          "internalType": "address",
          "name": "gnosisSafe",
          "type": "address"
        },
        {
          "indexed": true,
          "internalType": "address",
          "name": "newSafe",
          "type": "address"
        }
      ],
      "name": "GnosisSafeChanged",
      "type": "event"
    },
    {
      "anonymous": false,
      "inputs": [
        {
          "indexed": true,
          "internalType": "bool",
          "name": "newValue",
          "type": "bool"
        }
      ],
      "name": "IsDeadMansSwitchEnabledChanged",
      "type": "event"
    },
    {
      "anonymous": false,
      "inputs": [
        {
          "indexed": true,
          "internalType": "bool",
          "name": "newValue",
          "type": "bool"
        }
      ],
      "name": "IsExecutorRequiredForSafeRecoveryChanged",
      "type": "event"
    },
    {
      "anonymous": false,
      "inputs": [
        {
          "indexed": true,
          "internalType": "address",
          "name": "oldOracle",
          "type": "address"
        },
        {
          "indexed": true,
          "internalType": "address",
          "name": "newOracle",
          "type": "address"
        }
      ],
      "name": "OracleChanged",
      "type": "event"
    },
    {
      "anonymous": false,
      "inputs": [
        {
          "indexed": true,
          "internalType": "address",
          "name": "previousOwner",
          "type": "address"
        },
        {
          "indexed": true,
          "internalType": "address",
          "name": "newOwner",
          "type": "address"
        }
      ],
      "name": "OwnershipTransferred",
      "type": "event"
    },
    {
      "anonymous": false,
      "inputs": [
        {
          "indexed": true,
          "internalType": "address",
          "name": "formerBeneficiary",
          "type": "address"
        },
        {
          "indexed": true,
          "internalType": "uint256",
          "name": "removedShares",
          "type": "uint256"
        }
      ],
      "name": "RemovedBeneficiary",
      "type": "event"
    },
    {
      "anonymous": false,
      "inputs": [
        {
          "indexed": true,
          "internalType": "address",
          "name": "reporter",
          "type": "address"
        }
      ],
      "name": "ReportOfDeath",
      "type": "event"
    },
    {
      "anonymous": false,
      "inputs": [
        {
          "indexed": true,
          "internalType": "address",
          "name": "token",
          "type": "address"
        }
      ],
      "name": "TrackedTokenAdded",
      "type": "event"
    },
    {
      "anonymous": false,
      "inputs": [
        {
          "indexed": true,
          "internalType": "address",
          "name": "token",
          "type": "address"
        }
      ],
      "name": "TrackedTokenRemoved",
      "type": "event"
    },
    {
      "inputs": [],
      "name": "KYBER_NETWORK_PROXY_ADDRESS",
      "outputs": [
        {
          "internalType": "address",
          "name": "",
          "type": "address"
        }
      ],
      "stateMutability": "view",
      "type": "function",
      "constant": true
    },
    {
      "inputs": [
        {
          "internalType": "uint256",
          "name": "",
          "type": "uint256"
        }
      ],
      "name": "beneficiaries",
      "outputs": [
        {
          "internalType": "address",
          "name": "",
          "type": "address"
        }
      ],
      "stateMutability": "view",
      "type": "function",
      "constant": true
    },
    {
      "inputs": [],
      "name": "beneficiariesRequiredForSafeRecovery",
      "outputs": [
        {
          "internalType": "uint256",
          "name": "",
          "type": "uint256"
        }
      ],
      "stateMutability": "view",
      "type": "function",
      "constant": true
    },
    {
      "inputs": [
        {
          "internalType": "address",
          "name": "",
          "type": "address"
        }
      ],
      "name": "beneficiaryIndex",
      "outputs": [
        {
          "internalType": "uint256",
          "name": "",
          "type": "uint256"
        }
      ],
      "stateMutability": "view",
      "type": "function",
      "constant": true
    },
    {
      "inputs": [
        {
          "internalType": "address",
          "name": "",
          "type": "address"
        }
      ],
      "name": "beneficiaryShares",
      "outputs": [
        {
          "internalType": "uint256",
          "name": "",
          "type": "uint256"
        }
      ],
      "stateMutability": "view",
      "type": "function",
      "constant": true
    },
    {
      "inputs": [],
      "name": "deadMansSwitchCheckinSeconds",
      "outputs": [
        {
          "internalType": "uint256",
          "name": "",
          "type": "uint256"
        }
      ],
      "stateMutability": "view",
      "type": "function",
      "constant": true
    },
    {
      "inputs": [],
      "name": "deadMansSwitchLastCheckin",
      "outputs": [
        {
          "internalType": "uint256",
          "name": "",
          "type": "uint256"
        }
      ],
      "stateMutability": "view",
      "type": "function",
      "constant": true
    },
    {
      "inputs": [],
      "name": "declareDeadAfter",
      "outputs": [
        {
          "internalType": "uint256",
          "name": "",
          "type": "uint256"
        }
      ],
      "stateMutability": "view",
      "type": "function",
      "constant": true
    },
    {
      "inputs": [],
      "name": "executor",
      "outputs": [
        {
          "internalType": "address",
          "name": "",
          "type": "address"
        }
      ],
      "stateMutability": "view",
      "type": "function",
      "constant": true
    },
    {
      "inputs": [],
      "name": "gnosisSafe",
      "outputs": [
        {
          "internalType": "address",
          "name": "",
          "type": "address"
        }
      ],
      "stateMutability": "view",
      "type": "function",
      "constant": true
    },
    {
      "inputs": [
        {
          "internalType": "address",
          "name": "",
          "type": "address"
        },
        {
          "internalType": "address",
          "name": "",
          "type": "address"
        }
      ],
      "name": "isBeneficiaryTokenWithdrawn",
      "outputs": [
        {
          "internalType": "bool",
          "name": "",
          "type": "bool"
        }
      ],
      "stateMutability": "view",
      "type": "function",
      "constant": true
    },
    {
      "inputs": [
        {
          "internalType": "bytes32",
          "name": "",
          "type": "bytes32"
        },
        {
          "internalType": "address",
          "name": "",
          "type": "address"
        }
      ],
      "name": "isConfirmed",
      "outputs": [
        {
          "internalType": "bool",
          "name": "",
          "type": "bool"
        }
      ],
      "stateMutability": "view",
      "type": "function",
      "constant": true
    },
    {
      "inputs": [],
      "name": "isDeadMansSwitchEnabled",
      "outputs": [
        {
          "internalType": "bool",
          "name": "",
          "type": "bool"
        }
      ],
      "stateMutability": "view",
      "type": "function",
      "constant": true
    },
    {
      "inputs": [
        {
          "internalType": "bytes32",
          "name": "",
          "type": "bytes32"
        }
      ],
      "name": "isExecuted",
      "outputs": [
        {
          "internalType": "bool",
          "name": "",
          "type": "bool"
        }
      ],
      "stateMutability": "view",
      "type": "function",
      "constant": true
    },
    {
      "inputs": [],
      "name": "isExecutorRequiredForSafeRecovery",
      "outputs": [
        {
          "internalType": "bool",
          "name": "",
          "type": "bool"
        }
      ],
      "stateMutability": "view",
      "type": "function",
      "constant": true
    },
    {
      "inputs": [],
      "name": "liveliness",
      "outputs": [
        {
          "internalType": "enum BringOutYourDead.Lifesigns",
          "name": "",
          "type": "uint8"
        }
      ],
      "stateMutability": "view",
      "type": "function",
      "constant": true
    },
    {
      "inputs": [],
      "name": "oracle",
      "outputs": [
        {
          "internalType": "address",
          "name": "",
          "type": "address"
        }
      ],
      "stateMutability": "view",
      "type": "function",
      "constant": true
    },
    {
      "inputs": [],
      "name": "owner",
      "outputs": [
        {
          "internalType": "address",
          "name": "",
          "type": "address"
        }
      ],
      "stateMutability": "view",
      "type": "function",
      "constant": true
    },
    {
      "inputs": [],
      "name": "totalShares",
      "outputs": [
        {
          "internalType": "uint256",
          "name": "",
          "type": "uint256"
        }
      ],
      "stateMutability": "view",
      "type": "function",
      "constant": true
    },
    {
      "inputs": [
        {
          "internalType": "address",
          "name": "",
          "type": "address"
        }
      ],
      "name": "totalTokensKnown",
      "outputs": [
        {
          "internalType": "uint256",
          "name": "",
          "type": "uint256"
        }
      ],
      "stateMutability": "view",
      "type": "function",
      "constant": true
    },
    {
      "inputs": [
        {
          "internalType": "uint256",
          "name": "",
          "type": "uint256"
        }
      ],
      "name": "trackedTokens",
      "outputs": [
        {
          "internalType": "address",
          "name": "",
          "type": "address"
        }
      ],
      "stateMutability": "view",
      "type": "function",
      "constant": true
    },
    {
      "inputs": [],
      "name": "uncertaintyPeriod",
      "outputs": [
        {
          "internalType": "uint256",
          "name": "",
          "type": "uint256"
        }
      ],
      "stateMutability": "view",
      "type": "function",
      "constant": true
    },
    {
      "stateMutability": "payable",
      "type": "receive",
      "payable": true
    },
    {
      "inputs": [
        {
          "internalType": "bytes32",
          "name": "dataHash",
          "type": "bytes32"
        }
      ],
      "name": "confirmTransaction",
      "outputs": [],
      "stateMutability": "nonpayable",
      "type": "function"
    },
    {
      "inputs": [
        {
          "internalType": "address",
          "name": "prevOwner",
          "type": "address"
        },
        {
          "internalType": "address",
          "name": "oldOwner",
          "type": "address"
        },
        {
          "internalType": "address",
          "name": "newOwner",
          "type": "address"
        }
      ],
      "name": "recoverAccess",
      "outputs": [],
      "stateMutability": "nonpayable",
      "type": "function"
    },
    {
      "inputs": [
        {
          "internalType": "bytes32",
          "name": "dataHash",
          "type": "bytes32"
        }
      ],
      "name": "isConfirmedByRequiredParties",
      "outputs": [
        {
          "internalType": "bool",
          "name": "",
          "type": "bool"
        }
      ],
      "stateMutability": "view",
      "type": "function",
      "constant": true
    },
    {
      "inputs": [
        {
          "internalType": "bytes",
          "name": "data",
          "type": "bytes"
        }
      ],
      "name": "getDataHash",
      "outputs": [
        {
          "internalType": "bytes32",
          "name": "",
          "type": "bytes32"
        }
      ],
      "stateMutability": "pure",
      "type": "function",
      "constant": true
    },
    {
      "inputs": [],
      "name": "gnosisSafeSetup",
      "outputs": [],
      "stateMutability": "nonpayable",
      "type": "function"
    },
    {
      "inputs": [
        {
          "internalType": "address",
          "name": "newSafe",
          "type": "address"
        }
      ],
      "name": "setGnosisSafe",
      "outputs": [],
      "stateMutability": "nonpayable",
      "type": "function"
    },
    {
      "inputs": [
        {
          "internalType": "bool",
          "name": "newValue",
          "type": "bool"
        }
      ],
      "name": "setIsExecutorRequiredForSafeRecovery",
      "outputs": [],
      "stateMutability": "nonpayable",
      "type": "function"
    },
    {
      "inputs": [
        {
          "internalType": "uint256",
          "name": "newValue",
          "type": "uint256"
        }
      ],
      "name": "setBeneficiariesRequiredForSafeRecovery",
      "outputs": [],
      "stateMutability": "nonpayable",
      "type": "function"
    },
    {
      "inputs": [
        {
          "internalType": "bool",
          "name": "newValue",
          "type": "bool"
        }
      ],
      "name": "setIsDeadMansSwitchEnabled",
      "outputs": [],
      "stateMutability": "nonpayable",
      "type": "function"
    },
    {
      "inputs": [
        {
          "internalType": "uint256",
          "name": "newValue",
          "type": "uint256"
        }
      ],
      "name": "setDeadMansSwitchCheckinSeconds",
      "outputs": [],
      "stateMutability": "nonpayable",
      "type": "function"
    },
    {
      "inputs": [
        {
          "internalType": "address",
          "name": "newOwner",
          "type": "address"
        }
      ],
      "name": "transferOwnership",
      "outputs": [],
      "stateMutability": "nonpayable",
      "type": "function"
    },
    {
      "inputs": [
        {
          "internalType": "address",
          "name": "newOracle",
          "type": "address"
        }
      ],
      "name": "changeOracle",
      "outputs": [],
      "stateMutability": "nonpayable",
      "type": "function"
    },
    {
      "inputs": [
        {
          "internalType": "address",
          "name": "newExecutor",
          "type": "address"
        }
      ],
      "name": "changeExecutor",
      "outputs": [],
      "stateMutability": "nonpayable",
      "type": "function"
    },
    {
      "inputs": [],
      "name": "getBeneficiariesDetails",
      "outputs": [
        {
          "components": [
            {
              "internalType": "address",
              "name": "who",
              "type": "address"
            },
            {
              "internalType": "uint256",
              "name": "shares",
              "type": "uint256"
            }
          ],
          "internalType": "struct BringOutYourDead.ShareHolder[]",
          "name": "beneficiaryDetails",
          "type": "tuple[]"
        }
      ],
      "stateMutability": "view",
      "type": "function",
      "constant": true
    },
    {
      "inputs": [
        {
          "internalType": "address",
          "name": "beneficiary",
          "type": "address"
        },
        {
          "internalType": "address",
          "name": "token",
          "type": "address"
        }
      ],
      "name": "getBeneficiaryBalance",
      "outputs": [
        {
          "internalType": "uint256",
          "name": "shareBalance",
          "type": "uint256"
        }
      ],
      "stateMutability": "view",
      "type": "function",
      "constant": true
    },
    {
      "inputs": [
        {
          "internalType": "address",
          "name": "newBeneficiary",
          "type": "address"
        },
        {
          "internalType": "uint256",
          "name": "shares",
          "type": "uint256"
        }
      ],
      "name": "addBeneficiary",
      "outputs": [],
      "stateMutability": "nonpayable",
      "type": "function"
    },
    {
      "inputs": [
        {
          "internalType": "address",
          "name": "beneficiary",
          "type": "address"
        }
      ],
      "name": "removeBeneficiary",
      "outputs": [],
      "stateMutability": "nonpayable",
      "type": "function"
    },
    {
      "inputs": [
        {
          "internalType": "address",
          "name": "beneficiary",
          "type": "address"
        },
        {
          "internalType": "uint256",
          "name": "newShares",
          "type": "uint256"
        }
      ],
      "name": "changeBeneficiaryShares",
      "outputs": [],
      "stateMutability": "nonpayable",
      "type": "function"
    },
    {
      "inputs": [
        {
          "internalType": "address",
          "name": "oldAddress",
          "type": "address"
        },
        {
          "internalType": "address",
          "name": "newAddress",
          "type": "address"
        }
      ],
      "name": "changeBeneficiaryAddress",
      "outputs": [],
      "stateMutability": "nonpayable",
      "type": "function"
    },
    {
      "inputs": [],
      "name": "claimEthShares",
      "outputs": [],
      "stateMutability": "nonpayable",
      "type": "function"
    },
    {
      "inputs": [
        {
          "internalType": "address",
          "name": "token",
          "type": "address"
        }
      ],
      "name": "claimTokenShares",
      "outputs": [],
      "stateMutability": "nonpayable",
      "type": "function"
    },
    {
      "inputs": [
        {
          "internalType": "address",
          "name": "token",
          "type": "address"
        }
      ],
      "name": "claimTokenSharesAsEth",
      "outputs": [],
      "stateMutability": "nonpayable",
      "type": "function"
    },
    {
      "inputs": [],
      "name": "distributeEthShares",
      "outputs": [],
      "stateMutability": "nonpayable",
      "type": "function"
    },
    {
      "inputs": [
        {
          "internalType": "address",
          "name": "token",
          "type": "address"
        }
      ],
      "name": "distributeTokenShares",
      "outputs": [],
      "stateMutability": "nonpayable",
      "type": "function"
    },
    {
      "inputs": [
        {
          "internalType": "address",
          "name": "token",
          "type": "address"
        }
      ],
      "name": "distributeTokenSharesAsEth",
      "outputs": [],
      "stateMutability": "nonpayable",
      "type": "function"
    },
    {
      "inputs": [
        {
          "internalType": "address",
          "name": "token",
          "type": "address"
        }
      ],
      "name": "addTrackedToken",
      "outputs": [],
      "stateMutability": "nonpayable",
      "type": "function"
    },
    {
      "inputs": [
        {
          "internalType": "address",
          "name": "token",
          "type": "address"
        }
      ],
      "name": "removeTrackedToken",
      "outputs": [],
      "stateMutability": "nonpayable",
      "type": "function"
    },
    {
      "inputs": [
        {
          "internalType": "bool",
          "name": "isDead",
          "type": "bool"
        }
      ],
      "name": "oracleCallback",
      "outputs": [],
      "stateMutability": "nonpayable",
      "type": "function"
    },
    {
      "inputs": [],
      "name": "bringOutYourDead",
      "outputs": [],
      "stateMutability": "nonpayable",
      "type": "function"
    },
    {
      "inputs": [],
      "name": "imNotDeadYet",
      "outputs": [],
      "stateMutability": "nonpayable",
      "type": "function"
    },
    {
      "inputs": [
        {
          "internalType": "address payable",
          "name": "recipient",
          "type": "address"
        },
        {
          "internalType": "uint256",
          "name": "amount",
          "type": "uint256"
        }
      ],
      "name": "sendEth",
      "outputs": [],
      "stateMutability": "nonpayable",
      "type": "function"
    },
    {
      "inputs": [
        {
          "internalType": "address payable",
          "name": "recipient",
          "type": "address"
        },
        {
          "internalType": "address",
          "name": "token",
          "type": "address"
        },
        {
          "internalType": "uint256",
          "name": "amount",
          "type": "uint256"
        }
      ],
      "name": "sendToken",
      "outputs": [],
      "stateMutability": "nonpayable",
      "type": "function"
    }
  ],
  "bytecode": "0x6080604052600080546001600160a01b03191673818e6fecd516ecc3849daf6845e3ec868087b7551790556340000000600b556249d400600f5534801561004557600080fd5b50600180546001600160a01b03191633178155600d805460ff199081169091556010805490911682179055601155613cad806100826000396000f3fe6080604052600436106103595760003560e01c806389dcfbb1116101bb578063c34c08e5116100f7578063e6b5916a11610095578063efeb5e581161006f578063efeb5e5814610920578063f2fde38b14610940578063fef11a9514610960578063ff2dc9a81461098057610360565b8063e6b5916a146108cb578063e8dd63cb146108eb578063efa58fb21461090b57610360565b8063c95b7204116100d1578063c95b72041461084b578063dbb1815d1461086b578063dbe6e9871461088b578063e52cb36a146108ab57610360565b8063c34c08e514610801578063c820b39614610816578063c8544f451461083657610360565b8063a62d984d11610164578063ae68b0561161013e578063ae68b05614610781578063b1efd102146107a1578063b79ffaff146107c1578063c3085a3e146107e157610360565b8063a62d984d1461072a578063a76d143e1461074a578063a84173ae1461076c57610360565b806396074e701161019557806396074e70146106d55780639665b658146106f5578063a46f0c861461071557610360565b806389dcfbb11461068b5780638da5cb5b146106ab5780638ed36355146106c057610360565b806349dcbc5e1161029557806362520a0a1161023357806379716e431161020d57806379716e43146106095780637b022e74146106295780637dc0d1d0146106495780638305368a1461066b57610360565b806362520a0a146105bf5780636b4cfc37146105d457806377231eaa146105e957610360565b80634d757df61161026f5780634d757df614610548578063579bb4651461056a57806359633a1c1461057f5780635a4de16d1461059f57610360565b806349dcbc5e146104e85780634b552d86146105085780634bba98c81461052857610360565b8063310dd0ad116103025780633a98ef39116102dc5780633a98ef3914610489578063400d99d31461049e57806346cca55c146104b357806347c421b5146104c857610360565b8063310dd0ad14610434578063319576b514610449578063391e91de1461046957610360565b8063260292441161033357806326029244146103c75780632fdcfbd2146103e7578063310924511461040757610360565b806306096c7c14610365578063123ca7b91461037c5780631932d6c1146103a757610360565b3661036057005b600080fd5b34801561037157600080fd5b5061037a610995565b005b34801561038857600080fd5b50610391610a15565b60405161039e9190613317565b60405180910390f35b3480156103b357600080fd5b5061037a6103c2366004612f9f565b610a1b565b3480156103d357600080fd5b5061037a6103e2366004612f74565b610c1b565b3480156103f357600080fd5b5061037a610402366004612f34565b610d80565b34801561041357600080fd5b50610427610422366004612f9f565b610e76565b60405161039e919061330c565b34801561044057600080fd5b5061037a610e96565b34801561045557600080fd5b5061037a610464366004612f18565b610ea0565b34801561047557600080fd5b5061037a610484366004612f18565b610f4f565b34801561049557600080fd5b50610391610ff9565b3480156104aa57600080fd5b50610427610fff565b3480156104bf57600080fd5b50610391611008565b3480156104d457600080fd5b5061037a6104e3366004612f18565b61100e565b3480156104f457600080fd5b5061037a610503366004612f74565b611100565b34801561051457600080fd5b5061037a610523366004613021565b611199565b34801561053457600080fd5b5061037a610543366004612f18565b611249565b34801561055457600080fd5b5061055d6112bc565b60405161039e9190613320565b34801561057657600080fd5b5061037a6112c5565b34801561058b57600080fd5b5061037a61059a366004612f18565b61133d565b3480156105ab57600080fd5b5061037a6105ba366004613059565b61154b565b3480156105cb57600080fd5b506104276115eb565b3480156105e057600080fd5b5061037a6115f4565b3480156105f557600080fd5b5061037a610604366004612fd7565b6115fe565b34801561061557600080fd5b5061037a610624366004613059565b6117e7565b34801561063557600080fd5b5061037a610644366004613021565b6118a9565b34801561065557600080fd5b5061065e611912565b60405161039e91906131b6565b34801561067757600080fd5b5061065e610686366004613059565b611921565b34801561069757600080fd5b5061037a6106a6366004612f18565b611948565b3480156106b757600080fd5b5061065e611a7a565b3480156106cc57600080fd5b5061037a611a89565b3480156106e157600080fd5b5061037a6106f0366004612f74565b611b2b565b34801561070157600080fd5b5061037a610710366004612f18565b611cc1565b34801561072157600080fd5b5061065e611d97565b34801561073657600080fd5b5061037a610745366004612f18565b611da6565b34801561075657600080fd5b5061075f611f7e565b60405161039e91906132b4565b34801561077857600080fd5b5061065e61202e565b34801561078d57600080fd5b5061039161079c366004613095565b61203d565b3480156107ad57600080fd5b506103916107bc366004612f9f565b61204a565b3480156107cd57600080fd5b506104276107dc366004613071565b6121a9565b3480156107ed57600080fd5b5061037a6107fc366004612f18565b6121c9565b34801561080d57600080fd5b5061065e612295565b34801561082257600080fd5b5061037a610831366004613059565b6122a4565b34801561084257600080fd5b50610391612361565b34801561085757600080fd5b50610427610866366004613059565b612367565b34801561087757600080fd5b50610391610886366004612f18565b61244f565b34801561089757600080fd5b506103916108a6366004612f18565b612461565b3480156108b757600080fd5b506104276108c6366004613059565b612473565b3480156108d757600080fd5b5061037a6108e6366004613021565b612488565b3480156108f757600080fd5b50610391610906366004612f18565b612545565b34801561091757600080fd5b50610391612557565b34801561092c57600080fd5b5061065e61093b366004613059565b61255d565b34801561094c57600080fd5b5061037a61095b366004612f18565b61256a565b34801561096c57600080fd5b5061037a61097b366004612f18565b61265c565b34801561098c57600080fd5b506103916126cd565b6001546001600160a01b03163314806109b857506002546001600160a01b031633145b806109cd57506003546001600160a01b031633145b806109e657503360009081526007602052604090205415155b610a0b5760405162461bcd60e51b8152600401610a029061370a565b60405180910390fd5b610a136126d3565b565b600f5481565b81336001600160a01b0382161415610a67576001600160a01b038116600090815260076020526040902054610a625760405162461bcd60e51b8152600401610a0290613928565b610ae8565b6001600d5460ff166002811115610a7a57fe5b14610abe576001546001600160a01b0316331480610aa257506002546001600160a01b031633145b610a625760405162461bcd60e51b8152600401610a029061337e565b6003546001600160a01b03163314610ae85760405162461bcd60e51b8152600401610a0290613645565b6001600160a01b038316610b0e5760405162461bcd60e51b8152600401610a0290613bcf565b6001600160a01b038216610b345760405162461bcd60e51b8152600401610a02906136c8565b6001600160a01b038316600090815260076020526040902054610b695760405162461bcd60e51b8152600401610a029061381d565b6001600160a01b038316600090815260076020908152604080832054600690925290912054600580546000199093019285919084908110610ba657fe5b600091825260208083209190910180546001600160a01b0319166001600160a01b0394851617905587831680835260069091526040808320839055928716808352838320859055925190917f7d78e1b087362efc35dc4f465436d523b17cab3dfb5c1e476383970f904064a991a35050505050565b6001600d5460ff166002811115610c2e57fe5b14610c77576001546001600160a01b0316331480610c5657506002546001600160a01b031633145b610c725760405162461bcd60e51b8152600401610a0290613741565b610ca1565b6003546001600160a01b03163314610ca15760405162461bcd60e51b8152600401610a0290613a62565b6001600160a01b038216610cc75760405162461bcd60e51b8152600401610a0290613a2b565b6001600160a01b038216600090815260076020526040902054610cfc5760405162461bcd60e51b8152600401610a0290613928565b6001600160a01b038216600090815260066020526040902054600a54610d229082612783565b600a819055610d3190836127cc565b600a556001600160a01b038316600081815260066020526040808220859055518492849290917fab6a43a57d39fe3786b868af47db6a5105ba36308ed374d1e4cd5464480403729190a4505050565b6001546001600160a01b0316331480610da357506002546001600160a01b031633145b610dbf5760405162461bcd60e51b8152600401610a0290613467565b6001600d5460ff166002811115610dd257fe5b1415610df05760405162461bcd60e51b8152600401610a0290613543565b60405163a9059cbb60e01b81526001600160a01b0383169063a9059cbb90610e1e90869085906004016131ca565b602060405180830381600087803b158015610e3857600080fd5b505af1158015610e4c573d6000803e3d6000fd5b505050506040513d601f19601f82011682018060405250610e70919081019061303d565b50505050565b600860209081526000928352604080842090915290825290205460ff1681565b610a136000611249565b6001600d5460ff166002811115610eb357fe5b14610ed05760405162461bcd60e51b8152600401610a02906139e7565b6003546001600160a01b03163314610efa5760405162461bcd60e51b8152600401610a029061360e565b610f03816127f1565b60005b600554811015610f4b57600060058281548110610f1f57fe5b60009182526020822001546001600160a01b03169150610f4290829085906128d4565b50600101610f06565b5050565b6001600d5460ff166002811115610f6257fe5b14610f7f5760405162461bcd60e51b8152600401610a02906139e7565b6003546001600160a01b03163314610fa95760405162461bcd60e51b8152600401610a029061360e565b610fb2816127f1565b60005b600554811015610f4b57600060058281548110610fce57fe5b6000918252602090912001546001600160a01b03169050610ff08184806128d4565b50600101610fb5565b600a5481565b60145460ff1681565b60115481565b6001546001600160a01b031633148061103157506002546001600160a01b031633145b61104d5760405162461bcd60e51b8152600401610a0290613467565b6001600d5460ff16600281111561106057fe5b141561107e5760405162461bcd60e51b8152600401610a0290613543565b6001600160a01b0381166110a45760405162461bcd60e51b8152600401610a029061349e565b6004546040516001600160a01b038084169216907f05cd89403c6bdeac21c2ff33de395121a31fa1bc2bf3adf4825f1f86e79969dd90600090a3600480546001600160a01b0319166001600160a01b0392909216919091179055565b6001546001600160a01b031633148061112357506002546001600160a01b031633145b61113f5760405162461bcd60e51b8152600401610a0290613467565b6001600d5460ff16600281111561115257fe5b14156111705760405162461bcd60e51b8152600401610a0290613543565b6040516001600160a01b0383169082156108fc029083906000818181858888f150505050505050565b6001546001600160a01b03163314806111bc57506002546001600160a01b031633145b6111d85760405162461bcd60e51b8152600401610a0290613467565b6001600d5460ff1660028111156111eb57fe5b14156112095760405162461bcd60e51b8152600401610a0290613543565b604051811515907fe92d988a3f39703b702f345b798775a34ed2cb65eaa89f1b8c1df7a159969bf290600090a26010805460ff1916911515919091179055565b6001600d5460ff16600281111561125c57fe5b146112795760405162461bcd60e51b8152600401610a02906139e7565b336000908152600760205260409020546112a55760405162461bcd60e51b8152600401610a0290613868565b6112ae816127f1565b6112b93382836128d4565b50565b600d5460ff1681565b6001546001600160a01b03163314806112e857506002546001600160a01b031633145b6113045760405162461bcd60e51b8152600401610a0290613467565b6001600d5460ff16600281111561131757fe5b14156113355760405162461bcd60e51b8152600401610a0290613543565b610a13612d4a565b6001600d5460ff16600281111561135057fe5b14611399576001546001600160a01b031633148061137857506002546001600160a01b031633145b6113945760405162461bcd60e51b8152600401610a0290613741565b6113c3565b6003546001600160a01b031633146113c35760405162461bcd60e51b8152600401610a0290613a62565b6001600160a01b0381166113e95760405162461bcd60e51b8152600401610a0290613a2b565b6001600160a01b03811660009081526007602052604090205461141e5760405162461bcd60e51b8152600401610a0290613928565b6001600160a01b038116600090815260076020526040902054805b6005548110156114aa576005816001018154811061145357fe5b600091825260209091200154600580546001600160a01b03909216918390811061147957fe5b600091825260209091200180546001600160a01b0319166001600160a01b0392909216919091179055600101611439565b5060058054806114b657fe5b60008281526020808220830160001990810180546001600160a01b03191690559092019092556001600160a01b0384168252600781526040808320839055600690915281208054919055600a5461150d9082612783565b600a5560405181906001600160a01b038516907f18d8b6ccc58a1593daafb7383d8b38c330774fcae8f0720cc5914e1dc13f735790600090a3505050565b6001546001600160a01b031633148061156e57506002546001600160a01b031633145b61158a5760405162461bcd60e51b8152600401610a0290613467565b6001600d5460ff16600281111561159d57fe5b14156115bb5760405162461bcd60e51b8152600401610a0290613543565b60405181907f11bd7215a9bb39d2998de6705c41dc503e57c8f261febc68faa7166d375057ce90600090a2601155565b60105460ff1681565b610a136000610f4f565b6001546001600160a01b031633148061162157506002546001600160a01b031633145b8061163657506003546001600160a01b031633145b8061164f57503360009081526007602052604090205415155b61166b5760405162461bcd60e51b8152600401610a029061370a565b6060838383604051602401611682939291906131e3565b60408051601f198184030181529190526020810180517bffffffffffffffffffffffffffffffffffffffffffffffffffffffff1663e318b52b60e01b179052905060006116ce8261203d565b60008181526012602052604090205490915060ff16156117005760405162461bcd60e51b8152600401610a0290613abf565b61170981612367565b6117255760405162461bcd60e51b8152600401610a0290613b2d565b600081815260126020526040808220805460ff19166001179055600254905163468721a760e01b81526001600160a01b039091169163468721a7916117729184918790829060040161322a565b602060405180830381600087803b15801561178c57600080fd5b505af11580156117a0573d6000803e3d6000fd5b505050506040513d601f19601f820116820180604052506117c4919081019061303d565b6117e05760405162461bcd60e51b8152600401610a029061350c565b5050505050565b6001546001600160a01b031633148061180a57506002546001600160a01b031633145b8061181f57506003546001600160a01b031633145b8061183857503360009081526007602052604090205415155b6118545760405162461bcd60e51b8152600401610a029061370a565b60008181526012602052604090205460ff16156118835760405162461bcd60e51b8152600401610a0290613abf565b60009081526013602090815260408083203384529091529020805460ff19166001179055565b6004546001600160a01b031633146118d35760405162461bcd60e51b8152600401610a0290613347565b6001600d5460ff1660028111156118e657fe5b14156119045760405162461bcd60e51b8152600401610a0290613543565b80156112b9576112b9612dc6565b6004546001600160a01b031681565b600c818154811061192e57fe5b6000918252602090912001546001600160a01b0316905081565b6001600d5460ff16600281111561195b57fe5b146119a4576001546001600160a01b031633148061198357506002546001600160a01b031633145b61199f5760405162461bcd60e51b8152600401610a0290613741565b6119ce565b6003546001600160a01b031633146119ce5760405162461bcd60e51b8152600401610a0290613a62565b6001600160a01b0381166119f45760405162461bcd60e51b8152600401610a0290613c11565b6040516001600160a01b038216907f4b2fda650ccc24e0402aed618ae44d4600945a05d5801363ff07928e94a3841790600090a2600c80546001810182556000919091527fdf6966c971051c3d54ec59162606531493a51404a002842f56009d7e5cf4a8c70180546001600160a01b0319166001600160a01b0392909216919091179055565b6001546001600160a01b031681565b6001546001600160a01b0316331480611aac57506002546001600160a01b031633145b611ac85760405162461bcd60e51b8152600401610a0290613467565b6001600d5460ff166002811115611adb57fe5b1415611af95760405162461bcd60e51b8152600401610a0290613543565b6002546001600160a01b031615611b225760405162461bcd60e51b8152600401610a02906139b0565b610a13336121c9565b6001600d5460ff166002811115611b3e57fe5b14611b87576001546001600160a01b0316331480611b6657506002546001600160a01b031633145b611b825760405162461bcd60e51b8152600401610a0290613741565b611bb1565b6003546001600160a01b03163314611bb15760405162461bcd60e51b8152600401610a0290613a62565b6001600160a01b038216611bd75760405162461bcd60e51b8152600401610a0290613af6565b6001600160a01b03821660009081526007602052604090205415611c0d5760405162461bcd60e51b8152600401610a02906135b1565b600580546001810182557f036b6384b5eca791c62761152d0c79bb0604c104a5fb6f4eb0703f3154bb3db00180546001600160a01b0319166001600160a01b038516908117909155905460009182526007602090815260408084208390556006909152909120829055600a54611c8390836127cc565b600a5560405182906001600160a01b038516907f7767ff1f8834c1c59e68c9df939beb0c0f5b888ea4ac3cf352f242b53ea5cf8590600090a3505050565b6001546001600160a01b0316331480611ce457506002546001600160a01b031633145b80611cf957506003546001600160a01b031633145b611d155760405162461bcd60e51b8152600401610a02906138e5565b6001600160a01b038116611d3b5760405162461bcd60e51b8152600401610a02906133eb565b6003546040516001600160a01b038084169216907f54a57d849b9d8af1a8883dad9184e599aa67ef60814f6c91db7f864abd4325fc90600090a3600380546001600160a01b0319166001600160a01b0392909216919091179055565b6000546001600160a01b031681565b6001600d5460ff166002811115611db957fe5b14611e02576001546001600160a01b0316331480611de157506002546001600160a01b031633145b611dfd5760405162461bcd60e51b8152600401610a0290613741565b611e2c565b6003546001600160a01b03163314611e2c5760405162461bcd60e51b8152600401610a0290613a62565b6001600160a01b038116611e525760405162461bcd60e51b8152600401610a0290613c11565b6040516000906001600160a01b038316907fcd537cd377c78753c3dfd24e9b414be383cf1a4089576d0cb19daad2f61298ab908390a260005b600c54811015611ed757826001600160a01b0316600c8281548110611eac57fe5b6000918252602090912001546001600160a01b03161415611ecf57809150611ed7565b600101611e8b565b600c5460001901821015611f4c57600c80546000198101908110611ef757fe5b600091825260209091200154600c80546001600160a01b039092169183908110611f1d57fe5b9060005260206000200160006101000a8154816001600160a01b0302191690836001600160a01b031602179055505b600c805480611f5757fe5b600082815260209020810160001990810180546001600160a01b0319169055019055505050565b606060005b60055481101561202a57604051806040016040528060058381548110611fa557fe5b9060005260206000200160009054906101000a90046001600160a01b03166001600160a01b031681526020016006600060058581548110611fe257fe5b60009182526020808320909101546001600160a01b031683528201929092526040019020549052825183908390811061201757fe5b6020908102919091010152600101611f83565b5090565b6002546001600160a01b031681565b805160208201205b919050565b6001600160a01b03808316600090815260086020908152604080832093851683529290529081205460ff1615612082575060006121a3565b6001600160a01b038216600090815260096020526040812054156120bf57506001600160a01b038216600090815260096020526040902054612153565b6001600160a01b0383166120d4575047612153565b6040516370a0823160e01b81526001600160a01b038416906370a08231906121009030906004016131b6565b60206040518083038186803b15801561211857600080fd5b505afa15801561212c573d6000803e3d6000fd5b505050506040513d601f19601f820116820180604052506121509190810190613130565b90505b6000612184612166600b54600a54612e39565b6001600160a01b038716600090815260066020526040902054612e73565b9050600061219d612197600b5485612e39565b83612e73565b93505050505b92915050565b601360209081526000928352604080842090915290825290205460ff1681565b6001546001600160a01b03163314806121ec57506002546001600160a01b031633145b6122085760405162461bcd60e51b8152600401610a0290613467565b6001600d5460ff16600281111561221b57fe5b14156122395760405162461bcd60e51b8152600401610a0290613543565b6002546040516001600160a01b038084169216907fbb9deb87cce5d5b85aa80a787387570b6fbe0fe85ae6d74c4f1058a3fca2593490600090a3600280546001600160a01b0319166001600160a01b0392909216919091179055565b6003546001600160a01b031681565b6001546001600160a01b03163314806122c757506002546001600160a01b031633145b6122e35760405162461bcd60e51b8152600401610a0290613467565b6001600d5460ff1660028111156122f657fe5b14156123145760405162461bcd60e51b8152600401610a0290613543565b806123315760405162461bcd60e51b8152600401610a0290613b72565b60405181907f3812589784e3d6e74104ce2a0b88aa24fa72afeb2656fd0a424599cf6778913290600090a2601555565b60165481565b60105460009060ff1680156123a1575060008281526013602090815260408083206003546001600160a01b0316845290915290205460ff16155b156123ae57506000612045565b60006011541180156123c1575060055415155b15612447576000805b60055481101561244457600084815260136020526040812060058054919291849081106123f357fe5b60009182526020808320909101546001600160a01b0316835282019290925260400190205460ff1615612427576001909101905b60115482141561243c57600192505050612045565b6001016123ca565b50505b506000919050565b60076020526000908152604090205481565b60066020526000908152604090205481565b60126020526000908152604090205460ff1681565b6001546001600160a01b03163314806124ab57506002546001600160a01b031633145b6124c75760405162461bcd60e51b8152600401610a0290613467565b6001600d5460ff1660028111156124da57fe5b14156124f85760405162461bcd60e51b8152600401610a0290613543565b604051811515907fa6177e65b60a1a386d63cbd2bae0a7115628f20d32eb30f3630225852663f79b90600090a26014805460ff1916821515908117909155600114156112b9574260165550565b60096020526000908152604090205481565b60155481565b6005818154811061192e57fe5b6001546001600160a01b031633148061258d57506002546001600160a01b031633145b6125a95760405162461bcd60e51b8152600401610a0290613467565b6001600d5460ff1660028111156125bc57fe5b14156125da5760405162461bcd60e51b8152600401610a0290613543565b6001600160a01b0381166126005760405162461bcd60e51b8152600401610a02906138ae565b6001546040516001600160a01b038084169216907f8be0079c531659141344cd1fd0a4f28419497f9722a3daafe3b4186f6b6457e090600090a3600180546001600160a01b0319166001600160a01b0392909216919091179055565b6001600d5460ff16600281111561266f57fe5b1461268c5760405162461bcd60e51b8152600401610a02906139e7565b336000908152600760205260409020546126b85760405162461bcd60e51b8152600401610a0290613868565b6126c1816127f1565b6112b9338260006128d4565b600e5481565b6001600d5460ff1660028111156126e657fe5b14156127045760405162461bcd60e51b8152600401610a0290613543565b60145460ff166127265760405162461bcd60e51b8152600401610a029061379e565b42601554601654011061274b5760405162461bcd60e51b8152600401610a02906137d3565b6040517f69538834bdfc6e89fdf5c1b9da2c173030b723496047ff722092ff1965e5333090600090a1600d805460ff19166001179055565b60006127c583836040518060400160405280601e81526020017f536166654d6174683a207375627472616374696f6e206f766572666c6f770000815250612eb5565b9392505050565b6000828201838110156127c55760405162461bcd60e51b8152600401610a02906134d5565b6001600160a01b0381166000908152600960205260409020546112b9576001600160a01b03811661283c576001600160a01b03811660009081526009602052604090204790556112b9565b6040516370a0823160e01b81526001600160a01b038216906370a08231906128689030906004016131b6565b60206040518083038186803b15801561288057600080fd5b505afa158015612894573d6000803e3d6000fd5b505050506040513d601f19601f820116820180604052506128b89190810190613130565b6001600160a01b03821660009081526009602052604090205550565b6001600160a01b0380841660009081526008602090815260408083209386168352929052205460ff16612d45576000612932612914600b54600a54612e39565b6001600160a01b038616600090815260066020526040902054612e73565b600b546001600160a01b0385166000908152600960205260408120549293509161295f9161219791612e39565b6001600160a01b038087166000908152600860209081526040808320938916808452939091529020805460ff191660011790559091506129df576040516001600160a01b0386169082156108fc029083906000818181858888f193505050506129da5760405162461bcd60e51b8152600401610a029061357a565b612d01565b836001600160a01b0316836001600160a01b031614612c7f576001600160a01b038316612a1e5773eeeeeeeeeeeeeeeeeeeeeeeeeeeeeeeeeeeeeeee92505b6000805460405163095ea7b360e01b81526001600160a01b038088169363095ea7b393612a50939216916004016131ca565b602060405180830381600087803b158015612a6a57600080fd5b505af1158015612a7e573d6000803e3d6000fd5b505050506040513d601f19601f82011682018060405250612aa2919081019061303d565b5060005460405163095ea7b360e01b81526001600160a01b038681169263095ea7b392612ad99290911690600019906004016131ca565b602060405180830381600087803b158015612af357600080fd5b505af1158015612b07573d6000803e3d6000fd5b505050506040513d601f19601f82011682018060405250612b2b919081019061303d565b506000805460405163809a9e5560e01b815282916001600160a01b03169063809a9e5590612b6190899089908890600401613206565b604080518083038186803b158015612b7857600080fd5b505afa158015612b8c573d6000803e3d6000fd5b505050506040513d601f19601f82011682018060405250612bb09190810190613148565b506000546040516329589f6160e01b81529193506001600160a01b0316906329589f6190612c0490899087908a908d90600019908a9073dac3794d1644d7ce73d098c19f33e7e10271b2bc90600401613266565b602060405180830381600087803b158015612c1e57600080fd5b505af1158015612c32573d6000803e3d6000fd5b505050506040513d601f19601f82011682018060405250612c569190810190613130565b905060008111612c785760405162461bcd60e51b8152600401610a0290613422565b5050612d01565b60405163a9059cbb60e01b81526001600160a01b0385169063a9059cbb90612cad90889085906004016131ca565b602060405180830381600087803b158015612cc757600080fd5b505af1158015612cdb573d6000803e3d6000fd5b505050506040513d601f19601f82011682018060405250612cff919081019061303d565b505b80846001600160a01b0316866001600160a01b03167f01ff03b05140099a458b5372024e7c7da7a44ff7c68f517ad2d06ca51e7a145460405160405180910390a450505b505050565b6001600d5460ff166002811115612d5d57fe5b1415612d7b5760405162461bcd60e51b8152600401610a0290613543565b60405133907f1e017f7894d034b2556b10221489318bb9b022b6773b31f3129e68a8d3b0283c90600090a2600d805460ff191690556000600e5560145460ff1615610a135742601655565b6001600d5460ff166002811115612dd957fe5b1415612df75760405162461bcd60e51b8152600401610a0290613543565b60405133907fb886e2861b8f38932aec2b0f4cb8456b47c847cd4c682287b5c548db3a74b04f90600090a2600d805460ff19166002179055600f544201600e55565b600082612e48575060006121a3565b82820282848281612e5557fe5b04146127c55760405162461bcd60e51b8152600401610a029061396f565b60006127c583836040518060400160405280601a81526020017f536166654d6174683a206469766973696f6e206279207a65726f000000000000815250612ee1565b60008184841115612ed95760405162461bcd60e51b8152600401610a029190613334565b505050900390565b60008183612f025760405162461bcd60e51b8152600401610a029190613334565b506000838581612f0e57fe5b0495945050505050565b600060208284031215612f29578081fd5b81356127c581613c54565b600080600060608486031215612f48578182fd5b8335612f5381613c54565b92506020840135612f6381613c54565b929592945050506040919091013590565b60008060408385031215612f86578182fd5b8235612f9181613c54565b946020939093013593505050565b60008060408385031215612fb1578182fd5b8235612fbc81613c54565b91506020830135612fcc81613c54565b809150509250929050565b600080600060608486031215612feb578283fd5b8335612ff681613c54565b9250602084013561300681613c54565b9150604084013561301681613c54565b809150509250925092565b600060208284031215613032578081fd5b81356127c581613c69565b60006020828403121561304e578081fd5b81516127c581613c69565b60006020828403121561306a578081fd5b5035919050565b60008060408385031215613083578182fd5b823591506020830135612fcc81613c54565b6000602082840312156130a6578081fd5b813567ffffffffffffffff808211156130bd578283fd5b81840185601f8201126130ce578384fd5b80359250818311156130de578384fd5b604051601f8401601f1916810160200183811182821017156130fe578586fd5b604052838152818401602001871015613115578485fd5b613126846020830160208501613c48565b9695505050505050565b600060208284031215613141578081fd5b5051919050565b6000806040838503121561315a578182fd5b505080516020909101519092909150565b60008151808452815b8181101561319057602081850181015186830182015201613174565b818111156131a15782602083870101525b50601f01601f19169290920160200192915050565b6001600160a01b0391909116815260200190565b6001600160a01b03929092168252602082015260400190565b6001600160a01b0393841681529183166020830152909116604082015260600190565b6001600160a01b039384168152919092166020820152604081019190915260600190565b60006001600160a01b038616825284602083015260806040830152613252608083018561316b565b905060ff8316606083015295945050505050565b6001600160a01b039788168152602081019690965293861660408601529185166060850152608084015260a083015290911660c082015261010060e082018190526000908201526101200190565b6020808252825182820181905260009190848201906040850190845b8181101561330057835180516001600160a01b0316845285015185840152928401926040909201916001016132d0565b50909695505050505050565b901515815260200190565b90815260200190565b602081016003831061332e57fe5b91905290565b6000602082526127c5602083018461316b565b60208082526018908201527f43616c6c6572206973206e6f7420746865206f7261636c650000000000000000604082015260600190565b60208082526047908201527f43616c6c6572206973206e6f74207468652062656e6566696369617279206f7260408201527f20746865206f776e657220616e6420746865206f776e6572206973207374696c6060820152666c20616c69766560c81b608082015260a00190565b60208082526017908201527f4e6577206578656375746f72206973206d697373696e67000000000000000000604082015260600190565b60208082526025908201527f4661696c656420746f20636f6e7665727420746f6b656e207468726f7567682060408201526425bcb132b960d91b606082015260800190565b60208082526017908201527f43616c6c6572206973206e6f7420746865206f776e6572000000000000000000604082015260600190565b60208082526015908201527f4e6577206f7261636c65206973206d697373696e670000000000000000000000604082015260600190565b6020808252601b908201527f536166654d6174683a206164646974696f6e206f766572666c6f770000000000604082015260600190565b6020808252601a908201527f436f756c64206e6f742065786563757465207265636f76657279000000000000604082015260600190565b60208082526018908201527f4f776e6572206973206e6f206c6f6e67657220616c6976650000000000000000604082015260600190565b60208082526015908201527f50726f626c656d2073656e64696e672073686172650000000000000000000000604082015260600190565b6020808252602f908201527f4e6577206164647265737320697320616c72656164792061207265676973746560408201527f7265642062656e65666963696172790000000000000000000000000000000000606082015260800190565b6020808252601a908201527f43616c6c6572206973206e6f7420746865206578656375746f72000000000000604082015260600190565b6020808252604e908201527f43616c6c6572206973206e6f74207468652062656e6566696369617279206f7260408201527f20746865206578656375746f7220616e6420746865206f776e6572206973206e60608201527f6f206c6f6e67657220616c697665000000000000000000000000000000000000608082015260a00190565b60208082526022908201527f4e65772062656e65666963696172792061646472657373206973206d697373696040820152616e6760f01b606082015260800190565b60208082526016908201527f43616c6c6572206973206e6f742061206d656d62657200000000000000000000604082015260600190565b60208082526034908201527f43616c6c6572206973206e6f7420746865206f776e657220616e64207468652060408201527f6f776e6572206973207374696c6c20616c697665000000000000000000000000606082015260800190565b6020808252818101527f44656164204d616e277320537769746368206973206e6f7420656e61626c6564604082015260600190565b6020808252602a908201527f4f776e65722068617320636865636b65642d696e20617320616c69766520746f6040820152696f20726563656e746c7960b01b606082015260800190565b6020808252602b908201527f4f6c642061646472657373206973206e6f74206120726567697374657265642060408201526a62656e656669636961727960a81b606082015260800190565b60208082526026908201527f43616c6c6572206973206e6f74206120726567697374657265642062656e656660408201526569636961727960d01b606082015260800190565b60208082526014908201527f4e6577206f776e6572206973206d697373696e67000000000000000000000000604082015260600190565b60208082526023908201527f43616c6c6572206973206e6f7420746865206f776e6572206f722065786563756040820152623a37b960e91b606082015260800190565b60208082526027908201527f41646472657373206973206e6f74206120726567697374657265642062656e656040820152666669636961727960c81b606082015260800190565b60208082526021908201527f536166654d6174683a206d756c7469706c69636174696f6e206f766572666c6f6040820152607760f81b606082015260800190565b6020808252601f908201527f476e6f736973536166652068617320616c7265616479206265656e2073657400604082015260600190565b60208082526024908201527f4f776e657220686173206e6f74206265656e20636f6e6669726d6564206173206040820152631919585960e21b606082015260800190565b6020808252601e908201527f42656e65666963696172792061646472657373206973206d697373696e670000604082015260600190565b6020808252603b908201527f43616c6c6572206973206e6f7420746865206578656375746f7220616e64207460408201527f6865206f776e6572206973206e6f206c6f6e67657220616c6976650000000000606082015260800190565b60208082526019908201527f5265636f7665727920616c726561647920657865637574656400000000000000604082015260600190565b6020808252601a908201527f4e65772062656e6566696369617279206973206d697373696e67000000000000604082015260600190565b60208082526025908201527f5265636f7665727920686173206e6f7420656e6f75676820636f6e6669726d6160408201526474696f6e7360d81b606082015260800190565b6020808252603c908201527f44656164204d616e27732053776974636820636865636b2d696e207365636f6e60408201527f6473206d7573742062652067726561746572207468616e207a65726f00000000606082015260800190565b60208082526022908201527f4f6c642062656e65666963696172792061646472657373206973206d697373696040820152616e6760f01b606082015260800190565b60208082526018908201527f546f6b656e2061646472657373206973206d697373696e670000000000000000604082015260600190565b82818337506000910152565b6001600160a01b03811681146112b957600080fd5b80151581146112b957600080fdfea2646970667358221220d2826b41310984fb801213dce00e643ae33daf77e10fe53bb439488cc67a2cde64736f6c63430006010033",
  "source": "pragma solidity ^0.6.0;\r\npragma experimental ABIEncoderV2;\r\n\r\n// Alfred.Estate - Proof of Death - Digital Inheritance Automation\r\n\r\n//import \"@gnosis.pm/safe-contracts/contracts/base/Module.sol\";\r\n//import \"@gnosis.pm/safe-contracts/contracts/base/ModuleManager.sol\";\r\n\r\nimport \"@openzeppelin/contracts/math/SafeMath.sol\";\r\nimport \"@openzeppelin/contracts/token/ERC20/IERC20.sol\";\r\nimport \"@gnosis.pm/safe-contracts/contracts/common/Enum.sol\";\r\nimport \"./IModuleManager.sol\";\r\n\r\n//contract BringOutYourDead is Module {\r\ncontract BringOutYourDead {\r\n    uint constant MAX_UINT = 2**256 - 1;\r\n    address constant KYBER_ETH_ADDRESS = 0xEeeeeEeeeEeEeeEeEeEeeEEEeeeeEeeeeeeeEEeE;\r\n    address public KYBER_NETWORK_PROXY_ADDRESS = 0x818E6FECD516Ecc3849DAf6845e3EC868087B755;\r\n    address constant REFERAL_ADDRESS = 0xdac3794d1644D7cE73d098C19f33E7e10271b2bC;\r\n\r\n    // Gnosis Safe module manager\r\n    // ModuleManager public manager;  Inherited from Module\r\n    address public owner;\r\n    address public gnosisSafe;\r\n    address public executor;\r\n    address public oracle;\r\n    address[] public beneficiaries;\r\n    mapping(address => uint256) public beneficiaryShares;\r\n    mapping(address => uint256) public beneficiaryIndex;\r\n    mapping(address => mapping(address => bool)) public isBeneficiaryTokenWithdrawn;\r\n    mapping(address => uint256) public totalTokensKnown;\r\n    uint256 public totalShares;\r\n    // TODO: Further evaluate if precision is sufficient for share ratios\r\n    uint256 private precision = 8**10;\r\n    address[] public trackedTokens;\r\n\r\n    enum Lifesigns { Alive, Dead, Uncertain }\r\n    Lifesigns public liveliness;\r\n    uint256 public declareDeadAfter;\r\n    uint256 public uncertaintyPeriod = 8 weeks;\r\n    // uint256 public uncertaintyPeriod = 8 seconds;  // For demonstration\r\n\r\n    // Gnosis Safe Recovery settings\r\n    bool public isExecutorRequiredForSafeRecovery;\r\n    uint256 public beneficiariesRequiredForSafeRecovery;\r\n    // isExecuted mapping maps data hash to execution status.\r\n    mapping (bytes32 => bool) public isExecuted;\r\n    // isConfirmed mapping maps data hash to beneficiary's address to confirmation status.\r\n    mapping (bytes32 => mapping (address => bool)) public isConfirmed;\r\n\r\n    // Dead Man's Switch settings\r\n    bool public isDeadMansSwitchEnabled;\r\n    uint256 public deadMansSwitchCheckinSeconds;\r\n    uint256 public deadMansSwitchLastCheckin;\r\n\r\n    struct ShareHolder {\r\n        address who;\r\n        uint256 shares;\r\n    }\r\n\r\n    event ReportOfDeath(address indexed reporter);\r\n    event ConfirmationOfLife(address indexed reporter);\r\n    event ConfirmationOfDeath();\r\n    event OwnershipTransferred(address indexed previousOwner, address indexed newOwner);\r\n    event GnosisSafeChanged(address indexed gnosisSafe, address indexed newSafe);\r\n    event OracleChanged(address indexed oldOracle, address indexed newOracle);\r\n    event ExecutorChanged(address indexed oldExecutor, address indexed newExecutor);\r\n    event AddedBeneficiary(address indexed newBeneficiary, uint256 indexed shares);\r\n    event RemovedBeneficiary(address indexed formerBeneficiary, uint256 indexed removedShares);\r\n    event ChangedBeneficiaryShares(address indexed beneficiary, uint256 indexed oldShares, uint256 indexed newShares);\r\n    event ChangedBeneficiaryAddress(address indexed oldAddress, address indexed newAddress);\r\n    event BeneficiaryWithdrawal(address indexed beneficiary, address indexed token, uint256 indexed amount);\r\n    event TrackedTokenAdded(address indexed token);\r\n    event TrackedTokenRemoved(address indexed token);\r\n    event IsExecutorRequiredForSafeRecoveryChanged(bool indexed newValue);\r\n    event BeneficiariesRequiredForSafeRecoveryChanged(uint256 indexed newValue);\r\n    event IsDeadMansSwitchEnabledChanged(bool indexed newValue);\r\n    event DeadMansSwitchCheckinSecondsChanged(uint256 indexed newValue);\r\n\r\n    // TODO: Ability for owner to invest/withdraw from interest bearing savings contracts\r\n    // TODO: Add second waiting period after death for executor to withdraw and pay debts before payout to beneficiaries\r\n    // TODO: Support withdrawal/settling from loan dapps prior to any withdrawals\r\n    // TODO: After second waiting period establish actual share per beneficiary based on share proportions\r\n\r\n\r\n    modifier onlyOwner() {\r\n        require(msg.sender == owner || msg.sender == gnosisSafe, \"Caller is not the owner\");\r\n        require(liveliness != Lifesigns.Dead, \"Owner is no longer alive\");\r\n        _;\r\n    }\r\n\r\n    modifier onlyExecutor() {\r\n        require(msg.sender == executor, \"Caller is not the executor\");\r\n        _;\r\n    }\r\n\r\n    modifier onlyOwnerOrExecutor() {\r\n        require(msg.sender == owner || msg.sender == gnosisSafe || msg.sender == executor, \"Caller is not the owner or executor\");\r\n        _;\r\n    }\r\n\r\n    modifier onlyController() {\r\n        if(liveliness != Lifesigns.Dead) {\r\n            require(msg.sender == owner || msg.sender == gnosisSafe, \"Caller is not the owner and the owner is still alive\");\r\n        } else {\r\n            require(msg.sender == executor, \"Caller is not the executor and the owner is no longer alive\");\r\n        }\r\n        _;\r\n    }\r\n\r\n    modifier onlyControllerOrBeneficiary(address who) {\r\n        if(msg.sender == who) {\r\n            require(beneficiaryIndex[who] > 0, \"Address is not a registered beneficiary\");\r\n        } else {\r\n            if(liveliness != Lifesigns.Dead) {\r\n                require(msg.sender == owner || msg.sender == gnosisSafe, \"Caller is not the beneficiary or the owner and the owner is still alive\");\r\n            } else {\r\n                require(msg.sender == executor, \"Caller is not the beneficiary or the executor and the owner is no longer alive\");\r\n            }\r\n        }\r\n        _;\r\n    }\r\n\r\n    modifier onlyBeneficiary() {\r\n        require(beneficiaryIndex[msg.sender] > 0, \"Caller is not a registered beneficiary\");\r\n        // require(beneficiaryShares[msg.sender] > 0, \"Caller does not have any shares\");\r\n        _;\r\n    }\r\n\r\n    modifier onlyMember() {\r\n        require(msg.sender == owner || msg.sender == gnosisSafe || msg.sender == executor || beneficiaryIndex[msg.sender] > 0, \"Caller is not a member\");\r\n        // require(msg.sender == owner || msg.sender == gnosisSafe || msg.sender == executor || beneficiaryShares[msg.sender] > 0, \"Caller is not a member\");\r\n        _;\r\n    }\r\n\r\n    modifier onlyOracle() {\r\n        require(msg.sender == oracle, \"Caller is not the oracle\");\r\n        _;\r\n    }\r\n\r\n    modifier notDead() {\r\n        require(liveliness != Lifesigns.Dead, \"Owner is no longer alive\");\r\n        _;\r\n    }\r\n\r\n    modifier onlyDead() {\r\n        require(liveliness == Lifesigns.Dead, \"Owner has not been confirmed as dead\");\r\n        _;\r\n    }\r\n\r\n    constructor() public {\r\n        owner = msg.sender;\r\n        liveliness = Lifesigns.Alive;\r\n        isExecutorRequiredForSafeRecovery = true;\r\n        beneficiariesRequiredForSafeRecovery = 1;\r\n    }\r\n\r\n    receive() external payable {\r\n        // THIS SPACE INTENTIONALLY LEFT BLANK\r\n        // Any code  here could consume too much gas, causing basic ETH payments to fail\r\n    }\r\n\r\n    /// @dev Allows an executor or beneficiary to confirm a Safe recovery transaction.\r\n    /// @param dataHash Safe transaction hash.\r\n    function confirmTransaction(bytes32 dataHash)\r\n        public\r\n        onlyMember\r\n    {\r\n        require(!isExecuted[dataHash], \"Recovery already executed\");\r\n        isConfirmed[dataHash][msg.sender] = true;\r\n    }\r\n\r\n    /// @dev Returns if Safe transaction is a valid owner replacement transaction.\r\n    /// @param prevOwner Owner that pointed to the owner to be replaced in the linked list\r\n    /// @param oldOwner Owner address to be replaced.\r\n    /// @param newOwner New owner address.\r\n    function recoverAccess(address prevOwner, address oldOwner, address newOwner)\r\n        public\r\n        onlyMember\r\n    {\r\n        bytes memory data = abi.encodeWithSignature(\"swapOwner(address,address,address)\", prevOwner, oldOwner, newOwner);\r\n        bytes32 dataHash = getDataHash(data);\r\n        require(!isExecuted[dataHash], \"Recovery already executed\");\r\n        require(isConfirmedByRequiredParties(dataHash), \"Recovery has not enough confirmations\");\r\n        isExecuted[dataHash] = true;\r\n        // require(manager.execTransactionFromModule(address(manager), 0, data, Enum.Operation.Call), \"Could not execute recovery\");\r\n        require(ModuleManager(gnosisSafe).execTransactionFromModule(gnosisSafe, 0, data, uint8(Enum.Operation.Call)), \"Could not execute recovery\");\r\n    }\r\n\r\n    /// @dev Returns if Safe transaction is a valid owner replacement transaction.\r\n    /// @param dataHash Data hash.\r\n    /// @return Confirmation status.\r\n    function isConfirmedByRequiredParties(bytes32 dataHash)\r\n        public\r\n        view\r\n        returns (bool)\r\n    {\r\n        if(isExecutorRequiredForSafeRecovery && !isConfirmed[dataHash][executor]) {\r\n            return false;\r\n        }\r\n        if(beneficiariesRequiredForSafeRecovery > 0 && beneficiaries.length > 0) {\r\n            uint256 confirmationCount;\r\n            for (uint256 i = 0; i < beneficiaries.length; i++) {\r\n                if (isConfirmed[dataHash][beneficiaries[i]]) {\r\n                    confirmationCount++;\r\n                }\r\n                if (confirmationCount == beneficiariesRequiredForSafeRecovery) {\r\n                    return true;\r\n                }\r\n            }\r\n\r\n        }\r\n        return false;\r\n    }\r\n\r\n    /// @dev Returns hash of data encoding owner replacement.\r\n    /// @param data Data payload.\r\n    /// @return Data hash.\r\n    function getDataHash(bytes memory data)\r\n        public\r\n        pure\r\n        returns (bytes32)\r\n    {\r\n        return keccak256(data);\r\n    }\r\n\r\n    // The Gnosis Safe creating this estate should call this function during initialization\r\n    // TODO: This can probably be replaced with a call to setGnosisSafe(...) during initialization\r\n    function gnosisSafeSetup() public onlyOwner {\r\n        // Gnosis Safe contracts/base/Module.sol:\r\n        // setManager();\r\n        // require(address(manager) == address(0), \"Manager has already been set\");\r\n        // manager = ModuleManager(msg.sender);\r\n        require(gnosisSafe == address(0), \"GnosisSafe has already been set\");\r\n\r\n        setGnosisSafe(msg.sender);\r\n    }\r\n\r\n    /*\r\n    function setManager() internal virtual override\r\n    {\r\n        // manager can only be 0 at initialization of contract.\r\n        // Check ensures that setup function can only be called once.\r\n        require(address(manager) == address(0), \"Manager has already been set\");\r\n        manager = ModuleManager(msg.sender);\r\n    }\r\n    */\r\n\r\n    // The Gnosis Safe associated with this contract acts as a co-owner and has the full rights that the primary owner has\r\n    function setGnosisSafe(address newSafe) public onlyOwner {\r\n        // Allow setting to zero address to disable Gnosis Safe co-ownership\r\n        emit GnosisSafeChanged(gnosisSafe, newSafe);\r\n        gnosisSafe = newSafe;\r\n    }\r\n\r\n    function setIsExecutorRequiredForSafeRecovery(bool newValue) public onlyOwner {\r\n        emit IsExecutorRequiredForSafeRecoveryChanged(newValue);\r\n        isExecutorRequiredForSafeRecovery = newValue;\r\n    }\r\n\r\n    function setBeneficiariesRequiredForSafeRecovery(uint256 newValue) public onlyOwner {\r\n        emit BeneficiariesRequiredForSafeRecoveryChanged(newValue);\r\n        beneficiariesRequiredForSafeRecovery = newValue;\r\n    }\r\n\r\n    function setIsDeadMansSwitchEnabled(bool newValue) public onlyOwner {\r\n        emit IsDeadMansSwitchEnabledChanged(newValue);\r\n        isDeadMansSwitchEnabled = newValue;\r\n        if(true == newValue) {\r\n            deadMansSwitchLastCheckin = now;\r\n        }\r\n    }\r\n\r\n    function setDeadMansSwitchCheckinSeconds(uint256 newValue) public onlyOwner {\r\n        require(0 != newValue, \"Dead Man's Switch check-in seconds must be greater than zero\");\r\n        emit DeadMansSwitchCheckinSecondsChanged(newValue);\r\n        deadMansSwitchCheckinSeconds = newValue;\r\n    }\r\n\r\n    function transferOwnership(address newOwner) public onlyOwner {\r\n        require(newOwner != address(0), \"New owner is missing\");\r\n        emit OwnershipTransferred(owner, newOwner);\r\n        owner = newOwner;\r\n    }\r\n\r\n    function changeOracle(address newOracle) public onlyOwner {\r\n        require(newOracle != address(0), \"New oracle is missing\");\r\n        emit OracleChanged(oracle, newOracle);\r\n        oracle = newOracle;\r\n    }\r\n\r\n    function changeExecutor(address newExecutor) public onlyOwnerOrExecutor {\r\n        require(newExecutor != address(0), \"New executor is missing\");\r\n        emit ExecutorChanged(executor, newExecutor);\r\n        executor = newExecutor;\r\n    }\r\n\r\n    function getBeneficiariesDetails() public view returns (ShareHolder[] memory beneficiaryDetails) {\r\n        for(uint i=0; i<beneficiaries.length; i++) {\r\n            beneficiaryDetails[i] = ShareHolder(beneficiaries[i], beneficiaryShares[beneficiaries[i]]);\r\n        }\r\n    }\r\n\r\n    // Determine size of beneficiaries share of tokens given locked in or current balance\r\n    function getBeneficiaryBalance(address beneficiary, address token) public view returns (uint256 shareBalance) {\r\n        // Check if tokens have already been balanced\r\n        if(isBeneficiaryTokenWithdrawn[beneficiary][token]) {\r\n            return 0;\r\n        }\r\n        // Determine the total amount of ETH or tokens held if not yet known, but don't lock total in permanently\r\n        uint totalTokens;\r\n        if(totalTokensKnown[token] > 0) {\r\n            totalTokens = totalTokensKnown[token];\r\n        } else {\r\n            if(address(0) == token) {\r\n                totalTokens = address(this).balance;\r\n            } else {\r\n                totalTokens = IERC20(token).balanceOf(address(this));\r\n            }\r\n        }\r\n\r\n        uint256 shareRatio = SafeMath.div(SafeMath.mul(precision, totalShares), beneficiaryShares[beneficiary]);\r\n        uint256 share = SafeMath.div(SafeMath.mul(precision, totalTokens), shareRatio);\r\n\r\n        return share;\r\n    }\r\n\r\n    function addBeneficiary(address newBeneficiary, uint256 shares) public onlyController {\r\n        require(newBeneficiary != address(0), \"New beneficiary is missing\");\r\n        // require(shares > 0, \"Shares must be greater than zero\");\r\n        // require(beneficiaryShares[newBeneficiary] == 0, \"New beneficiary already exists\");\r\n        require(beneficiaryIndex[newBeneficiary] == 0, \"New address is already a registered beneficiary\");\r\n        beneficiaries.push(newBeneficiary);\r\n        uint256 index = beneficiaries.length;\r\n        beneficiaryIndex[newBeneficiary] = index;\r\n        beneficiaryShares[newBeneficiary] = shares;\r\n        totalShares = SafeMath.add(totalShares, shares);\r\n        emit AddedBeneficiary(newBeneficiary, shares);\r\n    }\r\n\r\n    function removeBeneficiary(address beneficiary) public onlyController {\r\n        require(beneficiary != address(0), \"Beneficiary address is missing\");\r\n        // require(beneficiaryShares[beneficiary] > 0, \"Account is not a current beneficiary\");\r\n        require(beneficiaryIndex[beneficiary] > 0, \"Address is not a registered beneficiary\");\r\n        uint256 index = beneficiaryIndex[beneficiary];\r\n        for(uint256 i = index; i<beneficiaries.length; i++) {\r\n            beneficiaries[i] = beneficiaries[i+1];\r\n        }\r\n        // beneficiaries.length = beneficiaries.length-1;\r\n        beneficiaries.pop();\r\n        beneficiaryIndex[beneficiary] = 0;\r\n        uint256 sharesRemoved = beneficiaryShares[beneficiary];\r\n        beneficiaryShares[beneficiary] = 0;\r\n        totalShares = SafeMath.sub(totalShares, sharesRemoved);\r\n        emit RemovedBeneficiary(beneficiary, sharesRemoved);\r\n    }\r\n\r\n    function changeBeneficiaryShares(address beneficiary, uint256 newShares) public onlyController {\r\n        require(beneficiary != address(0), \"Beneficiary address is missing\");\r\n        // require(beneficiaryShares[beneficiary] > 0, \"Account is not a current beneficiary\");\r\n        require(beneficiaryIndex[beneficiary] > 0, \"Address is not a registered beneficiary\");\r\n        // require(newShares > 0, \"Shares must be greater than zero\");\r\n        uint256 oldShares = beneficiaryShares[beneficiary];\r\n        totalShares = SafeMath.sub(totalShares, oldShares);\r\n        totalShares = SafeMath.add(totalShares, newShares);\r\n        beneficiaryShares[beneficiary] = newShares;\r\n        emit ChangedBeneficiaryShares(beneficiary, oldShares, newShares);\r\n    }\r\n\r\n    function changeBeneficiaryAddress(address oldAddress, address newAddress) public onlyControllerOrBeneficiary(oldAddress) {\r\n        require(oldAddress != address(0), \"Old beneficiary address is missing\");\r\n        require(newAddress != address(0), \"New beneficiary address is missing\");\r\n        require(beneficiaryIndex[oldAddress] > 0, \"Old address is not a registered beneficiary\");\r\n        // require(beneficiaryShares[oldAddress] > 0, \"Account is not a current beneficiary\");\r\n        uint256 index = beneficiaryIndex[oldAddress] - 1;\r\n        uint256 shares = beneficiaryShares[oldAddress];\r\n        beneficiaries[index] = newAddress;\r\n        beneficiaryShares[oldAddress] = 0;\r\n        beneficiaryShares[newAddress] = shares;\r\n        emit ChangedBeneficiaryAddress(oldAddress, newAddress);\r\n    }\r\n\r\n    function claimEthShares() public {\r\n        claimTokenShares(address(0));\r\n    }\r\n\r\n    function claimTokenShares(address token) public onlyDead onlyBeneficiary {\r\n        determinePoolSize(token);\r\n        sendShare(msg.sender, token, token);\r\n    }\r\n\r\n    function claimTokenSharesAsEth(address token) public onlyDead onlyBeneficiary {\r\n        determinePoolSize(token);\r\n        sendShare(msg.sender, token, address(0));\r\n    }\r\n\r\n    function distributeEthShares() public {\r\n        distributeTokenShares(address(0));\r\n    }\r\n\r\n    function distributeTokenShares(address token) public onlyDead onlyExecutor {\r\n        determinePoolSize(token);\r\n        for(uint256 i=0; i < beneficiaries.length; i++) {\r\n            address payable b = address(uint160(beneficiaries[i]));\r\n            sendShare(b, token, token);\r\n        }\r\n    }\r\n\r\n    function distributeTokenSharesAsEth(address token) public onlyDead onlyExecutor {\r\n        determinePoolSize(token);\r\n        for(uint256 i=0; i < beneficiaries.length; i++) {\r\n            address payable b = address(uint160(beneficiaries[i]));\r\n            sendShare(b, token, address(0));\r\n        }\r\n    }\r\n\r\n    function determinePoolSize(address token) internal {\r\n        // Determine the total amount of ETH or tokens held if not yet known\r\n        // NOTE: This does not handle situations where the total balance increases after the first beneficiary has isBeneficiaryTokenWithdrawn\r\n        // TODO: Track expected balance and compare with actual balance, handle any detected discrepancies...\r\n        if(totalTokensKnown[token] == 0) {\r\n            if(address(0) == token) {\r\n                totalTokensKnown[token] = address(this).balance;\r\n            } else {\r\n                totalTokensKnown[token] = IERC20(token).balanceOf(address(this));\r\n            }\r\n        }\r\n    }\r\n\r\n    function sendShare(address payable beneficiary, address token, address receiveToken) internal {\r\n        if(!isBeneficiaryTokenWithdrawn[beneficiary][token]) {\r\n            // TODO: Extensive testing of these operations for edge cases and rounding issues:\r\n            uint256 shareRatio = SafeMath.div(SafeMath.mul(precision, totalShares), beneficiaryShares[beneficiary]);\r\n            uint256 share = SafeMath.div(SafeMath.mul(precision, totalTokensKnown[token]), shareRatio);\r\n            isBeneficiaryTokenWithdrawn[beneficiary][token] = true;\r\n            if(address(0) == token) {\r\n                require(beneficiary.send(share), \"Problem sending share\");\r\n            } else {\r\n                if(receiveToken != token) {\r\n                    if(address(0) == receiveToken) {\r\n                        receiveToken = KYBER_ETH_ADDRESS;\r\n                    }\r\n                    // Convert to desired token or ETH through Kyber\r\n                    IERC20(token).approve(KYBER_NETWORK_PROXY_ADDRESS, 0);\r\n                    IERC20(token).approve(KYBER_NETWORK_PROXY_ADDRESS, MAX_UINT);\r\n                    uint256 min_conversion_rate;\r\n                    uint256 result;\r\n                    (min_conversion_rate,) = KyberNetworkProxy(KYBER_NETWORK_PROXY_ADDRESS).getExpectedRate(token, receiveToken, share);\r\n                    result = KyberNetworkProxy(KYBER_NETWORK_PROXY_ADDRESS).tradeWithHint(token, share, receiveToken, beneficiary, MAX_UINT, min_conversion_rate, REFERAL_ADDRESS, '');\r\n                    require(result > 0, \"Failed to convert token through Kyber\");\r\n                } else {\r\n                    // Don't require token transfer to succeed, since some tokens don't follow spec.\r\n                    // TODO: Could use OpenZepelin SafeERC20 to guarantee transfer succeeded\r\n                    IERC20(token).transfer(beneficiary, share);\r\n                }\r\n            }\r\n            emit BeneficiaryWithdrawal(beneficiary, token, share);\r\n        }\r\n    }\r\n\r\n    // TODO: Possibly remove this\r\n    function addTrackedToken(address token) public onlyController {\r\n        require(address(0) != token, \"Token address is missing\");\r\n        emit TrackedTokenAdded(token);\r\n        trackedTokens.push(token);\r\n    }\r\n\r\n    function removeTrackedToken(address token) public onlyController {\r\n        require(address(0) != token, \"Token address is missing\");\r\n        uint256 index;\r\n        emit TrackedTokenRemoved(token);\r\n        // TODO: finish this\r\n        uint256 i;\r\n        for(i=0; i<trackedTokens.length; i++) {\r\n            if(trackedTokens[i] == token) {\r\n                index = i;\r\n                break;\r\n            }\r\n        }\r\n        if(index < trackedTokens.length-1) {\r\n            trackedTokens[i] = trackedTokens[trackedTokens.length-1];\r\n        }\r\n        // trackedTokens.length--;\r\n        trackedTokens.pop();\r\n    }\r\n\r\n\r\n    function oracleCallback(bool isDead) public onlyOracle notDead {\r\n        if(isDead) {\r\n            setUncertain();\r\n        }\r\n        //else {\r\n        //    setAlive();\r\n        //}\r\n    }\r\n\r\n    // With dead man's switch: Call after the check-in period has passed without the owner checking in\r\n    // With death oracle: Call after owner has been reported dead and the waiting period has passed to establish confirmation of death\r\n    function bringOutYourDead() public onlyMember {\r\n        setDead();\r\n    }\r\n\r\n    function imNotDeadYet() public onlyOwner {\r\n        setAlive();\r\n    }\r\n\r\n    function sendEth(address payable recipient, uint256 amount) public onlyOwner {\r\n        recipient.send(amount);\r\n    }\r\n\r\n    function sendToken(address payable recipient, address token, uint256 amount) public onlyOwner {\r\n        IERC20(token).transfer(recipient, amount);\r\n    }\r\n\r\n    /*\r\n    function execute(address target, uint256 amount, bytes data) {\r\n    }\r\n    */\r\n\r\n    function setAlive() internal notDead {\r\n        emit ConfirmationOfLife(msg.sender);\r\n        liveliness = Lifesigns.Alive;\r\n        declareDeadAfter = 0;\r\n        if(isDeadMansSwitchEnabled) {\r\n            deadMansSwitchLastCheckin = now;\r\n        }\r\n    }\r\n\r\n    function setUncertain() internal notDead {\r\n            emit ReportOfDeath(msg.sender);\r\n            liveliness = Lifesigns.Uncertain;\r\n            declareDeadAfter = now + uncertaintyPeriod;\r\n    }\r\n\r\n    function setDead() internal notDead {\r\n        // NOTE: This functionality will be enabled when the death oracle is fully implemented\r\n        // require(liveliness == Lifesigns.Uncertain, \"Owner has not been reported as dead yet\");\r\n        // require(declareDeadAfter != 0 && declareDeadAfter < now, \"Owner still has time to demonstrate life\");\r\n\r\n        require(isDeadMansSwitchEnabled, \"Dead Man's Switch is not enabled\");\r\n        require(deadMansSwitchLastCheckin + (deadMansSwitchCheckinSeconds) < now, \"Owner has checked-in as alive too recently\");\r\n        emit ConfirmationOfDeath();\r\n        liveliness = Lifesigns.Dead;\r\n    }\r\n\r\n}\r\n\r\nabstract contract KyberNetworkProxy {\r\n  function removeAlerter ( address alerter ) virtual external;\r\n  function enabled (  ) virtual external view returns ( bool );\r\n  function pendingAdmin (  ) virtual external view returns ( address );\r\n  function getOperators (  ) virtual external view returns ( address[] memory );\r\n  function tradeWithHint ( address src, uint256 srcAmount, address dest, address destAddress, uint256 maxDestAmount, uint256 minConversionRate, address walletId, bytes calldata hint ) virtual external payable returns ( uint256 );\r\n  function swapTokenToEther ( address token, uint256 srcAmount, uint256 minConversionRate ) virtual external returns ( uint256 );\r\n  function withdrawToken ( address token, uint256 amount, address sendTo ) virtual external;\r\n  function maxGasPrice (  ) virtual external view returns ( uint256 );\r\n  function addAlerter ( address newAlerter ) virtual external;\r\n  function kyberNetworkContract (  ) virtual external view returns ( address );\r\n  function getUserCapInWei ( address user ) virtual external view returns ( uint256 );\r\n  function swapTokenToToken ( address src, uint256 srcAmount, address dest, uint256 minConversionRate ) virtual external returns ( uint256 );\r\n  function transferAdmin ( address newAdmin ) virtual external;\r\n  function claimAdmin (  ) virtual external;\r\n  function swapEtherToToken ( address token, uint256 minConversionRate ) virtual external payable returns ( uint256 );\r\n  function transferAdminQuickly ( address newAdmin ) virtual external;\r\n  function getAlerters (  ) virtual external view returns ( address[] memory );\r\n  function getExpectedRate ( address src, address dest, uint256 srcQty ) virtual external view returns ( uint256 expectedRate, uint256 slippageRate );\r\n  function getUserCapInTokenWei ( address user, address token ) virtual external view returns ( uint256 );\r\n  function addOperator ( address newOperator ) virtual external;\r\n  function setKyberNetworkContract ( address _kyberNetworkContract ) virtual external;\r\n  function removeOperator ( address operator ) virtual external;\r\n  function info ( bytes32 field ) virtual external view returns ( uint256 );\r\n  function trade ( address src, uint256 srcAmount, address dest, address destAddress, uint256 maxDestAmount, uint256 minConversionRate, address walletId ) virtual external payable returns ( uint256 );\r\n  function withdrawEther ( uint256 amount, address sendTo ) virtual external;\r\n  function getBalance ( address token, address user ) virtual external view returns ( uint256 );\r\n  function admin (  ) virtual external view returns ( address );\r\n}\r\n",
  "sourcePath": "C:\\Users\\morgan\\PycharmProjects\\alfred-estate-contracts\\contracts\\AlfredEstate.sol",
  "compiler": {
    "name": "solc",
    "version": "0.6.1+commit.e6f7d5a4.Emscripten.clang"
  },
  "schemaVersion": "3.2.3",
  "updatedAt": "2020-08-01T06:40:05.442Z",
  "networkType": "ethereum",
  "devdoc": {
    "methods": {
      "confirmTransaction(bytes32)": {
        "details": "Allows an executor or beneficiary to confirm a Safe recovery transaction.",
        "params": {
          "dataHash": "Safe transaction hash."
        }
      },
      "getDataHash(bytes)": {
        "details": "Returns hash of data encoding owner replacement.",
        "params": {
          "data": "Data payload."
        },
        "returns": {
          "_0": "Data hash."
        }
      },
      "isConfirmedByRequiredParties(bytes32)": {
        "details": "Returns if Safe transaction is a valid owner replacement transaction.",
        "params": {
          "dataHash": "Data hash."
        },
        "returns": {
          "_0": "Confirmation status."
        }
      },
      "recoverAccess(address,address,address)": {
        "details": "Returns if Safe transaction is a valid owner replacement transaction.",
        "params": {
          "newOwner": "New owner address.",
          "oldOwner": "Owner address to be replaced.",
          "prevOwner": "Owner that pointed to the owner to be replaced in the linked list"
        }
      }
    }
  },
  "userdoc": {
    "methods": {}
  }
}