{
  "contractName": "BringOutYourDead",
  "abi": [
    {
      "inputs": [],
      "stateMutability": "nonpayable",
      "type": "constructor"
    },
    {
      "anonymous": false,
      "inputs": [
        {
          "indexed": true,
          "internalType": "address",
          "name": "newBeneficiary",
          "type": "address"
        },
        {
          "indexed": true,
          "internalType": "uint256",
          "name": "shares",
          "type": "uint256"
        }
      ],
      "name": "AddedBeneficiary",
      "type": "event"
    },
    {
      "anonymous": false,
      "inputs": [
        {
          "indexed": true,
          "internalType": "uint256",
          "name": "newValue",
          "type": "uint256"
        }
      ],
      "name": "BeneficiariesRequiredForSafeRecoveryChanged",
      "type": "event"
    },
    {
      "anonymous": false,
      "inputs": [
        {
          "indexed": true,
          "internalType": "address",
          "name": "beneficiary",
          "type": "address"
        },
        {
          "indexed": true,
          "internalType": "address",
          "name": "token",
          "type": "address"
        },
        {
          "indexed": true,
          "internalType": "uint256",
          "name": "amount",
          "type": "uint256"
        }
      ],
      "name": "BeneficiaryWithdrawal",
      "type": "event"
    },
    {
      "anonymous": false,
      "inputs": [
        {
          "indexed": true,
          "internalType": "address",
          "name": "oldAddress",
          "type": "address"
        },
        {
          "indexed": true,
          "internalType": "address",
          "name": "newAddress",
          "type": "address"
        }
      ],
      "name": "ChangedBeneficiaryAddress",
      "type": "event"
    },
    {
      "anonymous": false,
      "inputs": [
        {
          "indexed": true,
          "internalType": "address",
          "name": "beneficiary",
          "type": "address"
        },
        {
          "indexed": true,
          "internalType": "uint256",
          "name": "oldShares",
          "type": "uint256"
        },
        {
          "indexed": true,
          "internalType": "uint256",
          "name": "newShares",
          "type": "uint256"
        }
      ],
      "name": "ChangedBeneficiaryShares",
      "type": "event"
    },
    {
      "anonymous": false,
      "inputs": [],
      "name": "ConfirmationOfDeath",
      "type": "event"
    },
    {
      "anonymous": false,
      "inputs": [
        {
          "indexed": true,
          "internalType": "address",
          "name": "reporter",
          "type": "address"
        }
      ],
      "name": "ConfirmationOfLife",
      "type": "event"
    },
    {
      "anonymous": false,
      "inputs": [
        {
          "indexed": true,
          "internalType": "uint256",
          "name": "newValue",
          "type": "uint256"
        }
      ],
      "name": "DeadMansSwitchCheckinSecondsChanged",
      "type": "event"
    },
    {
      "anonymous": false,
      "inputs": [
        {
          "indexed": true,
          "internalType": "address",
          "name": "oldExecutor",
          "type": "address"
        },
        {
          "indexed": true,
          "internalType": "address",
          "name": "newExecutor",
          "type": "address"
        }
      ],
      "name": "ExecutorChanged",
      "type": "event"
    },
    {
      "anonymous": false,
      "inputs": [
        {
          "indexed": true,
          "internalType": "address",
          "name": "gnosisSafe",
          "type": "address"
        },
        {
          "indexed": true,
          "internalType": "address",
          "name": "newSafe",
          "type": "address"
        }
      ],
      "name": "GnosisSafeChanged",
      "type": "event"
    },
    {
      "anonymous": false,
      "inputs": [
        {
          "indexed": true,
          "internalType": "bool",
          "name": "newValue",
          "type": "bool"
        }
      ],
      "name": "IsDeadMansSwitchEnabledChanged",
      "type": "event"
    },
    {
      "anonymous": false,
      "inputs": [
        {
          "indexed": true,
          "internalType": "bool",
          "name": "newValue",
          "type": "bool"
        }
      ],
      "name": "IsExecutorRequiredForSafeRecoveryChanged",
      "type": "event"
    },
    {
      "anonymous": false,
      "inputs": [
        {
          "indexed": true,
          "internalType": "address",
          "name": "oldOracle",
          "type": "address"
        },
        {
          "indexed": true,
          "internalType": "address",
          "name": "newOracle",
          "type": "address"
        }
      ],
      "name": "OracleChanged",
      "type": "event"
    },
    {
      "anonymous": false,
      "inputs": [
        {
          "indexed": true,
          "internalType": "address",
          "name": "previousOwner",
          "type": "address"
        },
        {
          "indexed": true,
          "internalType": "address",
          "name": "newOwner",
          "type": "address"
        }
      ],
      "name": "OwnershipTransferred",
      "type": "event"
    },
    {
      "anonymous": false,
      "inputs": [
        {
          "indexed": true,
          "internalType": "address",
          "name": "formerBeneficiary",
          "type": "address"
        },
        {
          "indexed": true,
          "internalType": "uint256",
          "name": "removedShares",
          "type": "uint256"
        }
      ],
      "name": "RemovedBeneficiary",
      "type": "event"
    },
    {
      "anonymous": false,
      "inputs": [
        {
          "indexed": true,
          "internalType": "address",
          "name": "reporter",
          "type": "address"
        }
      ],
      "name": "ReportOfDeath",
      "type": "event"
    },
    {
      "anonymous": false,
      "inputs": [
        {
          "indexed": true,
          "internalType": "address",
          "name": "token",
          "type": "address"
        }
      ],
      "name": "TrackedTokenAdded",
      "type": "event"
    },
    {
      "anonymous": false,
      "inputs": [
        {
          "indexed": true,
          "internalType": "address",
          "name": "token",
          "type": "address"
        }
      ],
      "name": "TrackedTokenRemoved",
      "type": "event"
    },
    {
      "inputs": [],
      "name": "KYBER_NETWORK_PROXY_ADDRESS",
      "outputs": [
        {
          "internalType": "address",
          "name": "",
          "type": "address"
        }
      ],
      "stateMutability": "view",
      "type": "function"
    },
    {
      "inputs": [
        {
          "internalType": "uint256",
          "name": "",
          "type": "uint256"
        }
      ],
      "name": "beneficiaries",
      "outputs": [
        {
          "internalType": "address",
          "name": "",
          "type": "address"
        }
      ],
      "stateMutability": "view",
      "type": "function"
    },
    {
      "inputs": [],
      "name": "beneficiariesRequiredForSafeRecovery",
      "outputs": [
        {
          "internalType": "uint256",
          "name": "",
          "type": "uint256"
        }
      ],
      "stateMutability": "view",
      "type": "function"
    },
    {
      "inputs": [
        {
          "internalType": "address",
          "name": "",
          "type": "address"
        }
      ],
      "name": "beneficiaryIndex",
      "outputs": [
        {
          "internalType": "uint256",
          "name": "",
          "type": "uint256"
        }
      ],
      "stateMutability": "view",
      "type": "function"
    },
    {
      "inputs": [
        {
          "internalType": "address",
          "name": "",
          "type": "address"
        }
      ],
      "name": "beneficiaryShares",
      "outputs": [
        {
          "internalType": "uint256",
          "name": "",
          "type": "uint256"
        }
      ],
      "stateMutability": "view",
      "type": "function"
    },
    {
      "inputs": [],
      "name": "deadMansSwitchCheckinSeconds",
      "outputs": [
        {
          "internalType": "uint256",
          "name": "",
          "type": "uint256"
        }
      ],
      "stateMutability": "view",
      "type": "function"
    },
    {
      "inputs": [],
      "name": "deadMansSwitchLastCheckin",
      "outputs": [
        {
          "internalType": "uint256",
          "name": "",
          "type": "uint256"
        }
      ],
      "stateMutability": "view",
      "type": "function"
    },
    {
      "inputs": [],
      "name": "declareDeadAfter",
      "outputs": [
        {
          "internalType": "uint256",
          "name": "",
          "type": "uint256"
        }
      ],
      "stateMutability": "view",
      "type": "function"
    },
    {
      "inputs": [],
      "name": "executor",
      "outputs": [
        {
          "internalType": "address",
          "name": "",
          "type": "address"
        }
      ],
      "stateMutability": "view",
      "type": "function"
    },
    {
      "inputs": [],
      "name": "gnosisSafe",
      "outputs": [
        {
          "internalType": "address",
          "name": "",
          "type": "address"
        }
      ],
      "stateMutability": "view",
      "type": "function"
    },
    {
      "inputs": [
        {
          "internalType": "address",
          "name": "",
          "type": "address"
        },
        {
          "internalType": "address",
          "name": "",
          "type": "address"
        }
      ],
      "name": "isBeneficiaryTokenWithdrawn",
      "outputs": [
        {
          "internalType": "bool",
          "name": "",
          "type": "bool"
        }
      ],
      "stateMutability": "view",
      "type": "function"
    },
    {
      "inputs": [
        {
          "internalType": "bytes32",
          "name": "",
          "type": "bytes32"
        },
        {
          "internalType": "address",
          "name": "",
          "type": "address"
        }
      ],
      "name": "isConfirmed",
      "outputs": [
        {
          "internalType": "bool",
          "name": "",
          "type": "bool"
        }
      ],
      "stateMutability": "view",
      "type": "function"
    },
    {
      "inputs": [],
      "name": "isDeadMansSwitchEnabled",
      "outputs": [
        {
          "internalType": "bool",
          "name": "",
          "type": "bool"
        }
      ],
      "stateMutability": "view",
      "type": "function"
    },
    {
      "inputs": [
        {
          "internalType": "bytes32",
          "name": "",
          "type": "bytes32"
        }
      ],
      "name": "isExecuted",
      "outputs": [
        {
          "internalType": "bool",
          "name": "",
          "type": "bool"
        }
      ],
      "stateMutability": "view",
      "type": "function"
    },
    {
      "inputs": [],
      "name": "isExecutorRequiredForSafeRecovery",
      "outputs": [
        {
          "internalType": "bool",
          "name": "",
          "type": "bool"
        }
      ],
      "stateMutability": "view",
      "type": "function"
    },
    {
      "inputs": [],
      "name": "liveliness",
      "outputs": [
        {
          "internalType": "enum BringOutYourDead.Lifesigns",
          "name": "",
          "type": "uint8"
        }
      ],
      "stateMutability": "view",
      "type": "function"
    },
    {
      "inputs": [],
      "name": "oracle",
      "outputs": [
        {
          "internalType": "address",
          "name": "",
          "type": "address"
        }
      ],
      "stateMutability": "view",
      "type": "function"
    },
    {
      "inputs": [],
      "name": "owner",
      "outputs": [
        {
          "internalType": "address",
          "name": "",
          "type": "address"
        }
      ],
      "stateMutability": "view",
      "type": "function"
    },
    {
      "inputs": [],
      "name": "totalShares",
      "outputs": [
        {
          "internalType": "uint256",
          "name": "",
          "type": "uint256"
        }
      ],
      "stateMutability": "view",
      "type": "function"
    },
    {
      "inputs": [
        {
          "internalType": "address",
          "name": "",
          "type": "address"
        }
      ],
      "name": "totalTokensKnown",
      "outputs": [
        {
          "internalType": "uint256",
          "name": "",
          "type": "uint256"
        }
      ],
      "stateMutability": "view",
      "type": "function"
    },
    {
      "inputs": [
        {
          "internalType": "uint256",
          "name": "",
          "type": "uint256"
        }
      ],
      "name": "trackedTokens",
      "outputs": [
        {
          "internalType": "address",
          "name": "",
          "type": "address"
        }
      ],
      "stateMutability": "view",
      "type": "function"
    },
    {
      "inputs": [],
      "name": "uncertaintyPeriod",
      "outputs": [
        {
          "internalType": "uint256",
          "name": "",
          "type": "uint256"
        }
      ],
      "stateMutability": "view",
      "type": "function"
    },
    {
      "stateMutability": "payable",
      "type": "receive"
    },
    {
      "inputs": [
        {
          "internalType": "bytes32",
          "name": "dataHash",
          "type": "bytes32"
        }
      ],
      "name": "confirmTransaction",
      "outputs": [],
      "stateMutability": "nonpayable",
      "type": "function"
    },
    {
      "inputs": [
        {
          "internalType": "address",
          "name": "prevOwner",
          "type": "address"
        },
        {
          "internalType": "address",
          "name": "oldOwner",
          "type": "address"
        },
        {
          "internalType": "address",
          "name": "newOwner",
          "type": "address"
        }
      ],
      "name": "recoverAccess",
      "outputs": [],
      "stateMutability": "nonpayable",
      "type": "function"
    },
    {
      "inputs": [
        {
          "internalType": "bytes32",
          "name": "dataHash",
          "type": "bytes32"
        }
      ],
      "name": "isConfirmedByRequiredParties",
      "outputs": [
        {
          "internalType": "bool",
          "name": "",
          "type": "bool"
        }
      ],
      "stateMutability": "view",
      "type": "function"
    },
    {
      "inputs": [
        {
          "internalType": "bytes",
          "name": "data",
          "type": "bytes"
        }
      ],
      "name": "getDataHash",
      "outputs": [
        {
          "internalType": "bytes32",
          "name": "",
          "type": "bytes32"
        }
      ],
      "stateMutability": "pure",
      "type": "function"
    },
    {
      "inputs": [],
      "name": "gnosisSafeSetup",
      "outputs": [],
      "stateMutability": "nonpayable",
      "type": "function"
    },
    {
      "inputs": [
        {
          "internalType": "address",
          "name": "newSafe",
          "type": "address"
        }
      ],
      "name": "setGnosisSafe",
      "outputs": [],
      "stateMutability": "nonpayable",
      "type": "function"
    },
    {
      "inputs": [
        {
          "internalType": "bool",
          "name": "newValue",
          "type": "bool"
        }
      ],
      "name": "setIsExecutorRequiredForSafeRecovery",
      "outputs": [],
      "stateMutability": "nonpayable",
      "type": "function"
    },
    {
      "inputs": [
        {
          "internalType": "uint256",
          "name": "newValue",
          "type": "uint256"
        }
      ],
      "name": "setBeneficiariesRequiredForSafeRecovery",
      "outputs": [],
      "stateMutability": "nonpayable",
      "type": "function"
    },
    {
      "inputs": [
        {
          "internalType": "bool",
          "name": "newValue",
          "type": "bool"
        }
      ],
      "name": "setIsDeadMansSwitchEnabled",
      "outputs": [],
      "stateMutability": "nonpayable",
      "type": "function"
    },
    {
      "inputs": [
        {
          "internalType": "uint256",
          "name": "newValue",
          "type": "uint256"
        }
      ],
      "name": "setDeadMansSwitchCheckinSeconds",
      "outputs": [],
      "stateMutability": "nonpayable",
      "type": "function"
    },
    {
      "inputs": [
        {
          "internalType": "address",
          "name": "newOwner",
          "type": "address"
        }
      ],
      "name": "transferOwnership",
      "outputs": [],
      "stateMutability": "nonpayable",
      "type": "function"
    },
    {
      "inputs": [
        {
          "internalType": "address",
          "name": "newOracle",
          "type": "address"
        }
      ],
      "name": "changeOracle",
      "outputs": [],
      "stateMutability": "nonpayable",
      "type": "function"
    },
    {
      "inputs": [
        {
          "internalType": "address",
          "name": "newExecutor",
          "type": "address"
        }
      ],
      "name": "changeExecutor",
      "outputs": [],
      "stateMutability": "nonpayable",
      "type": "function"
    },
    {
      "inputs": [],
      "name": "getBeneficiariesDetails",
      "outputs": [
        {
          "components": [
            {
              "internalType": "address",
              "name": "who",
              "type": "address"
            },
            {
              "internalType": "uint256",
              "name": "shares",
              "type": "uint256"
            }
          ],
          "internalType": "struct BringOutYourDead.ShareHolder[]",
          "name": "beneficiaryDetails",
          "type": "tuple[]"
        }
      ],
      "stateMutability": "view",
      "type": "function"
    },
    {
      "inputs": [
        {
          "internalType": "address",
          "name": "beneficiary",
          "type": "address"
        },
        {
          "internalType": "address",
          "name": "token",
          "type": "address"
        }
      ],
      "name": "getBeneficiaryBalance",
      "outputs": [
        {
          "internalType": "uint256",
          "name": "shareBalance",
          "type": "uint256"
        }
      ],
      "stateMutability": "view",
      "type": "function"
    },
    {
      "inputs": [
        {
          "internalType": "address",
          "name": "newBeneficiary",
          "type": "address"
        },
        {
          "internalType": "uint256",
          "name": "shares",
          "type": "uint256"
        }
      ],
      "name": "addBeneficiary",
      "outputs": [],
      "stateMutability": "nonpayable",
      "type": "function"
    },
    {
      "inputs": [
        {
          "internalType": "address",
          "name": "beneficiary",
          "type": "address"
        }
      ],
      "name": "removeBeneficiary",
      "outputs": [],
      "stateMutability": "nonpayable",
      "type": "function"
    },
    {
      "inputs": [
        {
          "internalType": "address",
          "name": "beneficiary",
          "type": "address"
        },
        {
          "internalType": "uint256",
          "name": "newShares",
          "type": "uint256"
        }
      ],
      "name": "changeBeneficiaryShares",
      "outputs": [],
      "stateMutability": "nonpayable",
      "type": "function"
    },
    {
      "inputs": [
        {
          "internalType": "address",
          "name": "oldAddress",
          "type": "address"
        },
        {
          "internalType": "address",
          "name": "newAddress",
          "type": "address"
        }
      ],
      "name": "changeBeneficiaryAddress",
      "outputs": [],
      "stateMutability": "nonpayable",
      "type": "function"
    },
    {
      "inputs": [],
      "name": "claimEthShares",
      "outputs": [],
      "stateMutability": "nonpayable",
      "type": "function"
    },
    {
      "inputs": [
        {
          "internalType": "address",
          "name": "token",
          "type": "address"
        }
      ],
      "name": "claimTokenShares",
      "outputs": [],
      "stateMutability": "nonpayable",
      "type": "function"
    },
    {
      "inputs": [
        {
          "internalType": "address",
          "name": "token",
          "type": "address"
        }
      ],
      "name": "claimTokenSharesAsEth",
      "outputs": [],
      "stateMutability": "nonpayable",
      "type": "function"
    },
    {
      "inputs": [],
      "name": "distributeEthShares",
      "outputs": [],
      "stateMutability": "nonpayable",
      "type": "function"
    },
    {
      "inputs": [
        {
          "internalType": "address",
          "name": "token",
          "type": "address"
        }
      ],
      "name": "distributeTokenShares",
      "outputs": [],
      "stateMutability": "nonpayable",
      "type": "function"
    },
    {
      "inputs": [
        {
          "internalType": "address",
          "name": "token",
          "type": "address"
        }
      ],
      "name": "distributeTokenSharesAsEth",
      "outputs": [],
      "stateMutability": "nonpayable",
      "type": "function"
    },
    {
      "inputs": [
        {
          "internalType": "address",
          "name": "token",
          "type": "address"
        }
      ],
      "name": "addTrackedToken",
      "outputs": [],
      "stateMutability": "nonpayable",
      "type": "function"
    },
    {
      "inputs": [
        {
          "internalType": "address",
          "name": "token",
          "type": "address"
        }
      ],
      "name": "removeTrackedToken",
      "outputs": [],
      "stateMutability": "nonpayable",
      "type": "function"
    },
    {
      "inputs": [
        {
          "internalType": "bool",
          "name": "isDead",
          "type": "bool"
        }
      ],
      "name": "oracleCallback",
      "outputs": [],
      "stateMutability": "nonpayable",
      "type": "function"
    },
    {
      "inputs": [],
      "name": "bringOutYourDead",
      "outputs": [],
      "stateMutability": "nonpayable",
      "type": "function"
    },
    {
      "inputs": [],
      "name": "imNotDeadYet",
      "outputs": [],
      "stateMutability": "nonpayable",
      "type": "function"
    },
    {
      "inputs": [
        {
          "internalType": "address payable",
          "name": "recipient",
          "type": "address"
        },
        {
          "internalType": "uint256",
          "name": "amount",
          "type": "uint256"
        }
      ],
      "name": "sendEth",
      "outputs": [],
      "stateMutability": "nonpayable",
      "type": "function"
    },
    {
      "inputs": [
        {
          "internalType": "address payable",
          "name": "recipient",
          "type": "address"
        },
        {
          "internalType": "address",
          "name": "token",
          "type": "address"
        },
        {
          "internalType": "uint256",
          "name": "amount",
          "type": "uint256"
        }
      ],
      "name": "sendToken",
      "outputs": [],
      "stateMutability": "nonpayable",
      "type": "function"
    }
  ],
  "bytecode": "0x608060405273818e6fecd516ecc3849daf6845e3ec868087b7556000806101000a81548173ffffffffffffffffffffffffffffffffffffffff021916908373ffffffffffffffffffffffffffffffffffffffff1602179055506340000000600b556249d400600f553480156200007457600080fd5b5033600160006101000a81548173ffffffffffffffffffffffffffffffffffffffff021916908373ffffffffffffffffffffffffffffffffffffffff1602179055506000600d60006101000a81548160ff02191690836002811115620000d657fe5b02179055506001601060006101000a81548160ff0219169083151502179055506001601181905550617a92806200010e6000396000f3fe6080604052600436106103395760003560e01c806389dcfbb1116101ab578063c34c08e5116100f7578063e6b5916a11610095578063efeb5e581161006f578063efeb5e5814610bd1578063f2fde38b14610c0e578063fef11a9514610c37578063ff2dc9a814610c6057610340565b8063e6b5916a14610b40578063e8dd63cb14610b69578063efa58fb214610ba657610340565b8063c95b7204116100d1578063c95b720414610a4c578063dbb1815d14610a89578063dbe6e98714610ac6578063e52cb36a14610b0357610340565b8063c34c08e5146109cd578063c820b396146109f8578063c8544f4514610a2157610340565b8063a62d984d11610164578063ae68b0561161013e578063ae68b056146108ed578063b1efd1021461092a578063b79ffaff14610967578063c3085a3e146109a457610340565b8063a62d984d1461086e578063a76d143e14610897578063a84173ae146108c257610340565b806389dcfbb1146107865780638da5cb5b146107af5780638ed36355146107da57806396074e70146107f15780639665b6581461081a578063a46f0c861461084357610340565b806349dcbc5e1161028557806362520a0a1161022357806379716e43116101fd57806379716e43146106cc5780637b022e74146106f55780637dc0d1d01461071e5780638305368a1461074957610340565b806362520a0a146106615780636b4cfc371461068c57806377231eaa146106a357610340565b80634d757df61161025f5780634d757df6146105cd578063579bb465146105f857806359633a1c1461060f5780635a4de16d1461063857610340565b806349dcbc5e146105525780634b552d861461057b5780634bba98c8146105a457610340565b8063310dd0ad116102f25780633a98ef39116102cc5780633a98ef39146104a8578063400d99d3146104d357806346cca55c146104fe57806347c421b51461052957610340565b8063310dd0ad1461043f578063319576b514610456578063391e91de1461047f57610340565b806306096c7c14610345578063123ca7b91461035c5780631932d6c11461038757806326029244146103b05780632fdcfbd2146103d9578063310924511461040257610340565b3661034057005b600080fd5b34801561035157600080fd5b5061035a610c8b565b005b34801561036857600080fd5b50610371610e1f565b60405161037e91906177c6565b60405180910390f35b34801561039357600080fd5b506103ae60048036036103a9919081019061619d565b610e25565b005b3480156103bc57600080fd5b506103d760048036036103d29190810190616228565b6113ba565b005b3480156103e557600080fd5b5061040060048036036103fb9190810190616112565b61174d565b005b34801561040e57600080fd5b506104296004803603610424919081019061619d565b611931565b6040516104369190617313565b60405180910390f35b34801561044b57600080fd5b50610454611960565b005b34801561046257600080fd5b5061047d600480360361047891908101906160e9565b61196c565b005b34801561048b57600080fd5b506104a660048036036104a191908101906160e9565b611ada565b005b3480156104b457600080fd5b506104bd611c47565b6040516104ca91906177c6565b60405180910390f35b3480156104df57600080fd5b506104e8611c4d565b6040516104f59190617313565b60405180910390f35b34801561050a57600080fd5b50610513611c60565b60405161052091906177c6565b60405180910390f35b34801561053557600080fd5b50610550600480360361054b91908101906160e9565b611c66565b005b34801561055e57600080fd5b5061057960048036036105749190810190616161565b611ee7565b005b34801561058757600080fd5b506105a2600480360361059d9190810190616264565b612072565b005b3480156105b057600080fd5b506105cb60048036036105c691908101906160e9565b61220f565b005b3480156105d957600080fd5b506105e2612310565b6040516105ef9190617349565b60405180910390f35b34801561060457600080fd5b5061060d612323565b005b34801561061b57600080fd5b50610636600480360361063191908101906160e9565b61247e565b005b34801561064457600080fd5b5061065f600480360361065a919081019061635c565b612979565b005b34801561066d57600080fd5b50610676612b01565b6040516106839190617313565b60405180910390f35b34801561069857600080fd5b506106a1612b14565b005b3480156106af57600080fd5b506106ca60048036036106c591908101906161d9565b612b20565b005b3480156106d857600080fd5b506106f360048036036106ee91908101906162b6565b612f4a565b005b34801561070157600080fd5b5061071c60048036036107179190810190616264565b6131a1565b005b34801561072a57600080fd5b506107336132ac565b6040516107409190617103565b60405180910390f35b34801561075557600080fd5b50610770600480360361076b919081019061635c565b6132d2565b60405161077d9190617103565b60405180910390f35b34801561079257600080fd5b506107ad60048036036107a891908101906160e9565b61330e565b005b3480156107bb57600080fd5b506107c46135d2565b6040516107d19190617103565b60405180910390f35b3480156107e657600080fd5b506107ef6135f8565b005b3480156107fd57600080fd5b5061081860048036036108139190810190616228565b6137e5565b005b34801561082657600080fd5b50610841600480360361083c91908101906160e9565b613bd2565b005b34801561084f57600080fd5b50610858613e42565b6040516108659190617103565b60405180910390f35b34801561087a57600080fd5b50610895600480360361089091908101906160e9565b613e67565b005b3480156108a357600080fd5b506108ac614245565b6040516108b991906172f1565b60405180910390f35b3480156108ce57600080fd5b506108d761435a565b6040516108e49190617103565b60405180910390f35b3480156108f957600080fd5b50610914600480360361090f919081019061631b565b614380565b604051610921919061732e565b60405180910390f35b34801561093657600080fd5b50610951600480360361094c919081019061619d565b614391565b60405161095e91906177c6565b60405180910390f35b34801561097357600080fd5b5061098e600480360361098991908101906162df565b614605565b60405161099b9190617313565b60405180910390f35b3480156109b057600080fd5b506109cb60048036036109c691908101906160e9565b614634565b005b3480156109d957600080fd5b506109e2614845565b6040516109ef9190617103565b60405180910390f35b348015610a0457600080fd5b50610a1f6004803603610a1a919081019061635c565b61486b565b005b348015610a2d57600080fd5b50610a36614a37565b604051610a4391906177c6565b60405180910390f35b348015610a5857600080fd5b50610a736004803603610a6e91908101906162b6565b614a3d565b604051610a809190617313565b60405180910390f35b348015610a9557600080fd5b50610ab06004803603610aab91908101906160e9565b614be9565b604051610abd91906177c6565b60405180910390f35b348015610ad257600080fd5b50610aed6004803603610ae891908101906160e9565b614c01565b604051610afa91906177c6565b60405180910390f35b348015610b0f57600080fd5b50610b2a6004803603610b2591908101906162b6565b614c19565b604051610b379190617313565b60405180910390f35b348015610b4c57600080fd5b50610b676004803603610b629190810190616264565b614c39565b005b348015610b7557600080fd5b50610b906004803603610b8b91908101906160e9565b614deb565b604051610b9d91906177c6565b60405180910390f35b348015610bb257600080fd5b50610bbb614e03565b604051610bc891906177c6565b60405180910390f35b348015610bdd57600080fd5b50610bf86004803603610bf3919081019061635c565b614e09565b604051610c059190617103565b60405180910390f35b348015610c1a57600080fd5b50610c356004803603610c3091908101906160e9565b614e45565b005b348015610c4357600080fd5b50610c5e6004803603610c5991908101906160e9565b6150c6565b005b348015610c6c57600080fd5b50610c756151c8565b604051610c8291906177c6565b60405180910390f35b600160009054906101000a900473ffffffffffffffffffffffffffffffffffffffff1673ffffffffffffffffffffffffffffffffffffffff163373ffffffffffffffffffffffffffffffffffffffff161480610d345750600260009054906101000a900473ffffffffffffffffffffffffffffffffffffffff1673ffffffffffffffffffffffffffffffffffffffff163373ffffffffffffffffffffffffffffffffffffffff16145b80610d8c5750600360009054906101000a900473ffffffffffffffffffffffffffffffffffffffff1673ffffffffffffffffffffffffffffffffffffffff163373ffffffffffffffffffffffffffffffffffffffff16145b80610dd657506000600760003373ffffffffffffffffffffffffffffffffffffffff1673ffffffffffffffffffffffffffffffffffffffff16815260200190815260200160002054115b610e15576040517f08c379a0000000000000000000000000000000000000000000000000000000008152600401610e0c90617546565b60405180910390fd5b610e1d6151ce565b565b600f5481565b818073ffffffffffffffffffffffffffffffffffffffff163373ffffffffffffffffffffffffffffffffffffffff161415610ee1576000600760008373ffffffffffffffffffffffffffffffffffffffff1673ffffffffffffffffffffffffffffffffffffffff1681526020019081526020016000205411610edc576040517f08c379a0000000000000000000000000000000000000000000000000000000008152600401610ed390617646565b60405180910390fd5b61108d565b60016002811115610eee57fe5b600d60009054906101000a900460ff166002811115610f0957fe5b14610ffb57600160009054906101000a900473ffffffffffffffffffffffffffffffffffffffff1673ffffffffffffffffffffffffffffffffffffffff163373ffffffffffffffffffffffffffffffffffffffff161480610fb75750600260009054906101000a900473ffffffffffffffffffffffffffffffffffffffff1673ffffffffffffffffffffffffffffffffffffffff163373ffffffffffffffffffffffffffffffffffffffff16145b610ff6576040517f08c379a0000000000000000000000000000000000000000000000000000000008152600401610fed906173a6565b60405180910390fd5b61108c565b600360009054906101000a900473ffffffffffffffffffffffffffffffffffffffff1673ffffffffffffffffffffffffffffffffffffffff163373ffffffffffffffffffffffffffffffffffffffff161461108b576040517f08c379a000000000000000000000000000000000000000000000000000000000815260040161108290617506565b60405180910390fd5b5b5b600073ffffffffffffffffffffffffffffffffffffffff168373ffffffffffffffffffffffffffffffffffffffff1614156110fd576040517f08c379a00000000000000000000000000000000000000000000000000000000081526004016110f490617786565b60405180910390fd5b600073ffffffffffffffffffffffffffffffffffffffff168273ffffffffffffffffffffffffffffffffffffffff16141561116d576040517f08c379a000000000000000000000000000000000000000000000000000000000815260040161116490617526565b60405180910390fd5b6000600760008573ffffffffffffffffffffffffffffffffffffffff1673ffffffffffffffffffffffffffffffffffffffff16815260200190815260200160002054116111ef576040517f08c379a00000000000000000000000000000000000000000000000000000000081526004016111e6906175c6565b60405180910390fd5b60006001600760008673ffffffffffffffffffffffffffffffffffffffff1673ffffffffffffffffffffffffffffffffffffffff168152602001908152602001600020540390506000600660008673ffffffffffffffffffffffffffffffffffffffff1673ffffffffffffffffffffffffffffffffffffffff168152602001908152602001600020549050836005838154811061128857fe5b9060005260206000200160006101000a81548173ffffffffffffffffffffffffffffffffffffffff021916908373ffffffffffffffffffffffffffffffffffffffff1602179055506000600660008773ffffffffffffffffffffffffffffffffffffffff1673ffffffffffffffffffffffffffffffffffffffff1681526020019081526020016000208190555080600660008673ffffffffffffffffffffffffffffffffffffffff1673ffffffffffffffffffffffffffffffffffffffff168152602001908152602001600020819055508373ffffffffffffffffffffffffffffffffffffffff168573ffffffffffffffffffffffffffffffffffffffff167f7d78e1b087362efc35dc4f465436d523b17cab3dfb5c1e476383970f904064a960405160405180910390a35050505050565b600160028111156113c757fe5b600d60009054906101000a900460ff1660028111156113e257fe5b146114d457600160009054906101000a900473ffffffffffffffffffffffffffffffffffffffff1673ffffffffffffffffffffffffffffffffffffffff163373ffffffffffffffffffffffffffffffffffffffff1614806114905750600260009054906101000a900473ffffffffffffffffffffffffffffffffffffffff1673ffffffffffffffffffffffffffffffffffffffff163373ffffffffffffffffffffffffffffffffffffffff16145b6114cf576040517f08c379a00000000000000000000000000000000000000000000000000000000081526004016114c690617566565b60405180910390fd5b611565565b600360009054906101000a900473ffffffffffffffffffffffffffffffffffffffff1673ffffffffffffffffffffffffffffffffffffffff163373ffffffffffffffffffffffffffffffffffffffff1614611564576040517f08c379a000000000000000000000000000000000000000000000000000000000815260040161155b906176e6565b60405180910390fd5b5b600073ffffffffffffffffffffffffffffffffffffffff168273ffffffffffffffffffffffffffffffffffffffff1614156115d5576040517f08c379a00000000000000000000000000000000000000000000000000000000081526004016115cc906176c6565b60405180910390fd5b6000600760008473ffffffffffffffffffffffffffffffffffffffff1673ffffffffffffffffffffffffffffffffffffffff1681526020019081526020016000205411611657576040517f08c379a000000000000000000000000000000000000000000000000000000000815260040161164e90617646565b60405180910390fd5b6000600660008473ffffffffffffffffffffffffffffffffffffffff1673ffffffffffffffffffffffffffffffffffffffff1681526020019081526020016000205490506116a7600a5482615320565b600a819055506116b9600a548361536a565b600a8190555081600660008573ffffffffffffffffffffffffffffffffffffffff1673ffffffffffffffffffffffffffffffffffffffff1681526020019081526020016000208190555081818473ffffffffffffffffffffffffffffffffffffffff167fab6a43a57d39fe3786b868af47db6a5105ba36308ed374d1e4cd54644804037260405160405180910390a4505050565b600160009054906101000a900473ffffffffffffffffffffffffffffffffffffffff1673ffffffffffffffffffffffffffffffffffffffff163373ffffffffffffffffffffffffffffffffffffffff1614806117f65750600260009054906101000a900473ffffffffffffffffffffffffffffffffffffffff1673ffffffffffffffffffffffffffffffffffffffff163373ffffffffffffffffffffffffffffffffffffffff16145b611835576040517f08c379a000000000000000000000000000000000000000000000000000000000815260040161182c90617406565b60405180910390fd5b6001600281111561184257fe5b600d60009054906101000a900460ff16600281111561185d57fe5b141561189e576040517f08c379a000000000000000000000000000000000000000000000000000000000815260040161189590617486565b60405180910390fd5b8173ffffffffffffffffffffffffffffffffffffffff1663a9059cbb84836040518363ffffffff1660e01b81526004016118d9929190617139565b602060405180830381600087803b1580156118f357600080fd5b505af1158015611907573d6000803e3d6000fd5b505050506040513d601f19601f8201168201806040525061192b919081019061628d565b50505050565b60086020528160005260406000206020528060005260406000206000915091509054906101000a900460ff1681565b61196a600061220f565b565b6001600281111561197957fe5b600d60009054906101000a900460ff16600281111561199457fe5b146119d4576040517f08c379a00000000000000000000000000000000000000000000000000000000081526004016119cb906176a6565b60405180910390fd5b600360009054906101000a900473ffffffffffffffffffffffffffffffffffffffff1673ffffffffffffffffffffffffffffffffffffffff163373ffffffffffffffffffffffffffffffffffffffff1614611a64576040517f08c379a0000000000000000000000000000000000000000000000000000000008152600401611a5b906174e6565b60405180910390fd5b611a6d816153bf565b60008090505b600580549050811015611ad657600060058281548110611a8f57fe5b9060005260206000200160009054906101000a900473ffffffffffffffffffffffffffffffffffffffff169050611ac881846000615556565b508080600101915050611a73565b5050565b60016002811115611ae757fe5b600d60009054906101000a900460ff166002811115611b0257fe5b14611b42576040517f08c379a0000000000000000000000000000000000000000000000000000000008152600401611b39906176a6565b60405180910390fd5b600360009054906101000a900473ffffffffffffffffffffffffffffffffffffffff1673ffffffffffffffffffffffffffffffffffffffff163373ffffffffffffffffffffffffffffffffffffffff1614611bd2576040517f08c379a0000000000000000000000000000000000000000000000000000000008152600401611bc9906174e6565b60405180910390fd5b611bdb816153bf565b60008090505b600580549050811015611c4357600060058281548110611bfd57fe5b9060005260206000200160009054906101000a900473ffffffffffffffffffffffffffffffffffffffff169050611c35818485615556565b508080600101915050611be1565b5050565b600a5481565b601460009054906101000a900460ff1681565b60115481565b600160009054906101000a900473ffffffffffffffffffffffffffffffffffffffff1673ffffffffffffffffffffffffffffffffffffffff163373ffffffffffffffffffffffffffffffffffffffff161480611d0f5750600260009054906101000a900473ffffffffffffffffffffffffffffffffffffffff1673ffffffffffffffffffffffffffffffffffffffff163373ffffffffffffffffffffffffffffffffffffffff16145b611d4e576040517f08c379a0000000000000000000000000000000000000000000000000000000008152600401611d4590617406565b60405180910390fd5b60016002811115611d5b57fe5b600d60009054906101000a900460ff166002811115611d7657fe5b1415611db7576040517f08c379a0000000000000000000000000000000000000000000000000000000008152600401611dae90617486565b60405180910390fd5b600073ffffffffffffffffffffffffffffffffffffffff168173ffffffffffffffffffffffffffffffffffffffff161415611e27576040517f08c379a0000000000000000000000000000000000000000000000000000000008152600401611e1e90617426565b60405180910390fd5b8073ffffffffffffffffffffffffffffffffffffffff16600460009054906101000a900473ffffffffffffffffffffffffffffffffffffffff1673ffffffffffffffffffffffffffffffffffffffff167f05cd89403c6bdeac21c2ff33de395121a31fa1bc2bf3adf4825f1f86e79969dd60405160405180910390a380600460006101000a81548173ffffffffffffffffffffffffffffffffffffffff021916908373ffffffffffffffffffffffffffffffffffffffff16021790555050565b600160009054906101000a900473ffffffffffffffffffffffffffffffffffffffff1673ffffffffffffffffffffffffffffffffffffffff163373ffffffffffffffffffffffffffffffffffffffff161480611f905750600260009054906101000a900473ffffffffffffffffffffffffffffffffffffffff1673ffffffffffffffffffffffffffffffffffffffff163373ffffffffffffffffffffffffffffffffffffffff16145b611fcf576040517f08c379a0000000000000000000000000000000000000000000000000000000008152600401611fc690617406565b60405180910390fd5b60016002811115611fdc57fe5b600d60009054906101000a900460ff166002811115611ff757fe5b1415612038576040517f08c379a000000000000000000000000000000000000000000000000000000000815260040161202f90617486565b60405180910390fd5b8173ffffffffffffffffffffffffffffffffffffffff166108fc829081150290604051600060405180830381858888f19350505050505050565b600160009054906101000a900473ffffffffffffffffffffffffffffffffffffffff1673ffffffffffffffffffffffffffffffffffffffff163373ffffffffffffffffffffffffffffffffffffffff16148061211b5750600260009054906101000a900473ffffffffffffffffffffffffffffffffffffffff1673ffffffffffffffffffffffffffffffffffffffff163373ffffffffffffffffffffffffffffffffffffffff16145b61215a576040517f08c379a000000000000000000000000000000000000000000000000000000000815260040161215190617406565b60405180910390fd5b6001600281111561216757fe5b600d60009054906101000a900460ff16600281111561218257fe5b14156121c3576040517f08c379a00000000000000000000000000000000000000000000000000000000081526004016121ba90617486565b60405180910390fd5b8015157fe92d988a3f39703b702f345b798775a34ed2cb65eaa89f1b8c1df7a159969bf260405160405180910390a280601060006101000a81548160ff02191690831515021790555050565b6001600281111561221c57fe5b600d60009054906101000a900460ff16600281111561223757fe5b14612277576040517f08c379a000000000000000000000000000000000000000000000000000000000815260040161226e906176a6565b60405180910390fd5b6000600760003373ffffffffffffffffffffffffffffffffffffffff1673ffffffffffffffffffffffffffffffffffffffff16815260200190815260200160002054116122f9576040517f08c379a00000000000000000000000000000000000000000000000000000000081526004016122f0906175e6565b60405180910390fd5b612302816153bf565b61230d338283615556565b50565b600d60009054906101000a900460ff1681565b600160009054906101000a900473ffffffffffffffffffffffffffffffffffffffff1673ffffffffffffffffffffffffffffffffffffffff163373ffffffffffffffffffffffffffffffffffffffff1614806123cc5750600260009054906101000a900473ffffffffffffffffffffffffffffffffffffffff1673ffffffffffffffffffffffffffffffffffffffff163373ffffffffffffffffffffffffffffffffffffffff16145b61240b576040517f08c379a000000000000000000000000000000000000000000000000000000000815260040161240290617406565b60405180910390fd5b6001600281111561241857fe5b600d60009054906101000a900460ff16600281111561243357fe5b1415612474576040517f08c379a000000000000000000000000000000000000000000000000000000000815260040161246b90617486565b60405180910390fd5b61247c615cb8565b565b6001600281111561248b57fe5b600d60009054906101000a900460ff1660028111156124a657fe5b1461259857600160009054906101000a900473ffffffffffffffffffffffffffffffffffffffff1673ffffffffffffffffffffffffffffffffffffffff163373ffffffffffffffffffffffffffffffffffffffff1614806125545750600260009054906101000a900473ffffffffffffffffffffffffffffffffffffffff1673ffffffffffffffffffffffffffffffffffffffff163373ffffffffffffffffffffffffffffffffffffffff16145b612593576040517f08c379a000000000000000000000000000000000000000000000000000000000815260040161258a90617566565b60405180910390fd5b612629565b600360009054906101000a900473ffffffffffffffffffffffffffffffffffffffff1673ffffffffffffffffffffffffffffffffffffffff163373ffffffffffffffffffffffffffffffffffffffff1614612628576040517f08c379a000000000000000000000000000000000000000000000000000000000815260040161261f906176e6565b60405180910390fd5b5b600073ffffffffffffffffffffffffffffffffffffffff168173ffffffffffffffffffffffffffffffffffffffff161415612699576040517f08c379a0000000000000000000000000000000000000000000000000000000008152600401612690906176c6565b60405180910390fd5b6000600760008373ffffffffffffffffffffffffffffffffffffffff1673ffffffffffffffffffffffffffffffffffffffff168152602001908152602001600020541161271b576040517f08c379a000000000000000000000000000000000000000000000000000000000815260040161271290617646565b60405180910390fd5b6000600760008373ffffffffffffffffffffffffffffffffffffffff1673ffffffffffffffffffffffffffffffffffffffff16815260200190815260200160002054905060008190505b60058054905081101561280f576005600182018154811061278257fe5b9060005260206000200160009054906101000a900473ffffffffffffffffffffffffffffffffffffffff16600582815481106127ba57fe5b9060005260206000200160006101000a81548173ffffffffffffffffffffffffffffffffffffffff021916908373ffffffffffffffffffffffffffffffffffffffff1602179055508080600101915050612765565b50600580548061281b57fe5b6001900381819060005260206000200160006101000a81549073ffffffffffffffffffffffffffffffffffffffff021916905590556000600760008473ffffffffffffffffffffffffffffffffffffffff1673ffffffffffffffffffffffffffffffffffffffff168152602001908152602001600020819055506000600660008473ffffffffffffffffffffffffffffffffffffffff1673ffffffffffffffffffffffffffffffffffffffff1681526020019081526020016000205490506000600660008573ffffffffffffffffffffffffffffffffffffffff1673ffffffffffffffffffffffffffffffffffffffff1681526020019081526020016000208190555061292a600a5482615320565b600a81905550808373ffffffffffffffffffffffffffffffffffffffff167f18d8b6ccc58a1593daafb7383d8b38c330774fcae8f0720cc5914e1dc13f735760405160405180910390a3505050565b600160009054906101000a900473ffffffffffffffffffffffffffffffffffffffff1673ffffffffffffffffffffffffffffffffffffffff163373ffffffffffffffffffffffffffffffffffffffff161480612a225750600260009054906101000a900473ffffffffffffffffffffffffffffffffffffffff1673ffffffffffffffffffffffffffffffffffffffff163373ffffffffffffffffffffffffffffffffffffffff16145b612a61576040517f08c379a0000000000000000000000000000000000000000000000000000000008152600401612a5890617406565b60405180910390fd5b60016002811115612a6e57fe5b600d60009054906101000a900460ff166002811115612a8957fe5b1415612aca576040517f08c379a0000000000000000000000000000000000000000000000000000000008152600401612ac190617486565b60405180910390fd5b807f11bd7215a9bb39d2998de6705c41dc503e57c8f261febc68faa7166d375057ce60405160405180910390a28060118190555050565b601060009054906101000a900460ff1681565b612b1e6000611ada565b565b600160009054906101000a900473ffffffffffffffffffffffffffffffffffffffff1673ffffffffffffffffffffffffffffffffffffffff163373ffffffffffffffffffffffffffffffffffffffff161480612bc95750600260009054906101000a900473ffffffffffffffffffffffffffffffffffffffff1673ffffffffffffffffffffffffffffffffffffffff163373ffffffffffffffffffffffffffffffffffffffff16145b80612c215750600360009054906101000a900473ffffffffffffffffffffffffffffffffffffffff1673ffffffffffffffffffffffffffffffffffffffff163373ffffffffffffffffffffffffffffffffffffffff16145b80612c6b57506000600760003373ffffffffffffffffffffffffffffffffffffffff1673ffffffffffffffffffffffffffffffffffffffff16815260200190815260200160002054115b612caa576040517f08c379a0000000000000000000000000000000000000000000000000000000008152600401612ca190617546565b60405180910390fd5b6060838383604051602401612cc193929190617162565b6040516020818303038152906040527fe318b52b000000000000000000000000000000000000000000000000000000007bffffffffffffffffffffffffffffffffffffffffffffffffffffffff19166020820180517bffffffffffffffffffffffffffffffffffffffffffffffffffffffff838183161783525050505090506000612d4b82614380565b90506012600082815260200190815260200160002060009054906101000a900460ff1615612dae576040517f08c379a0000000000000000000000000000000000000000000000000000000008152600401612da590617706565b60405180910390fd5b612db781614a3d565b612df6576040517f08c379a0000000000000000000000000000000000000000000000000000000008152600401612ded90617746565b60405180910390fd5b60016012600083815260200190815260200160002060006101000a81548160ff021916908315150217905550600260009054906101000a900473ffffffffffffffffffffffffffffffffffffffff1673ffffffffffffffffffffffffffffffffffffffff1663468721a7600260009054906101000a900473ffffffffffffffffffffffffffffffffffffffff1660008560006001811115612e9357fe5b6040518563ffffffff1660e01b8152600401612eb294939291906171f9565b602060405180830381600087803b158015612ecc57600080fd5b505af1158015612ee0573d6000803e3d6000fd5b505050506040513d601f19601f82011682018060405250612f04919081019061628d565b612f43576040517f08c379a0000000000000000000000000000000000000000000000000000000008152600401612f3a90617466565b60405180910390fd5b5050505050565b600160009054906101000a900473ffffffffffffffffffffffffffffffffffffffff1673ffffffffffffffffffffffffffffffffffffffff163373ffffffffffffffffffffffffffffffffffffffff161480612ff35750600260009054906101000a900473ffffffffffffffffffffffffffffffffffffffff1673ffffffffffffffffffffffffffffffffffffffff163373ffffffffffffffffffffffffffffffffffffffff16145b8061304b5750600360009054906101000a900473ffffffffffffffffffffffffffffffffffffffff1673ffffffffffffffffffffffffffffffffffffffff163373ffffffffffffffffffffffffffffffffffffffff16145b8061309557506000600760003373ffffffffffffffffffffffffffffffffffffffff1673ffffffffffffffffffffffffffffffffffffffff16815260200190815260200160002054115b6130d4576040517f08c379a00000000000000000000000000000000000000000000000000000000081526004016130cb90617546565b60405180910390fd5b6012600082815260200190815260200160002060009054906101000a900460ff1615613135576040517f08c379a000000000000000000000000000000000000000000000000000000000815260040161312c90617706565b60405180910390fd5b60016013600083815260200190815260200160002060003373ffffffffffffffffffffffffffffffffffffffff1673ffffffffffffffffffffffffffffffffffffffff16815260200190815260200160002060006101000a81548160ff02191690831515021790555050565b600460009054906101000a900473ffffffffffffffffffffffffffffffffffffffff1673ffffffffffffffffffffffffffffffffffffffff163373ffffffffffffffffffffffffffffffffffffffff1614613231576040517f08c379a000000000000000000000000000000000000000000000000000000000815260040161322890617386565b60405180910390fd5b6001600281111561323e57fe5b600d60009054906101000a900460ff16600281111561325957fe5b141561329a576040517f08c379a000000000000000000000000000000000000000000000000000000000815260040161329190617486565b60405180910390fd5b80156132a9576132a8615daf565b5b50565b600460009054906101000a900473ffffffffffffffffffffffffffffffffffffffff1681565b600c81815481106132df57fe5b906000526020600020016000915054906101000a900473ffffffffffffffffffffffffffffffffffffffff1681565b6001600281111561331b57fe5b600d60009054906101000a900460ff16600281111561333657fe5b1461342857600160009054906101000a900473ffffffffffffffffffffffffffffffffffffffff1673ffffffffffffffffffffffffffffffffffffffff163373ffffffffffffffffffffffffffffffffffffffff1614806133e45750600260009054906101000a900473ffffffffffffffffffffffffffffffffffffffff1673ffffffffffffffffffffffffffffffffffffffff163373ffffffffffffffffffffffffffffffffffffffff16145b613423576040517f08c379a000000000000000000000000000000000000000000000000000000000815260040161341a90617566565b60405180910390fd5b6134b9565b600360009054906101000a900473ffffffffffffffffffffffffffffffffffffffff1673ffffffffffffffffffffffffffffffffffffffff163373ffffffffffffffffffffffffffffffffffffffff16146134b8576040517f08c379a00000000000000000000000000000000000000000000000000000000081526004016134af906176e6565b60405180910390fd5b5b8073ffffffffffffffffffffffffffffffffffffffff16600073ffffffffffffffffffffffffffffffffffffffff161415613529576040517f08c379a0000000000000000000000000000000000000000000000000000000008152600401613520906177a6565b60405180910390fd5b8073ffffffffffffffffffffffffffffffffffffffff167f4b2fda650ccc24e0402aed618ae44d4600945a05d5801363ff07928e94a3841760405160405180910390a2600c819080600181540180825580915050600190039060005260206000200160009091909190916101000a81548173ffffffffffffffffffffffffffffffffffffffff021916908373ffffffffffffffffffffffffffffffffffffffff16021790555050565b600160009054906101000a900473ffffffffffffffffffffffffffffffffffffffff1681565b600160009054906101000a900473ffffffffffffffffffffffffffffffffffffffff1673ffffffffffffffffffffffffffffffffffffffff163373ffffffffffffffffffffffffffffffffffffffff1614806136a15750600260009054906101000a900473ffffffffffffffffffffffffffffffffffffffff1673ffffffffffffffffffffffffffffffffffffffff163373ffffffffffffffffffffffffffffffffffffffff16145b6136e0576040517f08c379a00000000000000000000000000000000000000000000000000000000081526004016136d790617406565b60405180910390fd5b600160028111156136ed57fe5b600d60009054906101000a900460ff16600281111561370857fe5b1415613749576040517f08c379a000000000000000000000000000000000000000000000000000000000815260040161374090617486565b60405180910390fd5b600073ffffffffffffffffffffffffffffffffffffffff16600260009054906101000a900473ffffffffffffffffffffffffffffffffffffffff1673ffffffffffffffffffffffffffffffffffffffff16146137da576040517f08c379a00000000000000000000000000000000000000000000000000000000081526004016137d190617686565b60405180910390fd5b6137e333614634565b565b600160028111156137f257fe5b600d60009054906101000a900460ff16600281111561380d57fe5b146138ff57600160009054906101000a900473ffffffffffffffffffffffffffffffffffffffff1673ffffffffffffffffffffffffffffffffffffffff163373ffffffffffffffffffffffffffffffffffffffff1614806138bb5750600260009054906101000a900473ffffffffffffffffffffffffffffffffffffffff1673ffffffffffffffffffffffffffffffffffffffff163373ffffffffffffffffffffffffffffffffffffffff16145b6138fa576040517f08c379a00000000000000000000000000000000000000000000000000000000081526004016138f190617566565b60405180910390fd5b613990565b600360009054906101000a900473ffffffffffffffffffffffffffffffffffffffff1673ffffffffffffffffffffffffffffffffffffffff163373ffffffffffffffffffffffffffffffffffffffff161461398f576040517f08c379a0000000000000000000000000000000000000000000000000000000008152600401613986906176e6565b60405180910390fd5b5b600073ffffffffffffffffffffffffffffffffffffffff168273ffffffffffffffffffffffffffffffffffffffff161415613a00576040517f08c379a00000000000000000000000000000000000000000000000000000000081526004016139f790617726565b60405180910390fd5b6000600760008473ffffffffffffffffffffffffffffffffffffffff1673ffffffffffffffffffffffffffffffffffffffff1681526020019081526020016000205414613a82576040517f08c379a0000000000000000000000000000000000000000000000000000000008152600401613a79906174c6565b60405180910390fd5b6005829080600181540180825580915050600190039060005260206000200160009091909190916101000a81548173ffffffffffffffffffffffffffffffffffffffff021916908373ffffffffffffffffffffffffffffffffffffffff1602179055506000600580549050905080600760008573ffffffffffffffffffffffffffffffffffffffff1673ffffffffffffffffffffffffffffffffffffffff1681526020019081526020016000208190555081600660008573ffffffffffffffffffffffffffffffffffffffff1673ffffffffffffffffffffffffffffffffffffffff16815260200190815260200160002081905550613b83600a548361536a565b600a81905550818373ffffffffffffffffffffffffffffffffffffffff167f7767ff1f8834c1c59e68c9df939beb0c0f5b888ea4ac3cf352f242b53ea5cf8560405160405180910390a3505050565b600160009054906101000a900473ffffffffffffffffffffffffffffffffffffffff1673ffffffffffffffffffffffffffffffffffffffff163373ffffffffffffffffffffffffffffffffffffffff161480613c7b5750600260009054906101000a900473ffffffffffffffffffffffffffffffffffffffff1673ffffffffffffffffffffffffffffffffffffffff163373ffffffffffffffffffffffffffffffffffffffff16145b80613cd35750600360009054906101000a900473ffffffffffffffffffffffffffffffffffffffff1673ffffffffffffffffffffffffffffffffffffffff163373ffffffffffffffffffffffffffffffffffffffff16145b613d12576040517f08c379a0000000000000000000000000000000000000000000000000000000008152600401613d0990617626565b60405180910390fd5b600073ffffffffffffffffffffffffffffffffffffffff168173ffffffffffffffffffffffffffffffffffffffff161415613d82576040517f08c379a0000000000000000000000000000000000000000000000000000000008152600401613d79906173c6565b60405180910390fd5b8073ffffffffffffffffffffffffffffffffffffffff16600360009054906101000a900473ffffffffffffffffffffffffffffffffffffffff1673ffffffffffffffffffffffffffffffffffffffff167f54a57d849b9d8af1a8883dad9184e599aa67ef60814f6c91db7f864abd4325fc60405160405180910390a380600360006101000a81548173ffffffffffffffffffffffffffffffffffffffff021916908373ffffffffffffffffffffffffffffffffffffffff16021790555050565b6000809054906101000a900473ffffffffffffffffffffffffffffffffffffffff1681565b60016002811115613e7457fe5b600d60009054906101000a900460ff166002811115613e8f57fe5b14613f8157600160009054906101000a900473ffffffffffffffffffffffffffffffffffffffff1673ffffffffffffffffffffffffffffffffffffffff163373ffffffffffffffffffffffffffffffffffffffff161480613f3d5750600260009054906101000a900473ffffffffffffffffffffffffffffffffffffffff1673ffffffffffffffffffffffffffffffffffffffff163373ffffffffffffffffffffffffffffffffffffffff16145b613f7c576040517f08c379a0000000000000000000000000000000000000000000000000000000008152600401613f7390617566565b60405180910390fd5b614012565b600360009054906101000a900473ffffffffffffffffffffffffffffffffffffffff1673ffffffffffffffffffffffffffffffffffffffff163373ffffffffffffffffffffffffffffffffffffffff1614614011576040517f08c379a0000000000000000000000000000000000000000000000000000000008152600401614008906176e6565b60405180910390fd5b5b8073ffffffffffffffffffffffffffffffffffffffff16600073ffffffffffffffffffffffffffffffffffffffff161415614082576040517f08c379a0000000000000000000000000000000000000000000000000000000008152600401614079906177a6565b60405180910390fd5b60008173ffffffffffffffffffffffffffffffffffffffff167fcd537cd377c78753c3dfd24e9b414be383cf1a4089576d0cb19daad2f61298ab60405160405180910390a260008090505b600c8054905081101561415a578273ffffffffffffffffffffffffffffffffffffffff16600c82815481106140fe57fe5b9060005260206000200160009054906101000a900473ffffffffffffffffffffffffffffffffffffffff1673ffffffffffffffffffffffffffffffffffffffff16141561414d5780915061415a565b80806001019150506140cd565b6001600c805490500382101561420057600c6001600c80549050038154811061417f57fe5b9060005260206000200160009054906101000a900473ffffffffffffffffffffffffffffffffffffffff16600c82815481106141b757fe5b9060005260206000200160006101000a81548173ffffffffffffffffffffffffffffffffffffffff021916908373ffffffffffffffffffffffffffffffffffffffff1602179055505b600c80548061420b57fe5b6001900381819060005260206000200160006101000a81549073ffffffffffffffffffffffffffffffffffffffff02191690559055505050565b606060008090505b6005805490508110156143565760405180604001604052806005838154811061427257fe5b9060005260206000200160009054906101000a900473ffffffffffffffffffffffffffffffffffffffff1673ffffffffffffffffffffffffffffffffffffffff16815260200160066000600585815481106142c957fe5b9060005260206000200160009054906101000a900473ffffffffffffffffffffffffffffffffffffffff1673ffffffffffffffffffffffffffffffffffffffff1673ffffffffffffffffffffffffffffffffffffffff1681526020019081526020016000205481525082828151811061433e57fe5b6020026020010181905250808060010191505061424d565b5090565b600260009054906101000a900473ffffffffffffffffffffffffffffffffffffffff1681565b600081805190602001209050919050565b6000600860008473ffffffffffffffffffffffffffffffffffffffff1673ffffffffffffffffffffffffffffffffffffffff16815260200190815260200160002060008373ffffffffffffffffffffffffffffffffffffffff1673ffffffffffffffffffffffffffffffffffffffff16815260200190815260200160002060009054906101000a900460ff161561442b57600090506145ff565b600080600960008573ffffffffffffffffffffffffffffffffffffffff1673ffffffffffffffffffffffffffffffffffffffff1681526020019081526020016000205411156144bb57600960008473ffffffffffffffffffffffffffffffffffffffff1673ffffffffffffffffffffffffffffffffffffffff168152602001908152602001600020549050614585565b8273ffffffffffffffffffffffffffffffffffffffff16600073ffffffffffffffffffffffffffffffffffffffff1614156144f857479050614584565b8273ffffffffffffffffffffffffffffffffffffffff166370a08231306040518263ffffffff1660e01b8152600401614531919061711e565b60206040518083038186803b15801561454957600080fd5b505afa15801561455d573d6000803e3d6000fd5b505050506040513d601f19601f820116820180604052506145819190810190616385565b90505b5b60006145dd614598600b54600a54615e8c565b600660008873ffffffffffffffffffffffffffffffffffffffff1673ffffffffffffffffffffffffffffffffffffffff16815260200190815260200160002054615efc565b905060006145f66145f0600b5485615e8c565b83615efc565b90508093505050505b92915050565b60136020528160005260406000206020528060005260406000206000915091509054906101000a900460ff1681565b600160009054906101000a900473ffffffffffffffffffffffffffffffffffffffff1673ffffffffffffffffffffffffffffffffffffffff163373ffffffffffffffffffffffffffffffffffffffff1614806146dd5750600260009054906101000a900473ffffffffffffffffffffffffffffffffffffffff1673ffffffffffffffffffffffffffffffffffffffff163373ffffffffffffffffffffffffffffffffffffffff16145b61471c576040517f08c379a000000000000000000000000000000000000000000000000000000000815260040161471390617406565b60405180910390fd5b6001600281111561472957fe5b600d60009054906101000a900460ff16600281111561474457fe5b1415614785576040517f08c379a000000000000000000000000000000000000000000000000000000000815260040161477c90617486565b60405180910390fd5b8073ffffffffffffffffffffffffffffffffffffffff16600260009054906101000a900473ffffffffffffffffffffffffffffffffffffffff1673ffffffffffffffffffffffffffffffffffffffff167fbb9deb87cce5d5b85aa80a787387570b6fbe0fe85ae6d74c4f1058a3fca2593460405160405180910390a380600260006101000a81548173ffffffffffffffffffffffffffffffffffffffff021916908373ffffffffffffffffffffffffffffffffffffffff16021790555050565b600360009054906101000a900473ffffffffffffffffffffffffffffffffffffffff1681565b600160009054906101000a900473ffffffffffffffffffffffffffffffffffffffff1673ffffffffffffffffffffffffffffffffffffffff163373ffffffffffffffffffffffffffffffffffffffff1614806149145750600260009054906101000a900473ffffffffffffffffffffffffffffffffffffffff1673ffffffffffffffffffffffffffffffffffffffff163373ffffffffffffffffffffffffffffffffffffffff16145b614953576040517f08c379a000000000000000000000000000000000000000000000000000000000815260040161494a90617406565b60405180910390fd5b6001600281111561496057fe5b600d60009054906101000a900460ff16600281111561497b57fe5b14156149bc576040517f08c379a00000000000000000000000000000000000000000000000000000000081526004016149b390617486565b60405180910390fd5b8060001415614a00576040517f08c379a00000000000000000000000000000000000000000000000000000000081526004016149f790617766565b60405180910390fd5b807f3812589784e3d6e74104ce2a0b88aa24fa72afeb2656fd0a424599cf6778913260405160405180910390a28060158190555050565b60165481565b6000601060009054906101000a900460ff168015614ad85750601360008381526020019081526020016000206000600360009054906101000a900473ffffffffffffffffffffffffffffffffffffffff1673ffffffffffffffffffffffffffffffffffffffff1673ffffffffffffffffffffffffffffffffffffffff16815260200190815260200160002060009054906101000a900460ff16155b15614ae65760009050614be4565b6000601154118015614afd57506000600580549050115b15614bdf57600080600090505b600580549050811015614bdc5760136000858152602001908152602001600020600060058381548110614b3957fe5b9060005260206000200160009054906101000a900473ffffffffffffffffffffffffffffffffffffffff1673ffffffffffffffffffffffffffffffffffffffff1673ffffffffffffffffffffffffffffffffffffffff16815260200190815260200160002060009054906101000a900460ff1615614bba5781806001019250505b601154821415614bcf57600192505050614be4565b8080600101915050614b0a565b50505b600090505b919050565b60076020528060005260406000206000915090505481565b60066020528060005260406000206000915090505481565b60126020528060005260406000206000915054906101000a900460ff1681565b600160009054906101000a900473ffffffffffffffffffffffffffffffffffffffff1673ffffffffffffffffffffffffffffffffffffffff163373ffffffffffffffffffffffffffffffffffffffff161480614ce25750600260009054906101000a900473ffffffffffffffffffffffffffffffffffffffff1673ffffffffffffffffffffffffffffffffffffffff163373ffffffffffffffffffffffffffffffffffffffff16145b614d21576040517f08c379a0000000000000000000000000000000000000000000000000000000008152600401614d1890617406565b60405180910390fd5b60016002811115614d2e57fe5b600d60009054906101000a900460ff166002811115614d4957fe5b1415614d8a576040517f08c379a0000000000000000000000000000000000000000000000000000000008152600401614d8190617486565b60405180910390fd5b8015157fa6177e65b60a1a386d63cbd2bae0a7115628f20d32eb30f3630225852663f79b60405160405180910390a280601460006101000a81548160ff021916908315150217905550801515600115151415614de857426016819055505b50565b60096020528060005260406000206000915090505481565b60155481565b60058181548110614e1657fe5b906000526020600020016000915054906101000a900473ffffffffffffffffffffffffffffffffffffffff1681565b600160009054906101000a900473ffffffffffffffffffffffffffffffffffffffff1673ffffffffffffffffffffffffffffffffffffffff163373ffffffffffffffffffffffffffffffffffffffff161480614eee5750600260009054906101000a900473ffffffffffffffffffffffffffffffffffffffff1673ffffffffffffffffffffffffffffffffffffffff163373ffffffffffffffffffffffffffffffffffffffff16145b614f2d576040517f08c379a0000000000000000000000000000000000000000000000000000000008152600401614f2490617406565b60405180910390fd5b60016002811115614f3a57fe5b600d60009054906101000a900460ff166002811115614f5557fe5b1415614f96576040517f08c379a0000000000000000000000000000000000000000000000000000000008152600401614f8d90617486565b60405180910390fd5b600073ffffffffffffffffffffffffffffffffffffffff168173ffffffffffffffffffffffffffffffffffffffff161415615006576040517f08c379a0000000000000000000000000000000000000000000000000000000008152600401614ffd90617606565b60405180910390fd5b8073ffffffffffffffffffffffffffffffffffffffff16600160009054906101000a900473ffffffffffffffffffffffffffffffffffffffff1673ffffffffffffffffffffffffffffffffffffffff167f8be0079c531659141344cd1fd0a4f28419497f9722a3daafe3b4186f6b6457e060405160405180910390a380600160006101000a81548173ffffffffffffffffffffffffffffffffffffffff021916908373ffffffffffffffffffffffffffffffffffffffff16021790555050565b600160028111156150d357fe5b600d60009054906101000a900460ff1660028111156150ee57fe5b1461512e576040517f08c379a0000000000000000000000000000000000000000000000000000000008152600401615125906176a6565b60405180910390fd5b6000600760003373ffffffffffffffffffffffffffffffffffffffff1673ffffffffffffffffffffffffffffffffffffffff16815260200190815260200160002054116151b0576040517f08c379a00000000000000000000000000000000000000000000000000000000081526004016151a7906175e6565b60405180910390fd5b6151b9816153bf565b6151c533826000615556565b50565b600e5481565b600160028111156151db57fe5b600d60009054906101000a900460ff1660028111156151f657fe5b1415615237576040517f08c379a000000000000000000000000000000000000000000000000000000000815260040161522e90617486565b60405180910390fd5b601460009054906101000a900460ff16615286576040517f08c379a000000000000000000000000000000000000000000000000000000000815260040161527d90617586565b60405180910390fd5b4260155460165401106152ce576040517f08c379a00000000000000000000000000000000000000000000000000000000081526004016152c5906175a6565b60405180910390fd5b7f69538834bdfc6e89fdf5c1b9da2c173030b723496047ff722092ff1965e5333060405160405180910390a16001600d60006101000a81548160ff0219169083600281111561531957fe5b0217905550565b600061536283836040518060400160405280601e81526020017f536166654d6174683a207375627472616374696f6e206f766572666c6f770000815250615f46565b905092915050565b6000808284019050838110156153b5576040517f08c379a00000000000000000000000000000000000000000000000000000000081526004016153ac90617446565b60405180910390fd5b8091505092915050565b6000600960008373ffffffffffffffffffffffffffffffffffffffff1673ffffffffffffffffffffffffffffffffffffffff168152602001908152602001600020541415615553578073ffffffffffffffffffffffffffffffffffffffff16600073ffffffffffffffffffffffffffffffffffffffff1614156154855747600960008373ffffffffffffffffffffffffffffffffffffffff1673ffffffffffffffffffffffffffffffffffffffff16815260200190815260200160002081905550615552565b8073ffffffffffffffffffffffffffffffffffffffff166370a08231306040518263ffffffff1660e01b81526004016154be919061711e565b60206040518083038186803b1580156154d657600080fd5b505afa1580156154ea573d6000803e3d6000fd5b505050506040513d601f19601f8201168201806040525061550e9190810190616385565b600960008373ffffffffffffffffffffffffffffffffffffffff1673ffffffffffffffffffffffffffffffffffffffff168152602001908152602001600020819055505b5b50565b600860008473ffffffffffffffffffffffffffffffffffffffff1673ffffffffffffffffffffffffffffffffffffffff16815260200190815260200160002060008373ffffffffffffffffffffffffffffffffffffffff1673ffffffffffffffffffffffffffffffffffffffff16815260200190815260200160002060009054906101000a900460ff16615cb357600061563c6155f7600b54600a54615e8c565b600660008773ffffffffffffffffffffffffffffffffffffffff1673ffffffffffffffffffffffffffffffffffffffff16815260200190815260200160002054615efc565b9050600061569461568e600b54600960008873ffffffffffffffffffffffffffffffffffffffff1673ffffffffffffffffffffffffffffffffffffffff16815260200190815260200160002054615e8c565b83615efc565b90506001600860008773ffffffffffffffffffffffffffffffffffffffff1673ffffffffffffffffffffffffffffffffffffffff16815260200190815260200160002060008673ffffffffffffffffffffffffffffffffffffffff1673ffffffffffffffffffffffffffffffffffffffff16815260200190815260200160002060006101000a81548160ff0219169083151502179055508373ffffffffffffffffffffffffffffffffffffffff16600073ffffffffffffffffffffffffffffffffffffffff1614156157d9578473ffffffffffffffffffffffffffffffffffffffff166108fc829081150290604051600060405180830381858888f193505050506157d4576040517f08c379a00000000000000000000000000000000000000000000000000000000081526004016157cb906174a6565b60405180910390fd5b615c55565b8373ffffffffffffffffffffffffffffffffffffffff168373ffffffffffffffffffffffffffffffffffffffff1614615bc5578273ffffffffffffffffffffffffffffffffffffffff16600073ffffffffffffffffffffffffffffffffffffffff1614156158595773eeeeeeeeeeeeeeeeeeeeeeeeeeeeeeeeeeeeeeee92505b8373ffffffffffffffffffffffffffffffffffffffff1663095ea7b36000809054906101000a900473ffffffffffffffffffffffffffffffffffffffff1660006040518363ffffffff1660e01b81526004016158b69291906171d0565b602060405180830381600087803b1580156158d057600080fd5b505af11580156158e4573d6000803e3d6000fd5b505050506040513d601f19601f82011682018060405250615908919081019061628d565b508373ffffffffffffffffffffffffffffffffffffffff1663095ea7b36000809054906101000a900473ffffffffffffffffffffffffffffffffffffffff167fffffffffffffffffffffffffffffffffffffffffffffffffffffffffffffffff6040518363ffffffff1660e01b8152600401615985929190617245565b602060405180830381600087803b15801561599f57600080fd5b505af11580156159b3573d6000803e3d6000fd5b505050506040513d601f19601f820116820180604052506159d7919081019061628d565b506000806000809054906101000a900473ffffffffffffffffffffffffffffffffffffffff1673ffffffffffffffffffffffffffffffffffffffff1663809a9e558787866040518463ffffffff1660e01b8152600401615a3993929190617199565b604080518083038186803b158015615a5057600080fd5b505afa158015615a64573d6000803e3d6000fd5b505050506040513d601f19601f82011682018060405250615a8891908101906163ae565b50809250506000809054906101000a900473ffffffffffffffffffffffffffffffffffffffff1673ffffffffffffffffffffffffffffffffffffffff166329589f618785888b7fffffffffffffffffffffffffffffffffffffffffffffffffffffffffffffffff8873dac3794d1644d7ce73d098c19f33e7e10271b2bc6040518863ffffffff1660e01b8152600401615b27979695949392919061726e565b602060405180830381600087803b158015615b4157600080fd5b505af1158015615b55573d6000803e3d6000fd5b505050506040513d601f19601f82011682018060405250615b799190810190616385565b905060008111615bbe576040517f08c379a0000000000000000000000000000000000000000000000000000000008152600401615bb5906173e6565b60405180910390fd5b5050615c54565b8373ffffffffffffffffffffffffffffffffffffffff1663a9059cbb86836040518363ffffffff1660e01b8152600401615c00929190617139565b602060405180830381600087803b158015615c1a57600080fd5b505af1158015615c2e573d6000803e3d6000fd5b505050506040513d601f19601f82011682018060405250615c52919081019061628d565b505b5b808473ffffffffffffffffffffffffffffffffffffffff168673ffffffffffffffffffffffffffffffffffffffff167f01ff03b05140099a458b5372024e7c7da7a44ff7c68f517ad2d06ca51e7a145460405160405180910390a450505b505050565b60016002811115615cc557fe5b600d60009054906101000a900460ff166002811115615ce057fe5b1415615d21576040517f08c379a0000000000000000000000000000000000000000000000000000000008152600401615d1890617486565b60405180910390fd5b3373ffffffffffffffffffffffffffffffffffffffff167f1e017f7894d034b2556b10221489318bb9b022b6773b31f3129e68a8d3b0283c60405160405180910390a26000600d60006101000a81548160ff02191690836002811115615d8357fe5b02179055506000600e81905550601460009054906101000a900460ff1615615dad57426016819055505b565b60016002811115615dbc57fe5b600d60009054906101000a900460ff166002811115615dd757fe5b1415615e18576040517f08c379a0000000000000000000000000000000000000000000000000000000008152600401615e0f90617486565b60405180910390fd5b3373ffffffffffffffffffffffffffffffffffffffff167fb886e2861b8f38932aec2b0f4cb8456b47c847cd4c682287b5c548db3a74b04f60405160405180910390a26002600d60006101000a81548160ff02191690836002811115615e7a57fe5b0217905550600f544201600e81905550565b600080831415615e9f5760009050615ef6565b6000828402905082848281615eb057fe5b0414615ef1576040517f08c379a0000000000000000000000000000000000000000000000000000000008152600401615ee890617666565b60405180910390fd5b809150505b92915050565b6000615f3e83836040518060400160405280601a81526020017f536166654d6174683a206469766973696f6e206279207a65726f000000000000815250615fa1565b905092915050565b6000838311158290615f8e576040517f08c379a0000000000000000000000000000000000000000000000000000000008152600401615f859190617364565b60405180910390fd5b5060008385039050809150509392505050565b60008083118290615fe8576040517f08c379a0000000000000000000000000000000000000000000000000000000008152600401615fdf9190617364565b60405180910390fd5b506000838581615ff457fe5b049050809150509392505050565b600081359050616011816179e9565b92915050565b60008135905061602681617a00565b92915050565b60008135905061603b81617a17565b92915050565b60008151905061605081617a17565b92915050565b60008135905061606581617a2e565b92915050565b600082601f83011261607c57600080fd5b813561608f61608a8261780e565b6177e1565b915080825260208301602083018583830111156160ab57600080fd5b6160b6838284617989565b50505092915050565b6000813590506160ce81617a45565b92915050565b6000815190506160e381617a45565b92915050565b6000602082840312156160fb57600080fd5b600061610984828501616002565b91505092915050565b60008060006060848603121561612757600080fd5b600061613586828701616017565b935050602061614686828701616002565b9250506040616157868287016160bf565b9150509250925092565b6000806040838503121561617457600080fd5b600061618285828601616017565b9250506020616193858286016160bf565b9150509250929050565b600080604083850312156161b057600080fd5b60006161be85828601616002565b92505060206161cf85828601616002565b9150509250929050565b6000806000606084860312156161ee57600080fd5b60006161fc86828701616002565b935050602061620d86828701616002565b925050604061621e86828701616002565b9150509250925092565b6000806040838503121561623b57600080fd5b600061624985828601616002565b925050602061625a858286016160bf565b9150509250929050565b60006020828403121561627657600080fd5b60006162848482850161602c565b91505092915050565b60006020828403121561629f57600080fd5b60006162ad84828501616041565b91505092915050565b6000602082840312156162c857600080fd5b60006162d684828501616056565b91505092915050565b600080604083850312156162f257600080fd5b600061630085828601616056565b925050602061631185828601616002565b9150509250929050565b60006020828403121561632d57600080fd5b600082013567ffffffffffffffff81111561634757600080fd5b6163538482850161606b565b91505092915050565b60006020828403121561636e57600080fd5b600061637c848285016160bf565b91505092915050565b60006020828403121561639757600080fd5b60006163a5848285016160d4565b91505092915050565b600080604083850312156163c157600080fd5b60006163cf858286016160d4565b92505060206163e0858286016160d4565b9150509250929050565b60006163f683836170a7565b60408301905092915050565b61640b8161792f565b82525050565b61641a816178ab565b82525050565b616429816178ab565b82525050565b600061643a8261784a565b6164448185617878565b935061644f8361783a565b8060005b8381101561648057815161646788826163ea565b97506164728361786b565b925050600181019050616453565b5085935050505092915050565b616496816178cf565b82525050565b6164a5816178db565b82525050565b60006164b682617855565b6164c08185617889565b93506164d0818560208601617998565b6164d9816179cb565b840191505092915050565b6164ed81617941565b82525050565b6164fc81617953565b82525050565b600061650d82617860565b616517818561789a565b9350616527818560208601617998565b616530816179cb565b840191505092915050565b600061654860188361789a565b91507f43616c6c6572206973206e6f7420746865206f7261636c6500000000000000006000830152602082019050919050565b600061658860478361789a565b91507f43616c6c6572206973206e6f74207468652062656e6566696369617279206f7260008301527f20746865206f776e657220616e6420746865206f776e6572206973207374696c60208301527f6c20616c697665000000000000000000000000000000000000000000000000006040830152606082019050919050565b600061661460178361789a565b91507f4e6577206578656375746f72206973206d697373696e670000000000000000006000830152602082019050919050565b600061665460258361789a565b91507f4661696c656420746f20636f6e7665727420746f6b656e207468726f7567682060008301527f4b796265720000000000000000000000000000000000000000000000000000006020830152604082019050919050565b60006166ba60178361789a565b91507f43616c6c6572206973206e6f7420746865206f776e65720000000000000000006000830152602082019050919050565b60006166fa60158361789a565b91507f4e6577206f7261636c65206973206d697373696e6700000000000000000000006000830152602082019050919050565b600061673a601b8361789a565b91507f536166654d6174683a206164646974696f6e206f766572666c6f7700000000006000830152602082019050919050565b600061677a601a8361789a565b91507f436f756c64206e6f742065786563757465207265636f766572790000000000006000830152602082019050919050565b60006167ba60188361789a565b91507f4f776e6572206973206e6f206c6f6e67657220616c69766500000000000000006000830152602082019050919050565b60006167fa60158361789a565b91507f50726f626c656d2073656e64696e6720736861726500000000000000000000006000830152602082019050919050565b600061683a602f8361789a565b91507f4e6577206164647265737320697320616c72656164792061207265676973746560008301527f7265642062656e656669636961727900000000000000000000000000000000006020830152604082019050919050565b60006168a0601a8361789a565b91507f43616c6c6572206973206e6f7420746865206578656375746f720000000000006000830152602082019050919050565b60006168e0604e8361789a565b91507f43616c6c6572206973206e6f74207468652062656e6566696369617279206f7260008301527f20746865206578656375746f7220616e6420746865206f776e6572206973206e60208301527f6f206c6f6e67657220616c6976650000000000000000000000000000000000006040830152606082019050919050565b600061696c60228361789a565b91507f4e65772062656e65666963696172792061646472657373206973206d6973736960008301527f6e670000000000000000000000000000000000000000000000000000000000006020830152604082019050919050565b60006169d260168361789a565b91507f43616c6c6572206973206e6f742061206d656d626572000000000000000000006000830152602082019050919050565b6000616a1260348361789a565b91507f43616c6c6572206973206e6f7420746865206f776e657220616e64207468652060008301527f6f776e6572206973207374696c6c20616c6976650000000000000000000000006020830152604082019050919050565b6000616a7860208361789a565b91507f44656164204d616e277320537769746368206973206e6f7420656e61626c65646000830152602082019050919050565b6000616ab8602a8361789a565b91507f4f776e65722068617320636865636b65642d696e20617320616c69766520746f60008301527f6f20726563656e746c79000000000000000000000000000000000000000000006020830152604082019050919050565b6000616b1e602b8361789a565b91507f4f6c642061646472657373206973206e6f74206120726567697374657265642060008301527f62656e65666963696172790000000000000000000000000000000000000000006020830152604082019050919050565b6000616b8460268361789a565b91507f43616c6c6572206973206e6f74206120726567697374657265642062656e656660008301527f69636961727900000000000000000000000000000000000000000000000000006020830152604082019050919050565b6000616bea60148361789a565b91507f4e6577206f776e6572206973206d697373696e670000000000000000000000006000830152602082019050919050565b6000616c2a60238361789a565b91507f43616c6c6572206973206e6f7420746865206f776e6572206f7220657865637560008301527f746f7200000000000000000000000000000000000000000000000000000000006020830152604082019050919050565b6000616c9060278361789a565b91507f41646472657373206973206e6f74206120726567697374657265642062656e6560008301527f66696369617279000000000000000000000000000000000000000000000000006020830152604082019050919050565b6000616cf660218361789a565b91507f536166654d6174683a206d756c7469706c69636174696f6e206f766572666c6f60008301527f77000000000000000000000000000000000000000000000000000000000000006020830152604082019050919050565b6000616d5c601f8361789a565b91507f476e6f736973536166652068617320616c7265616479206265656e20736574006000830152602082019050919050565b6000616d9c60248361789a565b91507f4f776e657220686173206e6f74206265656e20636f6e6669726d65642061732060008301527f64656164000000000000000000000000000000000000000000000000000000006020830152604082019050919050565b6000616e02601e8361789a565b91507f42656e65666963696172792061646472657373206973206d697373696e6700006000830152602082019050919050565b6000616e42603b8361789a565b91507f43616c6c6572206973206e6f7420746865206578656375746f7220616e64207460008301527f6865206f776e6572206973206e6f206c6f6e67657220616c69766500000000006020830152604082019050919050565b6000616ea860198361789a565b91507f5265636f7665727920616c7265616479206578656375746564000000000000006000830152602082019050919050565b6000616ee8600083617889565b9150600082019050919050565b6000616f02601a8361789a565b91507f4e65772062656e6566696369617279206973206d697373696e670000000000006000830152602082019050919050565b6000616f4260258361789a565b91507f5265636f7665727920686173206e6f7420656e6f75676820636f6e6669726d6160008301527f74696f6e730000000000000000000000000000000000000000000000000000006020830152604082019050919050565b6000616fa8603c8361789a565b91507f44656164204d616e27732053776974636820636865636b2d696e207365636f6e60008301527f6473206d7573742062652067726561746572207468616e207a65726f000000006020830152604082019050919050565b600061700e60228361789a565b91507f4f6c642062656e65666963696172792061646472657373206973206d6973736960008301527f6e670000000000000000000000000000000000000000000000000000000000006020830152604082019050919050565b600061707460188361789a565b91507f546f6b656e2061646472657373206973206d697373696e6700000000000000006000830152602082019050919050565b6040820160008201516170bd6000850182616411565b5060208201516170d060208501826170d6565b50505050565b6170df81617918565b82525050565b6170ee81617918565b82525050565b6170fd81617922565b82525050565b60006020820190506171186000830184616420565b92915050565b60006020820190506171336000830184616402565b92915050565b600060408201905061714e6000830185616402565b61715b60208301846170e5565b9392505050565b60006060820190506171776000830186616420565b6171846020830185616420565b6171916040830184616420565b949350505050565b60006060820190506171ae6000830186616420565b6171bb6020830185616420565b6171c860408301846170e5565b949350505050565b60006040820190506171e56000830185616420565b6171f260208301846164f3565b9392505050565b600060808201905061720e6000830187616420565b61721b60208301866164f3565b818103604083015261722d81856164ab565b905061723c60608301846170f4565b95945050505050565b600060408201905061725a6000830185616420565b61726760208301846170e5565b9392505050565b600061010082019050617284600083018a616420565b61729160208301896170e5565b61729e6040830188616420565b6172ab6060830187616402565b6172b860808301866170e5565b6172c560a08301856170e5565b6172d260c0830184616420565b81810360e08301526172e381616edb565b905098975050505050505050565b6000602082019050818103600083015261730b818461642f565b905092915050565b6000602082019050617328600083018461648d565b92915050565b6000602082019050617343600083018461649c565b92915050565b600060208201905061735e60008301846164e4565b92915050565b6000602082019050818103600083015261737e8184616502565b905092915050565b6000602082019050818103600083015261739f8161653b565b9050919050565b600060208201905081810360008301526173bf8161657b565b9050919050565b600060208201905081810360008301526173df81616607565b9050919050565b600060208201905081810360008301526173ff81616647565b9050919050565b6000602082019050818103600083015261741f816166ad565b9050919050565b6000602082019050818103600083015261743f816166ed565b9050919050565b6000602082019050818103600083015261745f8161672d565b9050919050565b6000602082019050818103600083015261747f8161676d565b9050919050565b6000602082019050818103600083015261749f816167ad565b9050919050565b600060208201905081810360008301526174bf816167ed565b9050919050565b600060208201905081810360008301526174df8161682d565b9050919050565b600060208201905081810360008301526174ff81616893565b9050919050565b6000602082019050818103600083015261751f816168d3565b9050919050565b6000602082019050818103600083015261753f8161695f565b9050919050565b6000602082019050818103600083015261755f816169c5565b9050919050565b6000602082019050818103600083015261757f81616a05565b9050919050565b6000602082019050818103600083015261759f81616a6b565b9050919050565b600060208201905081810360008301526175bf81616aab565b9050919050565b600060208201905081810360008301526175df81616b11565b9050919050565b600060208201905081810360008301526175ff81616b77565b9050919050565b6000602082019050818103600083015261761f81616bdd565b9050919050565b6000602082019050818103600083015261763f81616c1d565b9050919050565b6000602082019050818103600083015261765f81616c83565b9050919050565b6000602082019050818103600083015261767f81616ce9565b9050919050565b6000602082019050818103600083015261769f81616d4f565b9050919050565b600060208201905081810360008301526176bf81616d8f565b9050919050565b600060208201905081810360008301526176df81616df5565b9050919050565b600060208201905081810360008301526176ff81616e35565b9050919050565b6000602082019050818103600083015261771f81616e9b565b9050919050565b6000602082019050818103600083015261773f81616ef5565b9050919050565b6000602082019050818103600083015261775f81616f35565b9050919050565b6000602082019050818103600083015261777f81616f9b565b9050919050565b6000602082019050818103600083015261779f81617001565b9050919050565b600060208201905081810360008301526177bf81617067565b9050919050565b60006020820190506177db60008301846170e5565b92915050565b6000604051905081810181811067ffffffffffffffff8211171561780457600080fd5b8060405250919050565b600067ffffffffffffffff82111561782557600080fd5b601f19601f8301169050602081019050919050565b6000819050602082019050919050565b600081519050919050565b600081519050919050565b600081519050919050565b6000602082019050919050565b600082825260208201905092915050565b600082825260208201905092915050565b600082825260208201905092915050565b60006178b6826178f8565b9050919050565b60006178c8826178f8565b9050919050565b60008115159050919050565b6000819050919050565b60008190506178f3826179dc565b919050565b600073ffffffffffffffffffffffffffffffffffffffff82169050919050565b6000819050919050565b600060ff82169050919050565b600061793a82617965565b9050919050565b600061794c826178e5565b9050919050565b600061795e82617918565b9050919050565b600061797082617977565b9050919050565b6000617982826178f8565b9050919050565b82818337600083830152505050565b60005b838110156179b657808201518184015260208101905061799b565b838111156179c5576000848401525b50505050565b6000601f19601f8301169050919050565b600381106179e657fe5b50565b6179f2816178ab565b81146179fd57600080fd5b50565b617a09816178bd565b8114617a1457600080fd5b50565b617a20816178cf565b8114617a2b57600080fd5b50565b617a37816178db565b8114617a4257600080fd5b50565b617a4e81617918565b8114617a5957600080fd5b5056fea2646970667358221220dffbc79ee06d453f7d512f9376e04fdeea04c67884f24afc88401e11df95cbaf64736f6c63430006010033",
  "source": "pragma solidity ^0.6.0;\r\n//pragma solidity ^0.5.0;\r\npragma experimental ABIEncoderV2;\r\n\r\n// Alfred.Estate - Proof of Death - Digital Inheritance Automation\r\n\r\n//import \"./SafeMath.sol\";\r\nimport \"@openzeppelin/contracts/math/SafeMath.sol\";\r\n//import \"./IERC20.sol\";\r\nimport \"@openzeppelin/contracts/token/ERC20/IERC20.sol\";\r\n\r\n//import \"https://github.com/gnosis/safe-contracts/blob/v1.1.1/contracts/base/Module.sol\";\r\n//import \"./gnosis/safe-contracts-1.1.1/contracts/base/Module.sol\";\r\n//import \"./gnosis/safe-contracts-1.1.1/contracts/base/ModuleManager.sol\";\r\n//import \"./gnosis/safe-contracts-1.1.1/contracts/common/Enum.sol\";\r\n\r\n//import \"@gnosis.pm/safe-contracts/contracts/base/Module.sol\";\r\n//import \"@gnosis.pm/safe-contracts/contracts/base/ModuleManager.sol\";\r\nimport \"./IModuleManager.sol\";\r\nimport \"@gnosis.pm/safe-contracts/contracts/common/Enum.sol\";\r\n\r\n\r\n\r\n//contract BringOutYourDead is Module {\r\ncontract BringOutYourDead {\r\n    uint constant MAX_UINT = 2**256 - 1;\r\n    address constant KYBER_ETH_ADDRESS = 0xEeeeeEeeeEeEeeEeEeEeeEEEeeeeEeeeeeeeEEeE;\r\n    address public KYBER_NETWORK_PROXY_ADDRESS = 0x818E6FECD516Ecc3849DAf6845e3EC868087B755;\r\n    address constant REFERAL_ADDRESS = 0xdac3794d1644D7cE73d098C19f33E7e10271b2bC;\r\n\r\n    // Gnosis Safe module manager\r\n    // ModuleManager public manager;  Inherited from Module\r\n    address public owner;\r\n    address public gnosisSafe;\r\n    address public executor;\r\n    address public oracle;\r\n    address[] public beneficiaries;\r\n    mapping(address => uint256) public beneficiaryShares;\r\n    mapping(address => uint256) public beneficiaryIndex;\r\n    mapping(address => mapping(address => bool)) public isBeneficiaryTokenWithdrawn;\r\n    mapping(address => uint256) public totalTokensKnown;\r\n    uint256 public totalShares;\r\n    // TODO: Further evaluate if precision is sufficient for share ratios\r\n    uint256 private precision = 8**10;\r\n    address[] public trackedTokens;\r\n\r\n    enum Lifesigns { Alive, Dead, Uncertain }\r\n    Lifesigns public liveliness;\r\n    uint256 public declareDeadAfter;\r\n    uint256 public uncertaintyPeriod = 8 weeks;\r\n    // uint256 public uncertaintyPeriod = 8 seconds;  // For demonstration\r\n\r\n    // Gnosis Safe Recovery settings\r\n    bool public isExecutorRequiredForSafeRecovery;\r\n    uint256 public beneficiariesRequiredForSafeRecovery;\r\n    // isExecuted mapping maps data hash to execution status.\r\n    mapping (bytes32 => bool) public isExecuted;\r\n    // isConfirmed mapping maps data hash to beneficiary's address to confirmation status.\r\n    mapping (bytes32 => mapping (address => bool)) public isConfirmed;\r\n\r\n    // Dead Man's Switch settings\r\n    bool public isDeadMansSwitchEnabled;\r\n    uint256 public deadMansSwitchCheckinSeconds;\r\n    uint256 public deadMansSwitchLastCheckin;\r\n\r\n    struct ShareHolder {\r\n        address who;\r\n        uint256 shares;\r\n    }\r\n\r\n    event ReportOfDeath(address indexed reporter);\r\n    event ConfirmationOfLife(address indexed reporter);\r\n    event ConfirmationOfDeath();\r\n    event OwnershipTransferred(address indexed previousOwner, address indexed newOwner);\r\n    event GnosisSafeChanged(address indexed gnosisSafe, address indexed newSafe);\r\n    event OracleChanged(address indexed oldOracle, address indexed newOracle);\r\n    event ExecutorChanged(address indexed oldExecutor, address indexed newExecutor);\r\n    event AddedBeneficiary(address indexed newBeneficiary, uint256 indexed shares);\r\n    event RemovedBeneficiary(address indexed formerBeneficiary, uint256 indexed removedShares);\r\n    event ChangedBeneficiaryShares(address indexed beneficiary, uint256 indexed oldShares, uint256 indexed newShares);\r\n    event ChangedBeneficiaryAddress(address indexed oldAddress, address indexed newAddress);\r\n    event BeneficiaryWithdrawal(address indexed beneficiary, address indexed token, uint256 indexed amount);\r\n    event TrackedTokenAdded(address indexed token);\r\n    event TrackedTokenRemoved(address indexed token);\r\n    event IsExecutorRequiredForSafeRecoveryChanged(bool indexed newValue);\r\n    event BeneficiariesRequiredForSafeRecoveryChanged(uint256 indexed newValue);\r\n    event IsDeadMansSwitchEnabledChanged(bool indexed newValue);\r\n    event DeadMansSwitchCheckinSecondsChanged(uint256 indexed newValue);\r\n\r\n    // TODO: Ability for owner to invest/withdraw from interest bearing savings contracts\r\n    // TODO: Add second waiting period after death for executor to withdraw and pay debts before payout to beneficiaries\r\n    // TODO: Support withdrawal/settling from loan dapps prior to any withdrawals\r\n    // TODO: After second waiting period establish actual share per beneficiary based on share proportions\r\n\r\n\r\n    modifier onlyOwner() {\r\n        require(msg.sender == owner || msg.sender == gnosisSafe, \"Caller is not the owner\");\r\n        require(liveliness != Lifesigns.Dead, \"Owner is no longer alive\");\r\n        _;\r\n    }\r\n\r\n    modifier onlyExecutor() {\r\n        require(msg.sender == executor, \"Caller is not the executor\");\r\n        _;\r\n    }\r\n\r\n    modifier onlyOwnerOrExecutor() {\r\n        require(msg.sender == owner || msg.sender == gnosisSafe || msg.sender == executor, \"Caller is not the owner or executor\");\r\n        _;\r\n    }\r\n\r\n    modifier onlyController() {\r\n        if(liveliness != Lifesigns.Dead) {\r\n            require(msg.sender == owner || msg.sender == gnosisSafe, \"Caller is not the owner and the owner is still alive\");\r\n        } else {\r\n            require(msg.sender == executor, \"Caller is not the executor and the owner is no longer alive\");\r\n        }\r\n        _;\r\n    }\r\n\r\n    modifier onlyControllerOrBeneficiary(address who) {\r\n        if(msg.sender == who) {\r\n            require(beneficiaryIndex[who] > 0, \"Address is not a registered beneficiary\");\r\n        } else {\r\n            if(liveliness != Lifesigns.Dead) {\r\n                require(msg.sender == owner || msg.sender == gnosisSafe, \"Caller is not the beneficiary or the owner and the owner is still alive\");\r\n            } else {\r\n                require(msg.sender == executor, \"Caller is not the beneficiary or the executor and the owner is no longer alive\");\r\n            }\r\n        }\r\n        _;\r\n    }\r\n\r\n    modifier onlyBeneficiary() {\r\n        require(beneficiaryIndex[msg.sender] > 0, \"Caller is not a registered beneficiary\");\r\n        // require(beneficiaryShares[msg.sender] > 0, \"Caller does not have any shares\");\r\n        _;\r\n    }\r\n\r\n    modifier onlyMember() {\r\n        require(msg.sender == owner || msg.sender == gnosisSafe || msg.sender == executor || beneficiaryIndex[msg.sender] > 0, \"Caller is not a member\");\r\n        // require(msg.sender == owner || msg.sender == gnosisSafe || msg.sender == executor || beneficiaryShares[msg.sender] > 0, \"Caller is not a member\");\r\n        _;\r\n    }\r\n\r\n    modifier onlyOracle() {\r\n        require(msg.sender == oracle, \"Caller is not the oracle\");\r\n        _;\r\n    }\r\n\r\n    modifier notDead() {\r\n        require(liveliness != Lifesigns.Dead, \"Owner is no longer alive\");\r\n        _;\r\n    }\r\n\r\n    modifier onlyDead() {\r\n        require(liveliness == Lifesigns.Dead, \"Owner has not been confirmed as dead\");\r\n        _;\r\n    }\r\n\r\n    constructor() public {\r\n        owner = msg.sender;\r\n        liveliness = Lifesigns.Alive;\r\n        isExecutorRequiredForSafeRecovery = true;\r\n        beneficiariesRequiredForSafeRecovery = 1;\r\n    }\r\n\r\n    receive() external payable {\r\n        // THIS SPACE INTENTIONALLY LEFT BLANK\r\n        // Any code  here could consume too much gas, causing basic ETH payments to fail\r\n    }\r\n\r\n    /// @dev Allows an executor or beneficiary to confirm a Safe transaction.\r\n    /// @param dataHash Safe transaction hash.\r\n    function confirmTransaction(bytes32 dataHash)\r\n        public\r\n        onlyMember\r\n    {\r\n        require(!isExecuted[dataHash], \"Recovery already executed\");\r\n        isConfirmed[dataHash][msg.sender] = true;\r\n    }\r\n\r\n    /// @dev Returns if Safe transaction is a valid owner replacement transaction.\r\n    /// @param prevOwner Owner that pointed to the owner to be replaced in the linked list\r\n    /// @param oldOwner Owner address to be replaced.\r\n    /// @param newOwner New owner address.\r\n    function recoverAccess(address prevOwner, address oldOwner, address newOwner)\r\n        public\r\n        onlyMember\r\n    {\r\n        bytes memory data = abi.encodeWithSignature(\"swapOwner(address,address,address)\", prevOwner, oldOwner, newOwner);\r\n        bytes32 dataHash = getDataHash(data);\r\n        require(!isExecuted[dataHash], \"Recovery already executed\");\r\n        require(isConfirmedByRequiredParties(dataHash), \"Recovery has not enough confirmations\");\r\n        isExecuted[dataHash] = true;\r\n        // require(manager.execTransactionFromModule(address(manager), 0, data, Enum.Operation.Call), \"Could not execute recovery\");\r\n        require(ModuleManager(gnosisSafe).execTransactionFromModule(gnosisSafe, 0, data, uint8(Enum.Operation.Call)), \"Could not execute recovery\");\r\n    }\r\n\r\n    /// @dev Returns if Safe transaction is a valid owner replacement transaction.\r\n    /// @param dataHash Data hash.\r\n    /// @return Confirmation status.\r\n    function isConfirmedByRequiredParties(bytes32 dataHash)\r\n        public\r\n        view\r\n        returns (bool)\r\n    {\r\n        if(isExecutorRequiredForSafeRecovery && !isConfirmed[dataHash][executor]) {\r\n            return false;\r\n        }\r\n        if(beneficiariesRequiredForSafeRecovery > 0 && beneficiaries.length > 0) {\r\n            uint256 confirmationCount;\r\n            for (uint256 i = 0; i < beneficiaries.length; i++) {\r\n                if (isConfirmed[dataHash][beneficiaries[i]]) {\r\n                    confirmationCount++;\r\n                }\r\n                if (confirmationCount == beneficiariesRequiredForSafeRecovery) {\r\n                    return true;\r\n                }\r\n            }\r\n\r\n        }\r\n        return false;\r\n    }\r\n\r\n    /// @dev Returns hash of data encoding owner replacement.\r\n    /// @param data Data payload.\r\n    /// @return Data hash.\r\n    function getDataHash(bytes memory data)\r\n        public\r\n        pure\r\n        returns (bytes32)\r\n    {\r\n        return keccak256(data);\r\n    }\r\n\r\n    // The Gnosis Safe creating this estate should call this function during initialization\r\n    function gnosisSafeSetup() public onlyOwner {\r\n        // Gnosis Safe contracts/base/Module.sol:\r\n        // setManager();\r\n        // require(address(manager) == address(0), \"Manager has already been set\");\r\n        // manager = ModuleManager(msg.sender);\r\n        require(gnosisSafe == address(0), \"GnosisSafe has already been set\");\r\n\r\n        setGnosisSafe(msg.sender);\r\n    }\r\n\r\n    /*\r\n    function setManager() internal virtual override\r\n    {\r\n        // manager can only be 0 at initialization of contract.\r\n        // Check ensures that setup function can only be called once.\r\n        require(address(manager) == address(0), \"Manager has already been set\");\r\n        manager = ModuleManager(msg.sender);\r\n    }\r\n    */\r\n\r\n    // The Gnosis Safe associated with this contract acts as a co-owner and has the full rights that the primary owner has\r\n    function setGnosisSafe(address newSafe) public onlyOwner {\r\n        // Allow setting to zero address to disable Gnosis Safe co-ownership\r\n        emit GnosisSafeChanged(gnosisSafe, newSafe);\r\n        gnosisSafe = newSafe;\r\n    }\r\n\r\n    function setIsExecutorRequiredForSafeRecovery(bool newValue) public onlyOwner {\r\n        emit IsExecutorRequiredForSafeRecoveryChanged(newValue);\r\n        isExecutorRequiredForSafeRecovery = newValue;\r\n    }\r\n\r\n    function setBeneficiariesRequiredForSafeRecovery(uint256 newValue) public onlyOwner {\r\n        emit BeneficiariesRequiredForSafeRecoveryChanged(newValue);\r\n        beneficiariesRequiredForSafeRecovery = newValue;\r\n    }\r\n\r\n    function setIsDeadMansSwitchEnabled(bool newValue) public onlyOwner {\r\n        emit IsDeadMansSwitchEnabledChanged(newValue);\r\n        isDeadMansSwitchEnabled = newValue;\r\n        if(true == newValue) {\r\n            deadMansSwitchLastCheckin = now;\r\n        }\r\n    }\r\n\r\n    function setDeadMansSwitchCheckinSeconds(uint256 newValue) public onlyOwner {\r\n        require(0 != newValue, \"Dead Man's Switch check-in seconds must be greater than zero\");\r\n        emit DeadMansSwitchCheckinSecondsChanged(newValue);\r\n        deadMansSwitchCheckinSeconds = newValue;\r\n    }\r\n\r\n    function transferOwnership(address newOwner) public onlyOwner {\r\n        require(newOwner != address(0), \"New owner is missing\");\r\n        emit OwnershipTransferred(owner, newOwner);\r\n        owner = newOwner;\r\n    }\r\n\r\n    function changeOracle(address newOracle) public onlyOwner {\r\n        require(newOracle != address(0), \"New oracle is missing\");\r\n        emit OracleChanged(oracle, newOracle);\r\n        oracle = newOracle;\r\n    }\r\n\r\n    function changeExecutor(address newExecutor) public onlyOwnerOrExecutor {\r\n        require(newExecutor != address(0), \"New executor is missing\");\r\n        emit ExecutorChanged(executor, newExecutor);\r\n        executor = newExecutor;\r\n    }\r\n\r\n    function getBeneficiariesDetails() public view returns (ShareHolder[] memory beneficiaryDetails) {\r\n        for(uint i=0; i<beneficiaries.length; i++) {\r\n            beneficiaryDetails[i] = ShareHolder(beneficiaries[i], beneficiaryShares[beneficiaries[i]]);\r\n        }\r\n    }\r\n\r\n    // Determine size of beneficiaries share of tokens given locked in or current balance\r\n    function getBeneficiaryBalance(address beneficiary, address token) public view returns (uint256 shareBalance) {\r\n        // Check if tokens have already been balanced\r\n        if(isBeneficiaryTokenWithdrawn[beneficiary][token]) {\r\n            return 0;\r\n        }\r\n        // Determine the total amount of ETH or tokens held if not yet known, but don't lock total in permanently\r\n        uint totalTokens;\r\n        if(totalTokensKnown[token] > 0) {\r\n            totalTokens = totalTokensKnown[token];\r\n        } else {\r\n            if(address(0) == token) {\r\n                totalTokens = address(this).balance;\r\n            } else {\r\n                totalTokens = IERC20(token).balanceOf(address(this));\r\n            }\r\n        }\r\n\r\n        uint256 shareRatio = SafeMath.div(SafeMath.mul(precision, totalShares), beneficiaryShares[beneficiary]);\r\n        uint256 share = SafeMath.div(SafeMath.mul(precision, totalTokens), shareRatio);\r\n\r\n        return share;\r\n    }\r\n\r\n    function addBeneficiary(address newBeneficiary, uint256 shares) public onlyController {\r\n        require(newBeneficiary != address(0), \"New beneficiary is missing\");\r\n        // require(shares > 0, \"Shares must be greater than zero\");\r\n        // require(beneficiaryShares[newBeneficiary] == 0, \"New beneficiary already exists\");\r\n        require(beneficiaryIndex[newBeneficiary] == 0, \"New address is already a registered beneficiary\");\r\n        beneficiaries.push(newBeneficiary);\r\n        uint256 index = beneficiaries.length;\r\n        beneficiaryIndex[newBeneficiary] = index;\r\n        beneficiaryShares[newBeneficiary] = shares;\r\n        totalShares = SafeMath.add(totalShares, shares);\r\n        emit AddedBeneficiary(newBeneficiary, shares);\r\n    }\r\n\r\n    function removeBeneficiary(address beneficiary) public onlyController {\r\n        require(beneficiary != address(0), \"Beneficiary address is missing\");\r\n        // require(beneficiaryShares[beneficiary] > 0, \"Account is not a current beneficiary\");\r\n        require(beneficiaryIndex[beneficiary] > 0, \"Address is not a registered beneficiary\");\r\n        uint256 index = beneficiaryIndex[beneficiary];\r\n        for(uint256 i = index; i<beneficiaries.length; i++) {\r\n            beneficiaries[i] = beneficiaries[i+1];\r\n        }\r\n        // beneficiaries.length = beneficiaries.length-1;\r\n        beneficiaries.pop();\r\n        beneficiaryIndex[beneficiary] = 0;\r\n        uint256 sharesRemoved = beneficiaryShares[beneficiary];\r\n        beneficiaryShares[beneficiary] = 0;\r\n        totalShares = SafeMath.sub(totalShares, sharesRemoved);\r\n        emit RemovedBeneficiary(beneficiary, sharesRemoved);\r\n    }\r\n\r\n    function changeBeneficiaryShares(address beneficiary, uint256 newShares) public onlyController {\r\n        require(beneficiary != address(0), \"Beneficiary address is missing\");\r\n        // require(beneficiaryShares[beneficiary] > 0, \"Account is not a current beneficiary\");\r\n        require(beneficiaryIndex[beneficiary] > 0, \"Address is not a registered beneficiary\");\r\n        // require(newShares > 0, \"Shares must be greater than zero\");\r\n        uint256 oldShares = beneficiaryShares[beneficiary];\r\n        totalShares = SafeMath.sub(totalShares, oldShares);\r\n        totalShares = SafeMath.add(totalShares, newShares);\r\n        beneficiaryShares[beneficiary] = newShares;\r\n        emit ChangedBeneficiaryShares(beneficiary, oldShares, newShares);\r\n    }\r\n\r\n    function changeBeneficiaryAddress(address oldAddress, address newAddress) public onlyControllerOrBeneficiary(oldAddress) {\r\n        require(oldAddress != address(0), \"Old beneficiary address is missing\");\r\n        require(newAddress != address(0), \"New beneficiary address is missing\");\r\n        require(beneficiaryIndex[oldAddress] > 0, \"Old address is not a registered beneficiary\");\r\n        // require(beneficiaryShares[oldAddress] > 0, \"Account is not a current beneficiary\");\r\n        uint256 index = beneficiaryIndex[oldAddress] - 1;\r\n        uint256 shares = beneficiaryShares[oldAddress];\r\n        beneficiaries[index] = newAddress;\r\n        beneficiaryShares[oldAddress] = 0;\r\n        beneficiaryShares[newAddress] = shares;\r\n        emit ChangedBeneficiaryAddress(oldAddress, newAddress);\r\n    }\r\n\r\n    function claimEthShares() public {\r\n        claimTokenShares(address(0));\r\n    }\r\n\r\n    function claimTokenShares(address token) public onlyDead onlyBeneficiary {\r\n        determinePoolSize(token);\r\n        sendShare(msg.sender, token, token);\r\n    }\r\n\r\n    function claimTokenSharesAsEth(address token) public onlyDead onlyBeneficiary {\r\n        determinePoolSize(token);\r\n        sendShare(msg.sender, token, address(0));\r\n    }\r\n\r\n    function distributeEthShares() public {\r\n        distributeTokenShares(address(0));\r\n    }\r\n\r\n    function distributeTokenShares(address token) public onlyDead onlyExecutor {\r\n        determinePoolSize(token);\r\n        for(uint256 i=0; i < beneficiaries.length; i++) {\r\n            address payable b = address(uint160(beneficiaries[i]));\r\n            sendShare(b, token, token);\r\n        }\r\n    }\r\n\r\n    function distributeTokenSharesAsEth(address token) public onlyDead onlyExecutor {\r\n        determinePoolSize(token);\r\n        for(uint256 i=0; i < beneficiaries.length; i++) {\r\n            address payable b = address(uint160(beneficiaries[i]));\r\n            sendShare(b, token, address(0));\r\n        }\r\n    }\r\n\r\n    function determinePoolSize(address token) internal {\r\n        // Determine the total amount of ETH or tokens held if not yet known\r\n        // NOTE: This does not handle situations where the total balance increases after the first beneficiary has isBeneficiaryTokenWithdrawn\r\n        // TODO: Track expected balance and compare with actual balance, handle any detected discrepancies...\r\n        if(totalTokensKnown[token] == 0) {\r\n            if(address(0) == token) {\r\n                totalTokensKnown[token] = address(this).balance;\r\n            } else {\r\n                totalTokensKnown[token] = IERC20(token).balanceOf(address(this));\r\n            }\r\n        }\r\n    }\r\n\r\n    function sendShare(address payable beneficiary, address token, address receiveToken) internal {\r\n        if(!isBeneficiaryTokenWithdrawn[beneficiary][token]) {\r\n            // TODO: Extensive testing of these operations for edge cases and rounding issues:\r\n            uint256 shareRatio = SafeMath.div(SafeMath.mul(precision, totalShares), beneficiaryShares[beneficiary]);\r\n            uint256 share = SafeMath.div(SafeMath.mul(precision, totalTokensKnown[token]), shareRatio);\r\n            isBeneficiaryTokenWithdrawn[beneficiary][token] = true;\r\n            if(address(0) == token) {\r\n                require(beneficiary.send(share), \"Problem sending share\");\r\n            } else {\r\n                if(receiveToken != token) {\r\n                    if(address(0) == receiveToken) {\r\n                        receiveToken = KYBER_ETH_ADDRESS;\r\n                    }\r\n                    // Convert to desired token or ETH through Kyber\r\n                    IERC20(token).approve(KYBER_NETWORK_PROXY_ADDRESS, 0);\r\n                    IERC20(token).approve(KYBER_NETWORK_PROXY_ADDRESS, MAX_UINT);\r\n                    uint256 min_conversion_rate;\r\n                    uint256 result;\r\n                    (min_conversion_rate,) = KyberNetworkProxy(KYBER_NETWORK_PROXY_ADDRESS).getExpectedRate(token, receiveToken, share);\r\n                    result = KyberNetworkProxy(KYBER_NETWORK_PROXY_ADDRESS).tradeWithHint(token, share, receiveToken, beneficiary, MAX_UINT, min_conversion_rate, REFERAL_ADDRESS, '');\r\n                    require(result > 0, \"Failed to convert token through Kyber\");\r\n                } else {\r\n                    // Don't require token transfer to succeed, since some tokens don't follow spec.\r\n                    // TODO: Could use OpenZepelin SafeERC20 to guarantee transfer succeeded\r\n                    IERC20(token).transfer(beneficiary, share);\r\n                }\r\n            }\r\n            emit BeneficiaryWithdrawal(beneficiary, token, share);\r\n        }\r\n    }\r\n\r\n    function addTrackedToken(address token) public onlyController {\r\n        require(address(0) != token, \"Token address is missing\");\r\n        emit TrackedTokenAdded(token);\r\n        trackedTokens.push(token);\r\n    }\r\n\r\n    function removeTrackedToken(address token) public onlyController {\r\n        require(address(0) != token, \"Token address is missing\");\r\n        uint256 index;\r\n        emit TrackedTokenRemoved(token);\r\n        // TODO: finish this\r\n        uint256 i;\r\n        for(i=0; i<trackedTokens.length; i++) {\r\n            if(trackedTokens[i] == token) {\r\n                index = i;\r\n                break;\r\n            }\r\n        }\r\n        if(index < trackedTokens.length-1) {\r\n            trackedTokens[i] = trackedTokens[trackedTokens.length-1];\r\n        }\r\n        // trackedTokens.length--;\r\n        trackedTokens.pop();\r\n    }\r\n\r\n\r\n    function oracleCallback(bool isDead) public onlyOracle notDead {\r\n        if(isDead) {\r\n            setUncertain();\r\n        }\r\n        //else {\r\n        //    setAlive();\r\n        //}\r\n    }\r\n\r\n    // With dead man's switch: Call after the check-in period has passed without the owner checking in\r\n    // With death oracle: Call after owner has been reported dead and the waiting period has passed to establish confirmation of death\r\n    function bringOutYourDead() public onlyMember {\r\n        setDead();\r\n    }\r\n\r\n    function imNotDeadYet() public onlyOwner {\r\n        setAlive();\r\n    }\r\n\r\n    function sendEth(address payable recipient, uint256 amount) public onlyOwner {\r\n        recipient.send(amount);\r\n    }\r\n\r\n    function sendToken(address payable recipient, address token, uint256 amount) public onlyOwner {\r\n        IERC20(token).transfer(recipient, amount);\r\n    }\r\n\r\n    /*\r\n    function execute(address target, uint256 amount, bytes data) {\r\n    }\r\n    */\r\n\r\n    function setAlive() internal notDead {\r\n        emit ConfirmationOfLife(msg.sender);\r\n        liveliness = Lifesigns.Alive;\r\n        declareDeadAfter = 0;\r\n        if(isDeadMansSwitchEnabled) {\r\n            deadMansSwitchLastCheckin = now;\r\n        }\r\n    }\r\n\r\n    function setUncertain() internal notDead {\r\n            emit ReportOfDeath(msg.sender);\r\n            liveliness = Lifesigns.Uncertain;\r\n            declareDeadAfter = now + uncertaintyPeriod;\r\n    }\r\n\r\n    function setDead() internal notDead {\r\n        // NOTE: This functionality will be enabled when the death oracle is fully implemented\r\n        // require(liveliness == Lifesigns.Uncertain, \"Owner has not been reported as dead yet\");\r\n        // require(declareDeadAfter != 0 && declareDeadAfter < now, \"Owner still has time to demonstrate life\");\r\n\r\n        require(isDeadMansSwitchEnabled, \"Dead Man's Switch is not enabled\");\r\n        require(deadMansSwitchLastCheckin + (deadMansSwitchCheckinSeconds) < now, \"Owner has checked-in as alive too recently\");\r\n        emit ConfirmationOfDeath();\r\n        liveliness = Lifesigns.Dead;\r\n    }\r\n\r\n}\r\n\r\nabstract contract KyberNetworkProxy {\r\n  function removeAlerter ( address alerter ) virtual external;\r\n  function enabled (  ) virtual external view returns ( bool );\r\n  function pendingAdmin (  ) virtual external view returns ( address );\r\n  function getOperators (  ) virtual external view returns ( address[] memory );\r\n  function tradeWithHint ( address src, uint256 srcAmount, address dest, address destAddress, uint256 maxDestAmount, uint256 minConversionRate, address walletId, bytes calldata hint ) virtual external payable returns ( uint256 );\r\n  function swapTokenToEther ( address token, uint256 srcAmount, uint256 minConversionRate ) virtual external returns ( uint256 );\r\n  function withdrawToken ( address token, uint256 amount, address sendTo ) virtual external;\r\n  function maxGasPrice (  ) virtual external view returns ( uint256 );\r\n  function addAlerter ( address newAlerter ) virtual external;\r\n  function kyberNetworkContract (  ) virtual external view returns ( address );\r\n  function getUserCapInWei ( address user ) virtual external view returns ( uint256 );\r\n  function swapTokenToToken ( address src, uint256 srcAmount, address dest, uint256 minConversionRate ) virtual external returns ( uint256 );\r\n  function transferAdmin ( address newAdmin ) virtual external;\r\n  function claimAdmin (  ) virtual external;\r\n  function swapEtherToToken ( address token, uint256 minConversionRate ) virtual external payable returns ( uint256 );\r\n  function transferAdminQuickly ( address newAdmin ) virtual external;\r\n  function getAlerters (  ) virtual external view returns ( address[] memory );\r\n  function getExpectedRate ( address src, address dest, uint256 srcQty ) virtual external view returns ( uint256 expectedRate, uint256 slippageRate );\r\n  function getUserCapInTokenWei ( address user, address token ) virtual external view returns ( uint256 );\r\n  function addOperator ( address newOperator ) virtual external;\r\n  function setKyberNetworkContract ( address _kyberNetworkContract ) virtual external;\r\n  function removeOperator ( address operator ) virtual external;\r\n  function info ( bytes32 field ) virtual external view returns ( uint256 );\r\n  function trade ( address src, uint256 srcAmount, address dest, address destAddress, uint256 maxDestAmount, uint256 minConversionRate, address walletId ) virtual external payable returns ( uint256 );\r\n  function withdrawEther ( uint256 amount, address sendTo ) virtual external;\r\n  function getBalance ( address token, address user ) virtual external view returns ( uint256 );\r\n  function admin (  ) virtual external view returns ( address );\r\n}\r\n",
  "sourcePath": "C:\\Users\\morgan\\PycharmProjects\\alfred-estate-contracts\\contracts\\AlfredEstate.sol",
  "compiler": {
    "name": "solc",
    "version": "0.6.1+commit.e6f7d5a4.Emscripten.clang"
  },
  "schemaVersion": "3.2.3",
  "updatedAt": "2020-08-01T05:29:50.937Z",
  "devdoc": {
    "methods": {
      "confirmTransaction(bytes32)": {
        "details": "Allows an executor or beneficiary to confirm a Safe transaction.",
        "params": {
          "dataHash": "Safe transaction hash."
        }
      },
      "getDataHash(bytes)": {
        "details": "Returns hash of data encoding owner replacement.",
        "params": {
          "data": "Data payload."
        },
        "returns": {
          "_0": "Data hash."
        }
      },
      "isConfirmedByRequiredParties(bytes32)": {
        "details": "Returns if Safe transaction is a valid owner replacement transaction.",
        "params": {
          "dataHash": "Data hash."
        },
        "returns": {
          "_0": "Confirmation status."
        }
      },
      "recoverAccess(address,address,address)": {
        "details": "Returns if Safe transaction is a valid owner replacement transaction.",
        "params": {
          "newOwner": "New owner address.",
          "oldOwner": "Owner address to be replaced.",
          "prevOwner": "Owner that pointed to the owner to be replaced in the linked list"
        }
      }
    }
  },
  "userdoc": {
    "methods": {}
  }
}