{
  "contractName": "MasterCopy",
  "abi": [
    {
      "anonymous": false,
      "inputs": [
        {
          "indexed": false,
          "internalType": "address",
          "name": "masterCopy",
          "type": "address"
        }
      ],
      "name": "ChangedMasterCopy",
      "type": "event"
    },
    {
      "constant": false,
      "inputs": [
        {
          "internalType": "address",
          "name": "_masterCopy",
          "type": "address"
        }
      ],
      "name": "changeMasterCopy",
      "outputs": [],
      "payable": false,
      "stateMutability": "nonpayable",
      "type": "function"
    }
  ],
  "bytecode": "0x608060405234801561001057600080fd5b506102a9806100206000396000f3fe608060405234801561001057600080fd5b506004361061002b5760003560e01c80637de7edef14610030575b600080fd5b6100726004803603602081101561004657600080fd5b81019080803573ffffffffffffffffffffffffffffffffffffffff169060200190929190505050610074565b005b3073ffffffffffffffffffffffffffffffffffffffff163373ffffffffffffffffffffffffffffffffffffffff16146100f8576040517f08c379a000000000000000000000000000000000000000000000000000000000815260040180806020018281038252602c815260200180610249602c913960400191505060405180910390fd5b600073ffffffffffffffffffffffffffffffffffffffff168173ffffffffffffffffffffffffffffffffffffffff16141561017e576040517f08c379a00000000000000000000000000000000000000000000000000000000081526004018080602001828103825260248152602001806102256024913960400191505060405180910390fd5b806000806101000a81548173ffffffffffffffffffffffffffffffffffffffff021916908373ffffffffffffffffffffffffffffffffffffffff1602179055507f75e41bc35ff1bf14d81d1d2f649c0084a0f974f9289c803ec9898eeec4c8d0b881604051808273ffffffffffffffffffffffffffffffffffffffff1673ffffffffffffffffffffffffffffffffffffffff16815260200191505060405180910390a15056fe496e76616c6964206d617374657220636f707920616464726573732070726f76696465644d6574686f642063616e206f6e6c792062652063616c6c65642066726f6d207468697320636f6e7472616374a265627a7a7231582074ee86b5825b8f3908233cecaf6ed8eebb28df8670ef02db7f12f9a458592fe264736f6c63430005100032",
  "source": "pragma solidity >=0.5.0 <0.7.0;\nimport \"./SelfAuthorized.sol\";\n\n\n/// @title MasterCopy - Base for master copy contracts (should always be first super contract)\n///         This contract is tightly coupled to our proxy contract (see `proxies/GnosisSafeProxy.sol`)\n/// @author Richard Meissner - <richard@gnosis.io>\ncontract MasterCopy is SelfAuthorized {\n\n    event ChangedMasterCopy(address masterCopy);\n\n    // masterCopy always needs to be first declared variable, to ensure that it is at the same location as in the Proxy contract.\n    // It should also always be ensured that the address is stored alone (uses a full word)\n    address private masterCopy;\n\n    /// @dev Allows to upgrade the contract. This can only be done via a Safe transaction.\n    /// @param _masterCopy New contract address.\n    function changeMasterCopy(address _masterCopy)\n        public\n        authorized\n    {\n        // Master copy address cannot be null.\n        require(_masterCopy != address(0), \"Invalid master copy address provided\");\n        masterCopy = _masterCopy;\n        emit ChangedMasterCopy(_masterCopy);\n    }\n}\n",
  "sourcePath": "@gnosis.pm\\safe-contracts\\contracts\\common\\MasterCopy.sol",
  "compiler": {
    "name": "solc",
    "version": "0.5.16+commit.9c3226ce.Emscripten.clang"
  },
  "schemaVersion": "3.2.3",
  "updatedAt": "2020-07-31T03:13:32.504Z",
  "devdoc": {
    "author": "Richard Meissner - <richard@gnosis.io>",
    "methods": {
      "changeMasterCopy(address)": {
        "details": "Allows to upgrade the contract. This can only be done via a Safe transaction.",
        "params": {
          "_masterCopy": "New contract address."
        }
      }
    },
    "title": "MasterCopy - Base for master copy contracts (should always be first super contract)         This contract is tightly coupled to our proxy contract (see `proxies/GnosisSafeProxy.sol`)"
  },
  "userdoc": {
    "methods": {}
  }
}